:020000040800F2
:10000000A0080020A9010008EB2D00089128000895
:10001000E92D0008D5120008213200080000000078
:10002000000000000000000000000000EF2D0008AC
:100030001B13000800000000ED2D0008F12D000842
:10004000C3010008C3010008C3010008C301000880
:10005000C3010008C3010008C3010008C301000870
:10006000C3010008C3010008C3010008C301000860
:10007000C3010008C3010008D9120008E5120008F6
:10008000C3010008C3010008C3010008C301000840
:10009000C3010008C3010008C3010008C301000830
:1000A000C3010008C3010008C3010008C301000820
:1000B000C3010008C3010008C3010008C301000810
:1000C000C3010008C3010008C3010008C301000800
:1000D000C301000815320008C3010008C30100086D
:1000E000C3010008C3010008C301000800F002F8C2
:1000F00000F04AF80AA090E8000C82448344AAF178
:100100000107DA4501D100F03FF8AFF2090EBAE875
:100110000F0013F0010F18BFFB1A43F0010318473B
:10012000F43C0000143D0000103A24BF78C878C1A8
:10013000FAD8520724BF30C830C144BF04680C60ED
:10014000704700000023002400250026103A28BF35
:1001500078C1FBD8520728BF30C148BF0B60704739
:10016000662903F08685642900F0808000207047AE
:100170001FB500F05DFB04000020002103F03AF9F8
:10018000E0601FBD10B510BD00F06EFC1146FFF71A
:10019000EFFF03F0FBF800F08CFC03B4FFF7F2FF75
:1001A00003BC03F062F80000094880470948004793
:1001B000FEE7FEE7FEE7FEE7FEE7FEE7FEE7FEE717
:1001C000FEE7FEE704480549054A064B7047000074
:1001D000532E0008ED000008A0020020A008002017
:1001E000A0040020A0040020704700000FB40449C0
:1001F00010B503AA029800F009FB10BC5DF814FBCF
:10020000100000202DE9F0410E4604460020206237
:100210002046E168884730B3252805D0D4E901217C
:100220009047206A401CF2E7E16820460027884793
:10023000050018D0A5F14100192802D820354FF447
:1002400000673246294620462760FFF789FF40B104
:10025000012804D0F61D26F007060836D8E7361D1B
:10026000D6E72846DAE7206ABDE8F0812DE9F041BB
:100270000646002410687529314616A510D0AFF344
:100280000080002802DA404213A507E031688A079F
:1002900001D512A502E0490704D511A5012401E00A
:1002A000AFF3008000210A2206F1240709E0B0FB29
:1002B000F2FCB0FBF2F302FB1C003030785418461D
:1002C000491C0028F3D123462A463046BDE8F041B8
:1002D00000F033B8000000002D0000002B000000EB
:1002E000200000004FF0000200B5134694469646E9
:1002F000203922BFA0E80C50A0E80C50B1F1200139
:10030000BFF4F7AF090728BFA0E80C5048BF0CC0E6
:100310005DF804EB890028BF40F8042B08BF704744
:1003200048BF20F8022B11F0804F18BF00F8012BB6
:10033000704770477047704770472DE9F0470D468A
:1003400099469246044600F124080168880604D5BF
:10035000E06921F01001216000E00120A84201DDE8
:10036000471B00E00027A1697A1902EB0900081A6F
:10037000A0612078C00602D42046AFF3008000269A
:1003800008E0D4E901211AF806009047206A401CD1
:10039000761C20624E45F4DB2078C0060AD5204644
:1003A000AFF3008006E0D4E9012130209047206AB5
:1003B000401C2062381EA7F10107F4DC07E0D4E9F5
:1003C000012118F805009047206A401C2062281E71
:1003D000A5F10105F3DC2046AFF30080207800068C
:1003E00002D50220BDE8F0870120FBE770472DE928
:1003F000FF4F0C461E464FF0FF378BB0D2E900018D
:10040000DDF860800A908A46C1F30A5505B93D4679
:10041000002108464FF00000BAF1000F00F4400040
:1004200005DA00EB80004FF4400101EA50004FEA8A
:100430009059B9F1010F00DDB9460A9850EA4A0017
:100440000ED044F61050A5F2FF3545432F14B8F1F5
:10045000000F1ED07542291E1EDDC9F100021CE0EE
:10046000B8F1010F4FF0000001D0302103E0F2435A
:1004700005E02154401CB042FBDB30460022002145
:1004800021540B99C1F80880C1E900200FB0BDE8E4
:10049000F08FBD1B6D1CDEE74A4600DA694206A8F4
:1004A00000F068FA06AB93E8070003AB83E80700A7
:1004B00050460A9900F046FB8DE80700A0F5005071
:1004C0001F3800900398002D0ADD42F21F014A46B2
:1004D0000844002303A90390684600F0AFFD09E03B
:1004E000A0F500504A461F38002303A90390684630
:1004F00000F0B9FD8DE807000004000C03D04FF0B8
:10050000FF30410800E01046B8F1000F03D0002290
:10051000009215461EE0751E05D400F08DF93032AC
:1005200062556D1EF9D5B3460122084302D0002260
:100530007F1C04E02078302801D100227F1E002A91
:10054000099784D01DE0112D07DA00F075F93032DB
:1005500062556D1C50EA0102F5D1084302D00098A3
:10056000C8B10EE00021681E05E0235C625C6354A4
:100570002254401E491C8142F7DBAB46A81B401E9B
:100580000990002004F80B000B98099AC0F8088025
:10059000C0E9002B7AE711264FF0000857E72DE954
:1005A000F04F88460446D21D22F0070191B0D1E9F0
:1005B0000001CDE90A0102F034FE02460B98C00F9B
:1005C00001D02D2007E02068810701D52B2002E013
:1005D000202101EAC000032A099001D0072A05DB87
:1005E00003464146204600F085F90BE1207880065D
:1005F00001D5E06900E00620B8F1650F814606D01C
:10060000B8F1660F18D0B8F1670F70D131E0002053
:10061000B9F1110F009001DB112301E009F1010391
:100620000AAA01A90CA8FFF7E2FEDDE90C7000267A
:1006300009F10105834647E001204B4600904FF049
:1006400000470AAA01A90CA8FFF7D1FEDDE90DB009
:100650000C995D46002610B909F101000D18B9EB9F
:10066000050003D4C0F1FF3609F10105A5EB09002F
:100670002BE0B9F1010F01DA4FF001090020B9F1C7
:10068000110F0090484601DD112300E003460AAA3D
:1006900001A90CA8FFF7ABFEDDE90C704D46002662
:1006A0008346207800070AD4AB4500DA5D4601A8EE
:1006B000012D04DD411911F8011C302907D04F45E7
:1006C00002DA17F1040F04DA012082460FE06D1EF2
:1006D000EEE7002F02DCED1B3E4403E0781CA8424D
:1006E00000DD7D1CB81B00F1010A4FF000472078A7
:1006F000000703D4AA4501DB4FF0FF3A0021B7F110
:10070000004F0DF143088DF8431024D002202B2315
:10071000002F01DA7F422D230A21021EA0F10100E1
:1007200000DC5FB197FBF1FC97FBF1F201FB1C7C55
:1007300017460CF1300C08F801CDEEE7A8F10100E6
:1007400003702188090501D5452100E06521A0F14C
:10075000010800F8011C09980FA9A1EB0807FF1D6B
:1007600000B10120411901EBEA70A1693844081A6F
:10077000401EA0612078C00602D42046AFF300805E
:10078000099828B1D4E901219047206A401C2062D1
:100790002078C00622D52046AFF300801EE0002E50
:1007A00004DBB34502DD01A8805D00E03020D4E920
:1007B00001219047206A401C2062761CAAF10100AA
:1007C0005FEA000A0AD100F033F8C0680168405CB3
:1007D000D4E901219047206A401C2062281EA5F11F
:1007E0000105DCDC07E0D4E9012118F8010B904792
:1007F000206A401C2062381EA7F10107F3DC204666
:10080000AFF30080032011B041E60000074B70B544
:100810000D467B4400F05BF80446284600F01CF9C6
:1008200010B14FF0FF3070BD204670BD372B000077
:10083000004870476002002030B5B0F10A024FEA6C
:10084000900E71F100034EEA817EB0EB0E0061EB79
:1008500091014FEA101E4EEA017E10EB0E0041EBB3
:1008600011114FEA102E4EEA016E10EB0E0041EB13
:1008700011214FEA104E4EEA014E10EB0E0041EBF3
:100880001141401841F100014FEAD00040EA4170A7
:100890004FEAD10110EB80054FEA810444EA9074DD
:1008A00044EB01046D1944EB0404521BA3414FF0C7
:1008B000000348BF0A3200D530BD401C41F10001A1
:1008C00030BD000001694A1C02610878704700B51C
:1008D0008FB0CDE901310021059105497944CDE979
:1008E000031011466846FFF78DFC0FB000BD0000F5
:1008F000E5FFFFFF2DE9F0411F460446032601688E
:10090000072A01F4006004DB08B116A505E016A56E
:1009100003E008B115A500E015A521F01000206046
:10092000A069C01EA0610FB1401EA0612046AFF3B8
:1009300000804FB1D4E9012138469047206A401C1D
:100940002062C01C206206E0206AFAE7D4E9012197
:1009500015F8010B9047761EF8D22046AFF30080C1
:10096000BDE8F0814E414E006E616E00494E46007A
:10097000696E66002DE9F047814616468AB0354813
:1009800078440DC88DE80D0032487844801C03ACD3
:100990000DC884E80D0041F69B300844372190FBD8
:1009A000F1F290FBF1F5A5F1800501FB12041B3C6F
:1009B00002D56442012000E00020DFF898A08046C4
:1009C0000027FA44AAF1BE0A0EE0E0070AD0324638
:1009D000684607EB470101230AEB810100F043FB66
:1009E0008DE8070064107F1C002CEED1194F7F4466
:1009F000AE3F19E0E80715D007EB04100DF1180A17
:100A000090E80E008AE80E00C068F04201D1981903
:100A100008903246012306A903A800F024FB03AB8B
:100A200083E807006D10641C002DE3D14FF0010333
:100A300032466946B8F1000F03A802D000F0FEFA72
:100A400001E000F010FBC9E90001C9F808200AB074
:100A5000BDE8F08778340000007B00F0800070472C
:100A600000487047400200207546FFF7F9FFAE4688
:100A700005006946534620F00700854618B020B5AA
:100A8000FFF7A0FBBDE820404FF000064FF0000745
:100A90004FF000084FF0000B21F00701AC46ACE826
:100AA000C009ACE8C009ACE8C009ACE8C0098D4693
:100AB000704710B50446AFF300802046BDE81040F3
:100AC000FFF76BBB4FF0013C50F8042B51F8043B8F
:100AD0009A4221D1A2EB0C03934313EACC1317D112
:100AE00050F8042B51F8043B9A4215D1A2EB0C03A9
:100AF000934313EACC130BD150F8042B51F8043B69
:100B00009A4209D1A2EB0C03934313EACC13DBD036
:100B10004FF00000704700BFD01A01BAB1FA81F15E
:100B200001F0180122FA01F0CB40C1F12001DBB243
:100B3000C0B2C01A2CFA01F3D11A914311EAC311C1
:100B4000E6D170475FEA400C08BF91F0000F4FEA12
:100B50008C234FEAC12243EA51514FEA1C5018BF7F
:100B600000F5F0404FEA300018BF41F000415FEA65
:100B70006C5C00F02980BCF1FF3F08BF40F0804072
:100B80007047130C06BF12044FF0100C4FF0000C0E
:100B9000130E04BF12020CF1080C130F04BF120154
:100BA0000CF1040C930F04BF92000CF1020CD30F54
:100BB00004BF52000CF1010C11464FF00002A0F1ED
:100BC0001F00A0EB0C00704711F0004F08BF7047EA
:100BD00031F000413FF4D5AF0B0C06BF09044FF0D4
:100BE000100C4FF0000C0B0E04BF09020CF1080CA6
:100BF0000B0F04BF09010CF1040C8B0F04BF89001B
:100C00000CF1020CCB0F04BF49000CF1010CCCF12C
:100C10002003A0EB0C0022FA03F302FA0CF241EAE3
:100C2000030100F10100704720F07F4C80EA0300CF
:100C300023F07F47ACEB070303F57C5300F0004043
:100C400003F1FF032DE980494FEA154B09B44FEA40
:100C5000144325EA0B4E24EA03480FF2042606EB60
:100C6000132749083E785FEA320203FB0667C7F59F
:100C7000000707FB06F64FEA54374FEAD64606F15F
:100C8000020607FB066CCCF1005C4FEA1C472CEA1D
:100C9000074C07FB06F40CFB06F504EB15464FEA80
:100CA000961634BF00204FF000404FEAD13706FBC4
:100CB00007FC4FEA1C4C0CFB0BF7D21B03FB0CF799
:100CC00061EB07010CFB0EF7B0EB074072EB17422C
:100CD0000CFB08F734BFA2EB0742B2EB074261EB13
:100CE00017414FEA0C444FEA910706FB07FC4FEA15
:100CF0001C4C0CFB0BF7B0EBC74072EB573203FBFD
:100D00000CF734BFA2EBC742B2EBC74261EB5731DD
:100D10000CFB0EF7B0EBC70072EB57720CFB08F739
:100D200034BFA2EBC702B2EBC70261EB5771039F5E
:100D30004FEA816141EA921104EBCC044FEAD137CA
:100D40004FEA826206FB07FC42EA90124FEA80609B
:100D50004FEA1C4C0CFB0BF7D21B03FB0CF761EBAF
:100D600007010CFB0EF7B0EB074072EB17420CFBD0
:100D700008F734BFA2EB0742B2EB074261EB174121
:100D80004FEA8C554FEA910704EB9C2406FB07FCC5
:100D90004FEA1C4C0CFB0BF7B0EBC74072EB573221
:100DA00003FB0CF734BFA2EBC742B2EBC74261EBC7
:100DB00057310CFB0EF7B0EBC70072EB57720CFB10
:100DC00008F734BFA2EBC702B2EBC70261EB577161
:100DD00015EB4C254FEA816141EA92114FEA82629C
:100DE0004FEAD13742EA901206FB07FC44F10004B7
:100DF0004FEA80604FEA1C4C0CFB0BF7D21B03FB45
:100E00000CF761EB07010CFB0EF7B0EB074072EB40
:100E100017420CFB08F734BFA2EB0742B2EB0742C4
:100E200061EB174115EB1C154FEA813141EA924104
:100E30004FEA823242EA90424FEA80304FEA0C7623
:100E400044F1000448EA03434EEA0B484FF0000E19
:100E5000B2EB080C71EB030724BF624639464EEB38
:100E60000E0E4FF0000B0018524149414BEB0B0B9B
:100E7000B2EB080C71EB03077BF1000B24BF624659
:100E800039464EEB0E0E4FF0000B0018524149410F
:100E90004BEB0B0BB2EB080C71EB03077BF1000B78
:100EA00024BF624639464EEB0E0E51EA020718BFC8
:100EB00046F0010616EB0E7655F1000254F10001E2
:100EC00003D5BDE88901BDE80088BDE88901BDE81A
:100ED0000048B619524141EB0101A3F101037047EB
:100EE00080807F7E7D7C7B7A797877767675747367
:100EF000727171706F6E6E6D6C6C6B6A6A69686826
:100F0000676666656464636362616160605F5F5EBB
:100F10005E5D5D5C5C5B5B5A5A5959585857575631
:100F20005655555554545353525252515150505096
:100F30004F4F4F4E4E4D4D4D4C4C4C4B4B4B4A4AE8
:100F40004A4949494848484747474746464645452C
:100F50004544444444434343434242424241414165
:100F6000002B9C4630D477002BD01CB54FEA3707B6
:100F700003B44FF010004FF01001BAF1000F06D08B
:100F8000BCF1000FDCBF40F0080040F008014FF05A
:100F900000000FBCBDE810400BF1010BBBF1010FCD
:100FA00008BF5FEA170722BF12F1010211F1010128
:100FB0004FF0004143F1000300F0004043EA00001D
:100FC0007047F9D35708D0E746EA064613F1400FB9
:100FD0004FEA16461FDD13F1200FDFBF16430A4606
:100FE000002120335B42BED0C3F1200746EA06460B
:100FF00002FA07F74FEA164646EA0706C3F120074A
:1010000022FA03F201FA07F721FA03F14FF0000385
:1010100042EA0702A7E746EA020646EA06464FEA20
:10102000164646EA0106BCBF46EA0646360C4FF0B5
:1010300000034FF000024FF0000194E72DE9804CCF
:101040009A46934670B491E8380007C831EA400CDC
:1010500048BF34EA430C03D5FFF7E6FDFFF780FFF6
:10106000F0BCBDE8008C2DE9804C9A46934670B4E4
:1010700091E8380007C810F0804F08BF13F0804F88
:1010800003D100F005F8FFF76BFFF0BCBDE8008C62
:1010900020F07F4780EA030023F07F4C07EB0C032E
:1010A000A3F57C5300F00040A3F1FE0392F0000F83
:1010B00000F0B38095F0000F00F077802DE9014932
:1010C0004FEA11404FEA144621EA004800FB06FCB3
:1010D00024EA064708FB06F607FB08F800FB07F7BB
:1010E00018EB06484CEB164C4FEA124B18EB07482E
:1010F0004FEA15464CEB174022EA0B4E0BFB06FC61
:1011000025EA06470EFB06F607FB0EFE0BFB07F76C
:101110001EEB064E4CEB164C4FF000061EEB074E36
:101120004CEB174B18EB0B0840F1000018EB0E0BC3
:1011300058EB000840F100008F1A4FF000013CBF4F
:10114000C943661B14BFB5EB040C00213CBFC94367
:10115000F61B4FEA17444EEA8E0E27EA04454FEA83
:101160001C4704FB07622CEA074C05FB07F70CFB46
:1011700005F604FB0CFC16EB074642EB174216EB98
:101180000C4642EB1C421BEB060658EB02024141A7
:1011900046EA9E0601D5BDE80189B619524141EBE8
:1011A0000101A3F10103BDE801894FEA14454FEAAB
:1011B000114724EA054621EA074C05FB07F406FB24
:1011C00007F70CFB06F105FB0CFC11EB074144EBA8
:1011D00017444FEA124711EB0C4144EB1C4422EA3E
:1011E000074C05FB07F206FB07F70CFB06F605FBB1
:1011F0000CFC16EB074642EB174216EB0C4642EB93
:101200001C456A1854F1000148BF7047B619524195
:1012100041EB0101A3F10103704795F0000F37D0B6
:101220004FEA11424FEA144721EA024624EA074CEA
:1012300002FB07F106FB07F70CFB06F402FB0CFCB4
:1012400014EB074441EB17414FEA154714EB0C44EC
:1012500041EB1C4125EA074C02FB07F506FB07F7AB
:101260000CFB06F602FB0CFC16EB074645EB17459C
:1012700016EB0C4645EB1C42121951F1000148BF18
:101280007047B619524141EB0101A3F101037047C8
:101290004FEA14454FEA114724EA054621EA074C74
:1012A00005FB07F106FB07F70CFB06F24FF0000603
:1012B00005FB0CFC12EB074241EB174112EB0C4211
:1012C00051EB1C4148BF7047921841EB0101A3F15B
:1012D00001037047FEE70000014800F091B80000EC
:1012E000FC000020014800F08BB80000B80000208E
:1012F00030B590F840500124AC40C56B6C60046878
:1013000063604368102B036803D099600068C26073
:1013100030BD9A600068C16030BD704772B6FEE7AC
:1013200010B590F821100022022905D00421816314
:1013300080F82020012010BD01680B6823F00E0307
:101340000B6001680B6823F001030B6090F84030DC
:10135000C46B012101FA03F3636080F8211080F867
:101360002020104610BD000010B590F82110002478
:10137000022903D00421816301243DE001680A6849
:1013800022F00E020A6001680A6822F001020A6077
:101390001A4A0168914201D1012121E0174A143211
:1013A000914201D110211BE0144A2832914201D10F
:1013B000891515E0114A3C32914201D189140FE0A0
:1013C0000E4A5032914202D14FF4803108E00B4A6C
:1013D0006432914202D14FF4801101E04FF08071EC
:1013E000064A083A5160012180F82110002180F856
:1013F0002010416B01B18847204610BD0800024013
:101400002DE9F05FC16B0C6801680B68D0F840C033
:10141000042202FA0CF2494DDFF824A1494E4A4F4A
:10142000DFF828B1DFF828E122422CD05A072AD56C
:101430000A68920603D40A6822F004020A6001686E
:10144000A94201D1042219E0514501D1402215E001
:10145000B14202D14FF4806210E0B94202D14FF4A0
:1014600080420BE0594502D14FF4802206E07145DD
:1014700002D14FF4800201E04FF080622F49083919
:101480004A60C16A3BE04FF0020808FA0CF818EA1B
:10149000040F4FF000094FF0010235D05FEA837866
:1014A00032D50B689B0605D40B6823F00A030B604A
:1014B00080F821200168A94201D1022219E051459A
:1014C00001D1202215E0B14202D14FF4007210E0A8
:1014D000B94202D14FF400520BE0594502D14FF40A
:1014E000003206E0714502D14FF4001201E04FF0E6
:1014F0000072124908394A6080F82090816A0029F8
:101500001AD0BDE8F05F0847082505FA0CF525421A
:1015100012D01B0710D50B6823F00E030B6090F858
:101520004010C36B02FA01F15960826380F82120F8
:1015300080F82090016BE2E7BDE8F09F08000240D0
:101540001C000240300002404400024058000240AB
:101550006C00024030B528B308C81349142219445E
:10156000B1FBF2F18900C163104981630221417727
:101570001A6843F6F0718A43D0E900142143D0E998
:1015800002452C4321430469214344692143846972
:101590002143114319600021416301224277017701
:1015A000084630BD012030BDF8FFFDBF00000240FD
:1015B00070B5044690F82000002501280CD00120C9
:1015C00084F8200094F821600020012E06D084F8D1
:1015D00020000225284670BD022070BD022684F836
:1015E0002160A0632068066826F001060660204698
:1015F000FFF77EFEE06A00282068016802D041F013
:101600000E0106E021F0040101602068016841F04C
:101610000A0101602068016841F001010160D9E719
:101620002DE9F84FDFF8B8910024A9F1040B234607
:101630000F2709F1040AABF1040EC9E00125A5400A
:101640002A40AA427DD1674ED1F804C0ACEB06080F
:10165000B44532D014DCBCF1030F3AD009DCBCF144
:10166000000F2AD0BCF1010F1CD0BCF1020F31D108
:101670001DE0BCF1110F17D0BCF1120F2AD119E0F7
:10168000B8F5881F19D006DCB8F5803F15D0B8F53D
:10169000801F1FD111E0B8F5001F0ED0B8F5041F50
:1016A00018D10AE0CB6815E0CB681B1D12E0CB68AF
:1016B00008330FE0CB680C330CE08B682BB1012BA7
:1016C0004FF0080303D0456104E0042302E0056104
:1016D00000E00023FF2A01D8064601E000F10406DD
:1016E0004FEA840501D9A5F12005D6F8008007FA54
:1016F00005FC28EA0C0803FA05F548EA0508C6F8CF
:1017000000804D68ED0062D5374DAE6946F00106A8
:10171000AE61AD6924F0030605F001050095334D77
:1017200006EB050CDCF80850A607360F07FA06F89A
:1017300025EA0805DFF8B880404503D14FF00008DE
:1017400017E044E0DFF8AC80404502D14FF00108DB
:101750000FE0DFF8A480404502D14FF0020808E016
:10176000DFF89880404502D14FF0030801E04FF0C8
:10177000040808FA06F848EA0508CCF808804D681D
:10178000D9F80060ED024D4601D5164300E09643BE
:101790002E604D68DAF80060AD02554601D516435B
:1017A00000E096432E604D68DBF80060AD035D46B7
:1017B00001D5164300E096432E604D68DEF80060C8
:1017C000ED03754601D5164300E096432E60641C78
:1017D0000D682A46E5407FF431AFBDE8F88F000080
:1017E00008040140000011100010024000000140F8
:1017F00000080140000C01400010014000140140AD
:101800000AB1016170470904FBE7000001488068E4
:10181000704700000000002070B5040025D094F847
:101820003D00002520B984F83C50204600F076FAAF
:10183000242084F83D002068016821F00101016046
:101840002068016841F4004101602068016821F4CA
:101850000041016000F0CCFB4D4A6168914201D823
:101860004C4900E04C49884201D2012070BD4B49EF
:101870002368B0FBF1F15E6826F03F060E435E6020
:101880006368934206D94FF4967359434FF47A73C1
:10189000B1FBF3F12368491C1E6A26F03F06314371
:1018A00019626168914210D84900401EB0FBF1F204
:1018B000521CC2F30B02042A01D2042022E0B0FB26
:1018C000F1F0401CC0F30B001CE0A268F2B301EB86
:1018D000C10303EB0116431EB3FBF6F35B1C43F499
:1018E00080431B0549D092B301EBC10202EB011109
:1018F000401EB0FBF1F0401CC0F30B0040F48040F0
:1019000040F400402168CA694CF6FF739A431043C3
:10191000C861D4E9071001432068026822F0C002C0
:1019200011430160D4E9030101432068826848F251
:10193000FF339A4311438160D4E9050108432168CC
:10194000CA6822F0FF021043C86001E00EE016E012
:101950002068016841F0010101602564202084F8BD
:101960003D00256384F83E50002070BD01EB410628
:10197000431EB3FBF6F35B1CB3E70120C2E701EBA8
:101980004101401EB0FBF1F0401CC0F30B00B7E773
:10199000A086010080841E0000093D0040420F0027
:1019A0002DE9F84F0025DDF82890984617468A461D
:1019B00004460095FFF72AFF064694F83D002028CC
:1019C0007AD11923012286492046009601F068F851
:1019D0000028F5D194F83C0001286DD0012084F84E
:1019E0003C0020680168C90703D1016841F001018A
:1019F00001602068016821F400610160222084F800
:101A00003D00102084F83E0025646762A4F82A8017
:101A1000608D20857348E06233464A465146204631
:101A200000F04EFF00287CD1208DDFF8BC812027FC
:101A300068B1012814D00228206801681ED041F442
:101A4000806101602068416980690090BBE0206886
:101A5000416981690091016841F400710160B2E05F
:101A60002068016821F48061016072B620684169D4
:101A700081690091016841F400710AE041F400615C
:101A8000016072B62068416981690091016821F4A2
:101A90008061016062B696E0032865D801280CD009
:101AA00002284B464FF000024146204600960BD0DC
:101AB00000F0F6FFA8BB0CE090E032464946204615
:101AC00001F094F868BB71E000F0EAFF48BB72B621
:101AD00033E02068016821F48061016072B62068FB
:101AE0000069616A0870606A401C6062208D401E57
:101AF0002085608D401E60853C4846F2A811006834
:101B0000B0FBF1F0C0EBC00000EB80000090401E85
:101B1000009007D020684069C04340070DD5009869
:101B2000F5E727E044F8305F6773A573206940F05C
:101B30002000206162B625731CE02068016841F432
:101B40000071016020680069616A0870606A401C69
:101B50006062218D491E2185618D491E618562B6B5
:101B600021680969017025E032464946204601F0A6
:101B70003DF810B10120BDE8F88F20680069616A66
:101B80000870606A401C6062208D401E81B2218511
:101B9000608D401E608520684269D243520712D48E
:101BA000032903D1016821F4806101602068006984
:101BB000616A0870606A401C6062208D401E20854A
:101BC000608D401E6085208D00287FF465AF84F80D
:101BD0003D7084F83E5084F83C50CCE70220CAE7C0
:101BE000020010000000FFFF040001000C000020B4
:101BF0002DE9F84F1F4690468A460446DDF82890A6
:101C0000FFF704FE054694F83D0020287FD11923F4
:101C1000012240492046009500F042FF002876D17D
:101C200094F83C00012872D0012084F83C00206820
:101C30000168C90703D1016841F001010160206812
:101C4000016821F400610160212084F83D0010202A
:101C500084F83E0000262664C4F824806785608DE1
:101C600020852D48E0622B464A465146204600F02A
:101C70009DFE90B9206841698069009036E02A464F
:101C80004946204600F0EAFF50B1206C042804D1F8
:101C90002068016841F4007101600120BDE8F88FFF
:101CA000606A216800780861606A401C6062618D2A
:101CB000491E6185218D491E89B22185226853699B
:101CC000DB435B070BD451B100781061606A401CA4
:101CD0006062608D401E6085208D401E20852A46F2
:101CE0004946204600F0B0FE0028CED1208D0028C5
:101CF000C5D154F83D0B016841F40071016020200A
:101D000004F81E09E67766770020C7E7FFE70220A0
:101D1000C4E70000020010000000FFFF10B586B00D
:101D200000210091019102910391006813498842BA
:101D300022D1134CA06940F00800A061A069694657
:101D400000F0080004904FF44070009012200190C1
:101D5000032003900B48FFF763FC0B48416841F0F8
:101D6000E06141F002014160E06940F40010E0618F
:101D7000E06900F40010049006B010BD005400406B
:101D800000100240000C0140000001400248816840
:101D9000027811448160704700000020074810B5A8
:101DA000016841F010010160032000F079F8002083
:101DB00000F006F800F024F8002010BD00200240DA
:101DC00070B50D4D04464FF47A712878B1FBF0F0F0
:101DD0000A490968B1FBF0F000F0E0FA48B9102CAC
:101DE00007D200222146501E00F03AF800206C6015
:101DF00070BD012070BD0000000000200C0000201C
:101E00000E4808B5816941F001018161816901F0E5
:101E100001010091C16941F08051C161C06900F0C8
:101E200080500090052000F03BF80548416821F003
:101E3000E06141F00071416008BD00000010024007
:101E400000000140002809DB00F01F020121914041
:101E50004009800000F1E020C0F800117047000048
:101E6000F0B40E4B1B680C46C3F30223C3F1070505
:101E7000042D00D90425191D072901D2002300E0F3
:101E8000DB1E012606FA05F1491E214099409E40BD
:101E9000761E16403143F0BC01F0D7B90CED00E0DE
:101EA000064900F0070208684FF6FF03184040EAB1
:101EB0000220034A10430860704700000CED00E068
:101EC0000000FA052DE9F0470F46050061D0434EAA
:101ED000306800F00700B84209D2306820F00700EF
:101EE00038433060306800F00700B84251D12868AC
:101EF0003B4C810712D5400703D5606840F4E06091
:101F000060602878000703D5606840F46050606026
:101F10006068A96820F0F000084360602878C00776
:101F200028D06868012810D02168022810D08907BD
:101F300000292EDA616821F0030101436160FFF797
:101F400065FC804641F288390DE021688903EFE79E
:101F50008901EDE7FFF75AFCA0EB0801494502D9DA
:101F60000320BDE8F0876068696800F00C00B0EB02
:101F7000810FEFD1306800F00700B8420BD930680C
:101F800020F0070038433060306800F00700B842A6
:101F900001D00120E5E72878400705D56068E968A9
:101FA00020F4E060084360602878000706D5606888
:101FB000296920F4605040EAC100606000F038F800
:101FC0006168084AC1F30311515CC84006490860C2
:101FD00006480068FFF7F4FE0020C2E70020024038
:101FE00000100240683D00080C00002004000020A2
:101FF0000448054900684968044AC1F30221515C5C
:10200000C84070470C00002000100240783D0008D6
:102010000448054900684968044AC1F3C221515C7B
:10202000C84070470C00002000100240783D0008B6
:102030000E4A51680E4801F00C03042B11D0082BF6
:102040000FD10C48C1F38343C903C05C0AD5516862
:10205000084AC1F34041921E515C054A5043B0FB0F
:10206000F1F07047044948437047000000100240F7
:1020700000127A00583D000800093D002DE9F84F94
:10208000040070D02078C04DC00749D06868C0F304
:102090008100012807D06868C0F38100022809D1B7
:1020A0006868C00306D52868800339D560680028B1
:1020B000E7D035E06068B0F5803F0BD010B1B0F5E7
:1020C000A02F11D0286820F480302860286820F4E0
:1020D000802002E0286840F480302860606890B179
:1020E000FFF794FB06460AE0286840F48020286049
:1020F000F0E700BFFFF78AFB801B642873D82868CD
:102100008003F7D50CE0FFF781FB064605E000BF32
:10211000FFF77CFB801B6428F0D828688003F7D485
:1021200020789A4E80074FF001094FF0000839D50A
:10213000686810F00C0F07D06868C0F381000228AF
:1021400009D16868C00306D42868800714D52069BF
:10215000012808D110E02069B0B1C6F80090FFF75F
:1021600055FB074605E00AE1FFF750FBC01B0228BC
:10217000C4D828688007F7D52868616920F0F8007E
:1021800040EAC10028600DE0C6F80080FFF73EFB82
:10219000074604E0FFF73AFBC01B022823D8286853
:1021A0008007F7D4207800072CD57948A169D9B1E8
:1021B000C0F80090FFF72AFB074604E0FFF726FB74
:1021C000C01B02280FD8686A8007F7D571484FF402
:1021D000FA510068B0FBF1F0009000BF0098411E7A
:1021E0000091FAD20EE080E0C0F80080FFF70EFB0D
:1021F000074604E0FFF70AFBC01B022875D8686A8F
:102200008007F7D42078400760D5E8690027C00030
:1022100008D4E86940F08050E861E869012700F0DF
:10222000805000905C480168C90513D4016883465A
:1022300041F480710160FFF7E9FA824606E000BFD1
:10224000FFF7E4FAA0EB0A0064284ED8DBF80000A0
:10225000C005F5D5E06801280AD008B1052813D0DB
:10226000286A20F001002862286A20F0040002E0B9
:10227000286A40F001002862E06841F2883B98B18A
:10228000FFF7C4FA82460BE0286A40F00400286297
:10229000EEE700BFFFF7BAFAA0EB0A0159455AD89A
:1022A000286A8007F6D50CE0FFF7B0FA824605E011
:1022B000FFF7ACFAA0EB0A0159454CD8286A800711
:1022C000F6D41FB1E86920F08050E861E06988B376
:1022D0006968C1F38101022944D00228C6F86080F0
:1022E00004D0FFF793FA044638E034E0FFF78EFAA3
:1022F000074604E0FFF78AFAC01B02282BD828689B
:102300008001F7D4206AB0F5803F05D16868A168E4
:1023100020F4003008436860D4E908010843696884
:1023200021F4741108436860C6F86090FFF76EFAF4
:10233000044606E025E000BFFFF768FA001B02280C
:1023400009D828688001F7D51BE000BFFFF75EFAC7
:10235000001B022802D90320BDE8F88F28688001FD
:10236000F4D40EE00128F7D06868226A00F48031C6
:10237000914204D1616A00F47010884201D00120BA
:10238000EAE70020E8E700000010024000004242B7
:10239000800442420C0000200070004010B5401E36
:1023A000B0F1807F01D3012010BD4FF0E0246061C7
:1023B0000F21601700F049FF0020A0610720206175
:1023C000002010BD38B5044690F84200202801D006
:1023D000022038BD51B14AB1012020630020606362
:1023E000204600F0CFFE216B012901D0012038BD2D
:1023F00021680A684968009121680C3151E8002F72
:1024000042F0100241E80023002BF5D138BD000056
:1024100010B500680A4A904210D10A4609490A4894
:1024200000F0F8F94FF4807206490748FFF7CAFF39
:1024300006480068016821F00401016010BD000039
:10244000003801404001002070000020B80000204A
:1024500070470000F8B5016804460868CA684B690F
:1024600010F00F0F4FF0000559D003F0010602F4F1
:102470009077374365D0C10705D0D10503D5616C8E
:1024800041F001016164410705D5D90703D0616CB2
:1024900041F002016164810705D5D90703D0616C61
:1024A00041F004016164010707D502F020013143C6
:1024B00003D0616C41F008016164616C00293AD07D
:1024C000800604D5900602D5204600F09DFD2068C8
:1024D0004069616CC0F38010090700D460B32046E6
:1024E00000F05DFD20684069400621D52068143069
:1024F00050E8001F21F0400140E80012002AF5D109
:10250000E06BA8B16D494163E06BFEF72DFF002839
:1025100011D0E06B416B01B0BDE8F0400847830685
:102520000FD593060DD52046BDE8F84000F06CBDF0
:102530002046FFF78DFFF8BD2046FFF789FF656451
:10254000F8BD266B2023012E7CD1C6067AD5D6068F
:1025500078D508684868009048694FF00206400640
:1025600040D5E16B086840680004000CE8D0A28DFB
:102570008242E5D9E085886920282DD020680C307A
:1025800050E8001F21F4807140E80012002AF5D1C4
:102590002068143050E8001F21F0010140E80012CB
:1025A000002AF5D12068143050E8001F21F04001C6
:1025B00040E80012002AF5D184F8423025632068F3
:1025C0000C3050E8001F21F0100140E80012002AF2
:1025D000F5D1E06BFEF7A4FE6663A08DE18D401A95
:1025E00081B22AE0A08DE18D401A81B2E08D0028F1
:1025F000A6D00029A4D022680C3252E8000F20F4A3
:10260000907042E80007002FF5D12068143050E8A0
:10261000002F22F0010240E80027002FF5D184F8B6
:102620004230256320680C3050E8002F22F0100261
:1026300040E80023002BF5D166632046FFF7E8FE53
:10264000F8BDFFE705062BD5150629D594F84100FE
:102650002128F5D1A068B0F5805F01D12069B0B123
:10266000206A411C2162216800784860E08C401E8D
:102670000004000CE084E3D12068C16821F08001EF
:10268000C1602068C16841F04001C160D8E7206A9C
:102690000088C0F308004860206A801C2062E5E7DB
:1026A0004006CDD55006CBD5CA68204622F0400260
:1026B000CA6084F8413000F0E9F8C1E7552E0008FF
:1026C00070B5040004D094F84100002510B106E074
:1026D000012070BD84F84050204600F023F82420EB
:1026E00084F841002068C16821F40051C16020468F
:1026F00000F0ECFC2068016921F490410161206840
:10270000416921F02A0141612068C16841F400510A
:10271000C1606564202084F8410084F8420065634C
:10272000002070BDF0B585B00024064600940194E9
:10273000029403940068304988425AD12F48816935
:1027400041F480418161816901F480410491816992
:1027500041F0080181618069294D00F00800049072
:1027600040200090022001900320039069462846F3
:10277000FEF756FF8027CDE900746946284602948B
:10278000FEF74EFF1F48416841F0E06141F004014F
:1027900041601E4D1C48C5E90004C5E902472C6193
:1027A000B8016C61C5E906402846FEF7D3FE08B1C2
:1027B000FEF7B4FDF5636E62144D134844351438CA
:1027C00001C5102091C5114845F8104944306C618D
:1027D000AC61EC61FEF7BEFE08B1FEF79FFDB5638C
:1027E0000322114625206E62FFF73AFB2520FFF7F2
:1027F00029FB05B0F0BD0000003801400010024088
:10280000000C01400000014058000240B8000020C8
:102810007047704770B5044690F84100202801D0F9
:10282000022070BD49B342B32162A284E284002039
:102830006064212384F84130A56B114BAB62A56B1A
:10284000104BEB62A56B104B2B63A36B5863256891
:1028500013462A1DA06BFEF7ABFE21686FF0400007
:1028600008602068143050E8001F41F0800140E803
:102870000012002AF5D1002070BD012070BD0000BB
:10288000532F0008952F0008652E000870477047E9
:10289000FEE701684A69D24352050FD46FF48062A3
:1028A0004A61002140F8301F20224273817302697F
:1028B00042F004020261017301207047002070475A
:1028C0002DE9F84F0446C06A1E4693460D4621681E
:1028D0000A6842F480620A60082807D0012805D0FF
:1028E00010F5803F02D0206B112804D120680168C8
:1028F00041F4807101604FF001195B4600224946A6
:102900002046009600F0CCF84FF4007840B12068E3
:102910000068C00501D5C4F840800320BDE8F88FE9
:102920002069DFF884A0B0F5804F0FD00620216821
:1029300000EAD51747F0F000086133465A460AF11D
:102940000601204600F0F4F858BB03E0E8B240F07E
:1029500001001CE02168E8B2086133465A4651463E
:10296000204600F0E5F8E0B92068416981690091EE
:10297000016841F4807101605B46002249462046AF
:10298000009600F08DF80028C1D147F0F1002168D1
:10299000086133465A465146204600F0C9F80028DF
:1029A000BCD00120BAE7000002000100F8B50446DF
:1029B000C06A1E460D461746082807D0012805D0D4
:1029C00010F5803F02D0206B122804D120680168E6
:1029D00041F480710160134600224FF0011120463E
:1029E000009600F05DF840B120680068C00502D58F
:1029F0004FF4007020640320F8BD2069B0F5804FCB
:102A00000ED00620216800EAD51040F0F0000861E1
:102A100033463A460B49204600F08AF878B902E07E
:102A200005F0FE0000E0E8B2216808610549334680
:102A30003A46891F204600F07BF80028DCD00120B0
:102A4000F8BD00000800010070B516460D460446AA
:102A50001EE02046FFF71DFF08B1012070BD681C75
:102A600016D0FEF7D3FE801BA84200D885B9206897
:102A70004069C04340070BD5002044F8300F2021A7
:102A80006173A073216941F0200121612073E4E7A3
:102A900020684069C0434007DBD4002070BD0000BF
:102AA0002DE9F047984617460D460446C1F3074600
:102AB000DDF820902AE000BFB8F1FF3F26D0FEF7F6
:102AC000A5FEA0EB0901414502D8B8F1000F1DD1C8
:102AD0002068012E16D0806925EA00000004000C51
:102AE00012D00020B84211D1002044F8300F20212C
:102AF0006173A073216941F02001216120730120DD
:102B0000BDE8F0874069E7E70120EBE72068012E88
:102B10000AD0806925EA00000004000C06D00020DD
:102B2000B842C9D00020EBE74069F3E70120F7E79E
:102B30002DE9F047984616460D4604464FF0000929
:102B40004FF0200AC1F3074723E020684069C043E3
:102B5000400515D42068016841F4007101602168C6
:102B60006FF480604861C4F8309084F83DA084F828
:102B70003E90216C41F00401216484F83C9021E0F6
:102B8000701C06D0FEF742FEA0EB0800B04203D84E
:102B900016B1012F1FD021E02068012F15D08069C8
:102BA00025EA00000004000C18D000BF44F8309F54
:102BB00084F80DA084F80E90216941F02001216174
:102BC00084F80C900120BDE8F087406925EA0000F8
:102BD0000004000CEAD12068406901E020688069A7
:102BE00025EA00000004000CAFD1ECE72DE9F0412C
:102BF000002590460E460446202728E04069C04341
:102C0000C0060CD454F8301B6FF01000486144F833
:102C100010596777A577206A2062257714E0FEF7C0
:102C2000F5FDA0EB0800B04200D886B920684069E5
:102C3000C04340060BD544F8305F6773A573206925
:102C400040F02000206125730120BDE8F08120685C
:102C50004169C9434906D1D40020F6E770B516464C
:102C60000D4604461EE02046FFF713FE08B1012082
:102C700070BD681C16D0FEF7C9FD801BA84200D8A5
:102C800085B920684069C04300060BD5002044F890
:102C9000300F20216173A073216941F0200121616F
:102CA0002073E4E720684069C0430006DBD40020BD
:102CB00070BD00000D4808B5416941F00101416156
:102CC0004069012200F00100009002210E20FFF770
:102CD000C7F80E20FFF7B6F8012202210F20FFF7F8
:102CE000BFF8BDE808400F20FFF7ACB80010024065
:102CF00070B586B000241C4800940194029403949B
:102D0000816941F010018161816901F01001049134
:102D1000816941F020018161816901F02001049104
:102D2000816941F004018161816901F0040104912C
:102D3000816941F00801816180690C4E00F0080052
:102D40004FF400550490002229463046FEF758FD06
:102D500001200095CDE90104022003906946304628
:102D6000FEF75EFC06B070BD00100240001001408E
:102D70000D4810B50B4901600C49416000214FF42A
:102D800080428160C0E9031241618161C1610162D9
:102D9000FEF742FD002803D0BDE81040FEF7BEBAA2
:102DA00010BD0000005400401C000020801A0600E6
:102DB0000C4810B50A4901604FF4E131416000212F
:102DC00081600C22C160C0E904128161C161FFF71A
:102DD00077FC002803D0BDE81040FEF79FBA10BD75
:102DE0000038014070000020FEE7FEE770477047A2
:102DF000FEF7CCBF30B58FB028216846FDF772FAD8
:102E000014210AA8FDF76EFA01210804CDE900108B
:102E10000024029402250491CDE907504FF4E010FC
:102E200009906846FFF72AF908B172B6FEE70F204D
:102E3000CDE90A054FF48060CDE90C4002210AA8D3
:102E40000E94FFF73FF8002801D072B6FEE70FB0EE
:102E500030BD704710B5406A0021C185C184FFF7BD
:102E6000F7FA10BD70B5446A2068406994F84110C3
:102E7000C0F3C0100025212904D118B1E5842046F3
:102E800000F0B4F82068406994F84210C0F3801054
:102E9000222904D118B1E585204600F080F8606C45
:102EA00040F0100060642046FFF7D2FA70BD10B504
:102EB0000146406A096809684FF0000289062ED46D
:102EC000C28501680C3151E8003F23F4807341E86A
:102ED0000034002CF5D10168143151E8003F23F093
:102EE000010341E80034002CF5D10168143151E8A8
:102EF000003F23F0400341E80034002CF5D12021AD
:102F000080F84210016B012909D101680C3151E8A8
:102F1000003F23F0100341E80034002CF5D1426358
:102F2000016B012902D0FFF773FC10BD818DFFF703
:102F30006FFA10BD10B5406A01214163016B012990
:102F400002D0FFF766FC10BD818D4908FFF760FADB
:102F500010BD10B50146406A09680968890616D493
:102F60000021C1840168143151E8002F22F0800251
:102F700041E80023002BF5D101680C3151E8002F06
:102F800042F0400241E80023002BF5D110BDFFF7CD
:102F90007DFC10BD10B5406AFFF779FC10BD0168DB
:102FA0000C3151E8002F22F4907241E80023002BED
:102FB000F5D10168143151E8002F22F0010241E8F7
:102FC0000023002BF5D1016B012909D101680C31D7
:102FD00051E8002F22F0100241E80023002BF5D128
:102FE000202180F8421000210163704701680C31F4
:102FF00051E8002F22F0C00241E80023002BF5D158
:10300000202180F84110704708B590F8421022291D
:1030100001D0022008BD82684FF480539A4201D14A
:10302000016921B1816A9A421BD04AB10AE0026863
:10303000816A5268C2F308020A80816A891C08E02A
:10304000026972B10268526802F07F020A70816AF6
:10305000491C8162C18D491E0904090CC18503D038
:103060001BE002685268F1E70168CA6822F020029A
:10307000CA600168CA6822F48072CA6001684A693D
:1030800022F001024A61202180F8421000214163B0
:10309000026B012A03D0FFF7BBFB002008BD0163D0
:1030A00001680C3151E8002F22F0100241E80023A2
:1030B000002BF5D101680A68D20602D50A68496872
:1030C0000091818DFFF7A4F9E7E7000070B5044691
:1030D00000680169E26821F44051114301612169EE
:1030E000A0680843616908432168CA6841F20C631B
:1030F0009A430243CA6020684169A26921F4407181
:10310000114341611E492068884202D1FEF780FFC9
:1031100001E0FEF76DFF00EBC00101EB00126068FB
:1031200064218000B2FBF0F3B3FBF1F36FF01806FB
:103130007343B2FBF0F5B2FBF0F605EB83053223E7
:1031400003EB0515B5FBF1F5B6FBF1F605F0F0055F
:1031500005EB0615B2FBF0F6B2FBF0F0B0FBF1F0B8
:103160006FF01802504306EB800003EB0010B0FB39
:10317000F1F0216800F00F002844886070BD000065
:103180000038014038B5816204468285002013462C
:103190006064222284F84220E56B1B4AAA62E56B38
:1031A0001A4AEA62E56B1A4A2A63E26B50630A46DE
:1031B0002168E06B091DFEF7FBF920680168406893
:1031C0000090206948B120680C3050E8001F41F49D
:1031D000807140E80012002AF5D12068143050E8D0
:1031E000001F41F0010140E80012002AF5D12068DB
:1031F000143050E8001F41F0400140E80012002A5E
:10320000F5D1002038BD0000AF2E0008352F000892
:10321000652E00080148FFF71DB90000700000206E
:10322000FEE7490050EAC12018BF04204A0D18BF2C
:1032300040F0010040F2FF72B2EB515F08BF40F076
:103240000200012808BF052070470907090E002861
:1032500004DB00F1E02080F80014704700F00F005C
:1032600000F1E02080F8141D704770472DE9F0410F
:1032700000F042F800F02AFC1A4C0546216800F0E4
:1032800083FC4FF400070646B84201DA86F000409E
:10329000154988420DDB606800F084FB134ABE428A
:1032A00001DB134B00E0134B00F0ECF800F0B8F832
:1032B00060606FF00B012846256000F00EFD00F005
:1032C00071FB0A4A0B4B00F085F906460D46606813
:1032D00000F068FB32462B4600F0D4F8BDE8F04120
:1032E00000F09EB814000020CDCC4C45EA2E44548A
:1032F000FB2119C0FB2119403EB5002001900B2095
:103300000C2400908DF808406C2102AA0123074884
:10331000FEF76EFC01AA02236D2104480094FEF71B
:103320003FFBBDF8040040BA3EBD00001C00002079
:1033300010B5044C00206060FFF7DEFF00F0C6FB14
:10334000206010BD140000207047000004490A6886
:103350005206FCD5024AC1B2121D1160704700002E
:103360000038014010B54FF4807205490548FFF759
:1033700029F805480068016821F00401016010BDCA
:103380004001002070000020B800002008B5FEF7C2
:1033900005FDFFF72FFDFFF7ABFCFFF78BFCFFF7F9
:1033A00007FDFFF7E5FCFFF7CFFFFFF7DBFFFFF7B8
:1033B000BFFF00BFFFF7A0FF0446FFF757FF00F075
:1033C000F1FA02460B4602A00094FCF70FFFF1E76A
:1033D000E5A49AE59C88E580BC203D202566202058
:1033E0002020E58E9FE5A78BE580BC203D2025644D
:1033F0000D0A000010B500290AD00878002807D06F
:1034000005487844FDF75EFB002801D0002010BD80
:103410000248784410BD0000320A00002A0A000069
:1034200021F00042A2F16052B2F5801F01F000438A
:1034300028BFD2F17F6C0BD95FEA001C43EAC202BD
:1034400042EB507018BF704728BF20F00100704752
:10345000B2F5801FBCBF184670474FEA410C1CF5FF
:10346000001F02D2084600F08ABB70B500F05CF97C
:1034700000000089FFF7F6BF4FF00040A0F5800084
:103480007047000010B591EA030F48BF83F0004376
:1034900000F1A681841A71EB030C05D2121943EBDB
:1034A0000C03001B61EB0C01DFF824E14FEA11541F
:1034B000A4EB135C1EEA430F18BF9EEA445F73D06F
:1034C00023EA0E03DCF1200E21EA045143F48013B9
:1034D00032D322FA0CFE10EB0E0023FA0CFE41EB65
:1034E0000E01CCF1200E03FA0EFE10EB0E0051F18E
:1034F0000001B1F5801FCCF1200E32D201EB045156
:1035000012FA0EF2BDE8104058BF7047401C38BF99
:103510005FEA420218BF7047002814BF20F0010084
:1035200041F100014FEA410313F5001F38BF704716
:10353000A1F1C04100F046B9012A43EB0302ACF10E
:10354000200CDCF11F0E32BF4FF0000E23FA0CF3FB
:1035500010EB030041EB0451B4EB115FD0D0A1EBB1
:10356000045101F5801149085FEA300001EB045174
:103570000ED350F1000038BF12FA0EFE08D1BDE89C
:103580001040C9E7401C38BF5FEA4202CAD1C3E716
:10359000BDE810404FEA410313F5001F38BF7047E4
:1035A000A1F1C04100F00EB99EEA445F08D011EAD3
:1035B0005E0FBDE8104004BF01F0004100207047DD
:1035C000BDE8104070B500F0AFF800BF64FBBE3E30
:1035D0000000E0FFDFF848C170B51CEA111E1EBFF5
:1035E0001CEA13159EEA0C0F95EA0C0F00F06F8091
:1035F00081EA030423EA4C134EEAD47E21EA4C11FB
:1036000041F4801143F48013AE44A1FB024CA0FBB3
:103610000365AEF17F7E361955EB0C05A1FB034C1B
:103620004CF10003A0FB021C16EB0C06654153F1A4
:103630000003094218BF46F0010613F4007F0BD1C6
:103640004FEA03314FEA0530340341EA155140EAAD
:1036500016506FF003020AE04FEAC3214FEAC5207B
:10366000F40241EA555140EA56506FF0020202EB73
:103670002E4201EB025585EACE710AD05FEA440C76
:1036800018BF24F0004450F1000041F1000120EA8D
:10369000D47040F2FE7C624500D270BDA84214BFD7
:1036A0004FF080444FF04044002E08BF0024BEF18C
:1036B000806FA8BFA1F1C041BDE8704080F2828058
:1036C0004FF0000001F1C04101F0004170479EEA57
:1036D0000C0F0CEA131518BF95EA0C0F06D04FF02B
:1036E000000081EA030E0EF0004170BD00F01CF8EE
:1036F0008900013E00F007B800F009B84FEA430C1A
:103700005FEA5C5C08D081EA030100F05BB84FEA35
:10371000410C5FEA5C5CF6D14FF000000149704754
:103720000000FF070000F87F0EF1020E2EF0030EDE
:103730005EF8046B364205D4012A43EB030515F508
:10374000001F12D8012841EB010C1CF5001F0CD8FA
:103750000ED14FEAD17C15F5001F0CEB4C0C0CF18F
:10376000020C08BF4CEBD37C04E04FF0080C01E0E6
:103770004FEAD37C0CEB4C0526FA05F606F007065B
:10378000B6F1040C06D20EEB860CBDE870404CF08E
:10379000010C6047DFE80CF0090B02024FF000411A
:1037A0004FF00000A1F5002170BD19461046012818
:1037B00051EB010418BFD4F5001484BF002001F0C0
:1037C000004170BD0808A0F500114FEA31017047B3
:1037D00010B591EA030F48BF83F000433FF55AAE9E
:1037E000841A71EB030C07D212198CF0004C43EBD6
:1037F0000C03001B61EB0C01DFF8A4E14FEA11544C
:10380000A4EB135C1EEA430F18BF9EEA445F00F06E
:10381000B08023EA6E03524221EA0451C3EB6E03E7
:1038200038BF5B1EDCF1200E25D322FA0CFE10EB14
:103830000E0043FA0CFE41EB0E01CCF1200E03FA10
:103840000EFE10EB0E0051F10001CCF1200E29D438
:1038500012FA0EF201EB0451BDE8104058BF704758
:10386000401C1CBFB2F1004F704700280CBF491C20
:1038700020F00100704712EB020E43EB030218BF69
:103880004FF0010E4EEA4202ACF1200CDCF11E0EAC
:1038900054D943FA0CFE10EB0E0051F1FF31CCF17C
:1038A0001E0ED5D50EF1010E12FA0EFE404141EB6F
:1038B000010101EB445C5FEA5C5C10D910EBDE7047
:1038C00001EB045138BFBEF1004FBDE8104018BFF6
:1038D000704700280CBF491C20F00100704730D20F
:1038E0004FEAD42C11F5001124F400641BD0B1FA76
:1038F00081F20B3AA41AA41ED2F12003914030FAAF
:1039000003F31943904001EBCC71002C01EB0451FF
:10391000BDE81040A8BF704701F1C0414FF0000062
:1039200001F000417047B0FA80F310FA03F100D1C2
:1039300010BDE41A173C4805C90AE4E701EB04513D
:1039400010BD491001EB0451BDE810404FEA3000B2
:1039500002E04FF0000170474A0008BF0042F8D073
:10396000B2F5001F28BF704701F000414FF0000082
:1039700070479EEA445F07D011EA5E0FBDE8104031
:1039800004BF002100207047BDE8104070B5FFF76C
:10399000CBFE00BF40DFF63E83F00041104670478B
:1039A0000000E0FF43004FEAD30C4FEA3C0C4340D9
:1039B0001FBF40070CF1605113F0FE4F70471CF021
:1039C000006F03D100200CF0004170470CF0004361
:1039D00043EA507010B540EACC0000F08AF800BF0E
:1039E000000000924FEA0001FFF7ECBE4FF00041EB
:1039F0004FF00000A1F500217047000090EA010F90
:103A000048BF81F0004100F1C680421A3CBF801AD5
:103A100089184FEAD0524FF07F4C1CEA410FA2EBBD
:103A2000D15318BF9CEA026F00F03B804FF0004C6E
:103A30004CEA00204CEA012121FA03FC10EB0C0CAB
:103A40001ED202F1FF325FEA1C2040EBC25038BFA9
:103A500070471CF07F0F4FEA400C18BFBCF17F4F3E
:103A600038BF7047C3F12003994008BF20F0010020
:103A7000BCF17F4F38BF7047A0F1C04000F07FB865
:103A80004FEA3C00000A40EBC25028BF1CF0FF0F79
:103A90004FEA400CE6D018BFBCF17F4F38BF7047EB
:103AA000EAE79CEA026F05D010EA5C0F08BF00F05D
:103AB0000040704710B500F01CF800BF64FBBE3E2C
:103AC000014800F0D8B800BF0000C07FB0FA80F312
:103AD00010FA03F2C3F19D030AD0D90501EB1220BD
:103AE000530638BF704700F1010008BF20F0010005
:103AF00070470EF1020E2EF0030E5EF8044B2442C6
:103B000004D44FEA4102B2F17F4F11D84FEA40038B
:103B1000B3F17F4F0CD80ED14FEAD07CB2F17F4F7A
:103B20000CEB4C0C0CF1020C08BF4CEBD17C04E00C
:103B30004FF0080C01E04FEAD17C0CEB4C0324FA67
:103B400003F404F00704B4F1040C06D20EEB840C69
:103B5000BDE810404CF0010C6047DFE80CF00708AE
:103B600002024FF00040A0F5800010BD0846420060
:103B700018BFD2F1807288BF00F0004010BDFF2155
:103B800041EAD050C005704790EA010F48BF81F06C
:103B900000413FF53AAF421A04D882F00042A0EB50
:103BA000020011444FEAD0524FF07F4C1CEA410F03
:103BB000A2EBD15318BF9CEA026F4AD04FF0004CE1
:103BC0004CEA00204CEA012121FA03FCB0EB0C0C7A
:103BD0000FD412F0FE0F36D05FEA4C001DD5001254
:103BE00040EBC25038BF70471CF03F0F18BF704702
:103BF0000BE0A2F101025FEA1C2040EBC25038BF8B
:103C000070471CF07F0F18BF7047C3F12003994025
:103C100014BF401E20F00100704780084FEA1223B5
:103C200008BF7047B0FA80FCA2EB0C02CCF1280C64
:103C300060FA0CF093EA122F04BF00EBC2507047F9
:103C40004FEAC3707047130A5FEADC1008BF704781
:103C5000F6E79CEA026F04D010EA5C0F08BF002070
:103C6000704710B5FFF745FF40DFF63E81F000409A
:103C70007047FCF794BC0CF00F03092B08BF082019
:103C800000F051800A2B0BD0082B18BF704708BFDB
:103C90001CF0400F0AD04FF000004FF000017047B9
:103CA0001CF0400F18BF4FF0004070471CF0100F81
:103CB00008D020F0704300F07F4242EAD3014FEA7F
:103CC0004370704700F0604021F07F4242EA0002FA
:103CD00001F07F4040EA727070474FF0FF0212EA35
:103CE000D0521CBF92F0FF038B42C2BFD14200EB07
:103CF000C1507047002A0AD0002B0BD0002900F0D9
:103D00000040A4BF40F0FE4040F40000704700F0C7
:103D10000040704743024FF00B0C18BF4CF0806C12
:103D20007FF4CEAE70471CF4801F11D01CF4E02F3E
:103D300003D06FEACC31490070474FF04050EFF3A9
:103D4000008222F0704242EA000282F3008870474B
:103D50004FF000007047010202030405060708093E
:103D60000A0B0C0D0E0F10100000000000000000E8
:103D70000102030406070809000000000102030411
:103D800002400000000000A000000000054000000C
:103D9000000000C8000000000C4000000000409C33
:103DA00000000000194000000020BCBE0000000020
:103DB00034400000BFC91B8E00000004B540000065
:103DC000504BCFD06607E2CF010000006C410000ED
:103DD0003E8251AADFEEA73401000000D942000064
:103DE000DCB5A0E23A301F97FFFFFFFFB4450000AB
:103DF000FD25A0C8E9A3C14FFFFFFFFFFF3F000063
:103E00000000008000000000FF3F00000000008074
:103E100000000000503E0008000000201C000000D0
:103E2000280100086C3E00081C00002084080000E7
:103E3000440100081C00000043000000F8FFFFFFE1
:103E40000C0000000E0000000F0000002E0000001B
:103E500001000000100000000000000000127A00C5
:0C3E600000000000000000000000000056
:04000005080000ED02
:00000001FF
