:020000040800F2
:10000000F80800208901000843230008011D0008AA
:10001000412300084103000869290008000000008E
:10002000000000000000000000000000472300085E
:10003000870300080000000045230008492300084A
:10004000A3010008A3010008A3010008A301000800
:10005000A3010008A3010008A3010008A3010008F0
:10006000A3010008A3010008A3010008A3010008E0
:10007000A3010008A301000845030008510300087C
:10008000A3010008A3010008A3010008A3010008C0
:10009000A3010008A3010008A3010008A3010008B0
:1000A000A3010008A3010008A3010008A3010008A0
:1000B000A3010008A3010008A3010008A301000890
:1000C000A3010008A3010008A3010008A301000880
:1000D000A30100085D290008A3010008A30100088E
:1000E000A3010008A3010008A301000800F002F822
:1000F00000F03AF80AA090E8000C82448344AAF188
:100100000107DA4501D100F02FF8AFF2090EBAE885
:100110000F0013F0010F18BFFB1A43F0010318473B
:100120003849000058490000103A24BF78C878C107
:10013000FAD8520724BF30C830C144BF04680C60ED
:10014000704700000023002400250026103A28BF35
:1001500078C1FBD8520728BF30C148BF0B60704739
:100160001FB51FBD10B510BD00F0A8F81146FFF770
:10017000F7FF03F005F800F0DAF803B4FFF7F2FF39
:1001800003BC02F027FD00000948804709480047EA
:10019000FEE7FEE7FEE7FEE7FEE7FEE7FEE7FEE737
:1001A000FEE7FEE704480549054A064B7047000094
:1001B000AB230008ED000008F8020020F80800203A
:1001C000F8040020F8040020704700000FB4044930
:1001D00010B503AA029800F03BF810BC5DF814FBC0
:1001E000100000204FF0000200B5134694469646DA
:1001F000203922BFA0E80C50A0E80C50B1F120013A
:10020000BFF4F7AF090728BFA0E80C5048BF0CC0E7
:100210005DF804EB890028BF40F8042B08BF704745
:1002200048BF20F8022B11F0804F18BF00F8012BB7
:100230007047704770477047704710B500F01AF864
:10024000006810BD10B5044600F014F8046010BD3D
:10025000074B70B50D467B4400F015F80446284660
:1002600000F024F810B14FF0FF3070BD204670BD93
:10027000E72E0000004870479802002001694A1CE0
:1002800002610878704700B58FB0CDE901310021D7
:10029000059105497944CDE903101146684600F0FF
:1002A00032F80FB000BD0000E5FFFFFF007B00F05B
:1002B0008000704700487047980200207546FFF79D
:1002C000F9FFAE4605006946534620F00700854613
:1002D00018B020B5FFF766FFBDE820404FF00006DC
:1002E0004FF000074FF000084FF0000B21F007011E
:1002F000AC46ACE8C009ACE8C009ACE8C009ACE861
:10030000C0098D4670472DE9F04106460024D6E924
:100310000170F5688046304603E04146B847641CEA
:100320003046A8470028F8D12046BDE8F08110B536
:100330000446AFF300802046BDE81040FFF71DBF24
:10034000FEE70000014800F091B8000054010020D1
:10035000014800F08BB800001001002030B590F883
:1003600040500124AC40C56B6C6004686360436816
:10037000102B036803D099600068C26030BD9A609A
:100380000068C16030BD704772B6FEE710B590F8E6
:1003900021100022022905D00421816380F8202049
:1003A000012010BD01680B6823F00E030B6001688B
:1003B0000B6823F001030B6090F84030C46B0121FF
:1003C00001FA03F3636080F8211080F820201046C2
:1003D00010BD000010B590F821100024022903D0B0
:1003E0000421816301243DE001680A6822F00E02C5
:1003F0000A6001680A6822F001020A601A4A01686C
:10040000914201D1012121E0174A1432914201D1D8
:1004100010211BE0144A2832914201D1891515E0C0
:10042000114A3C32914201D189140FE00E4A5032F8
:10043000914202D14FF4803108E00B4A643291427C
:1004400002D14FF4801101E04FF08071064A083A62
:100450005160012180F82110002180F82010416BAB
:1004600001B18847204610BD080002402DE9F05F29
:10047000C16B0C6801680B68D0F840C0042202FA16
:100480000CF2494DDFF824A1494E4A4FDFF828B15C
:10049000DFF828E122422CD05A072AD50A689206B2
:1004A00003D40A6822F004020A600168A94201D15B
:1004B000042219E0514501D1402215E0B14202D198
:1004C0004FF4806210E0B94202D14FF480420BE059
:1004D000594502D14FF4802206E0714502D14FF414
:1004E000800201E04FF080622F4908394A60C16AFA
:1004F0003BE04FF0020808FA0CF818EA040F4FF03E
:1005000000094FF0010235D05FEA837832D50B68DD
:100510009B0605D40B6823F00A030B6080F82120AA
:100520000168A94201D1022219E0514501D12022DE
:1005300015E0B14202D14FF4007210E0B94202D18D
:100540004FF400520BE0594502D14FF4003206E05F
:10055000714502D14FF4001201E04FF000721249D0
:1005600008394A6080F82090816A00291AD0BDE8D5
:10057000F05F0847082505FA0CF5254212D01B0745
:1005800010D50B6823F00E030B6090F84010C36B7E
:1005900002FA01F15960826380F8212080F82090EE
:1005A000016BE2E7BDE8F09F080002401C0002403A
:1005B0003000024044000240580002406C000240FB
:1005C00030B528B308C8134914221944B1FBF2F11D
:1005D0008900C16310498163022141771A6843F69B
:1005E000F0718A43D0E900142143D0E902452C433D
:1005F0002143046921434469214384692143114310
:10060000196000214163012242770177084630BD1D
:10061000012030BDF8FFFDBF0000024070B5044668
:1006200090F82000002501280CD0012084F820003B
:1006300094F821600020012E06D084F820000225C5
:10064000284670BD022070BD022684F82160A06398
:100650002068066826F0010606602046FFF77EFE49
:10066000E06A00282068016802D041F00E0106E02F
:1006700021F0040101602068016841F00A01016075
:100680002068016841F001010160D9E770B50446B6
:1006900000F004F90546601C02D0044800780444C8
:1006A00000F0FCF8401BA042FAD370BD000000200F
:1006B0002DE9F84FDFF8B8910024A9F1040B234687
:1006C0000F2709F1040AABF1040EC9E00125A5408A
:1006D0002A40AA427DD1674ED1F804C0ACEB06088F
:1006E000B44532D014DCBCF1030F3AD009DCBCF1C4
:1006F000000F2AD0BCF1010F1CD0BCF1020F31D188
:100700001DE0BCF1110F17D0BCF1120F2AD119E076
:10071000B8F5881F19D006DCB8F5803F15D0B8F5BC
:10072000801F1FD111E0B8F5001F0ED0B8F5041FCF
:1007300018D10AE0CB6815E0CB681B1D12E0CB682E
:1007400008330FE0CB680C330CE08B682BB1012B26
:100750004FF0080303D0456104E0042302E0056183
:1007600000E00023FF2A01D8064601E000F104065C
:100770004FEA840501D9A5F12005D6F8008007FAD3
:1007800005FC28EA0C0803FA05F548EA0508C6F84E
:1007900000804D68ED0062D5374DAE6946F0010628
:1007A000AE61AD6924F0030605F001050095334DF7
:1007B00006EB050CDCF80850A607360F07FA06F81A
:1007C00025EA0805DFF8B880404503D14FF000085E
:1007D00017E044E0DFF8AC80404502D14FF001085B
:1007E0000FE0DFF8A480404502D14FF0020808E096
:1007F000DFF89880404502D14FF0030801E04FF048
:10080000040808FA06F848EA0508CCF808804D689C
:10081000D9F80060ED024D4601D5164300E096433D
:100820002E604D68DAF80060AD02554601D51643DA
:1008300000E096432E604D68DBF80060AD035D4636
:1008400001D5164300E096432E604D68DEF8006047
:10085000ED03754601D5164300E096432E60641CF7
:100860000D682A46E5407FF431AFBDE8F88F0000FF
:100870000804014000001110001002400000014077
:1008800000080140000C014000100140001401402C
:100890000AB1016170470904FBE700000148806864
:1008A000704700000000002070B5040025D094F8C7
:1008B0003D00002520B984F83C50204600F076FA2F
:1008C000242084F83D002068016821F001010160C6
:1008D0002068016841F4004101602068016821F44A
:1008E0000041016000F0CCFB4D4A6168914201D8A3
:1008F0004C4900E04C49884201D2012070BD4B496F
:100900002368B0FBF1F15E6826F03F060E435E609F
:100910006368934206D94FF4967359434FF47A7340
:10092000B1FBF3F12368491C1E6A26F03F063143F0
:1009300019626168914210D84900401EB0FBF1F283
:10094000521CC2F30B02042A01D2042022E0B0FBA5
:10095000F1F0401CC0F30B001CE0A268F2B301EB05
:10096000C10303EB0116431EB3FBF6F35B1C43F418
:1009700080431B0549D092B301EBC10202EB011188
:10098000401EB0FBF1F0401CC0F30B0040F480406F
:1009900040F400402168CA694CF6FF739A43104343
:1009A000C861D4E9071001432068026822F0C00240
:1009B00011430160D4E9030101432068826848F2D1
:1009C000FF339A4311438160D4E90501084321684C
:1009D000CA6822F0FF021043C86001E00EE016E092
:1009E0002068016841F0010101602564202084F83D
:1009F0003D00256384F83E50002070BD01EB4106A8
:100A0000431EB3FBF6F35B1CB3E70120C2E701EB27
:100A10004101401EB0FBF1F0401CC0F30B00B7E7F2
:100A2000A086010080841E0000093D0040420F00A6
:100A30002DE9F84F0025DDF82890984617468A469C
:100A400004460095FFF72AFF064694F83D0020284B
:100A50007AD11923012286492046009601F058FADE
:100A60000028F5D194F83C0001286DD0012084F8CD
:100A70003C0020680168C90703D1016841F0010109
:100A800001602068016821F400610160222084F87F
:100A90003D00102084F83E0025646762A4F82A8097
:100AA000608D20857348E06233464A4651462046B1
:100AB00001F03EF900287CD1208DDFF8BC81202791
:100AC00068B1012814D00228206801681ED041F4C2
:100AD000806101602068416980690090BBE0206806
:100AE000416981690091016841F400710160B2E0DF
:100AF0002068016821F48061016072B62068416954
:100B000081690091016841F400710AE041F40061DB
:100B1000016072B62068416981690091016821F421
:100B20008061016062B696E0032865D801280CD088
:100B300002284B464FF000024146204600960BD05B
:100B400001F0E6F9A8BB0CE090E0324649462046A9
:100B500001F084FA68BB71E001F0DAF948BB72B6C3
:100B600033E02068016821F48061016072B620687A
:100B70000069616A0870606A401C6062208D401ED6
:100B80002085608D401E60853C4846F2A8110068B3
:100B9000B0FBF1F0C0EBC00000EB80000090401E05
:100BA000009007D020684069C04340070DD50098E9
:100BB000F5E727E044F8305F6773A573206940F0DC
:100BC0002000206162B625731CE02068016841F4B2
:100BD0000071016020680069616A0870606A401CE9
:100BE0006062218D491E2185618D491E618562B635
:100BF00021680969017025E032464946204601F026
:100C00002DFA10B10120BDE8F88F20680069616AF3
:100C10000870606A401C6062208D401E81B2218590
:100C2000608D401E608520684269D243520712D40D
:100C3000032903D1016821F4806101602068006903
:100C4000616A0870606A401C6062208D401E2085C9
:100C5000608D401E6085208D00287FF465AF84F88C
:100C60003D7084F83E5084F83C50CCE70220CAE73F
:100C7000020010000000FFFF040001000C00002033
:100C80002DE9F84F1F4690468A460446DDF8289025
:100C9000FFF704FE054694F83D0020287FD1192374
:100CA000012240492046009501F032F9002876D112
:100CB00094F83C00012872D0012084F83C002068A0
:100CC0000168C90703D1016841F001010160206892
:100CD000016821F400610160212084F83D001020AA
:100CE00084F83E0000262664C4F824806785608D61
:100CF00020852D48E0622B464A465146204601F0A9
:100D00008DF890B9206841698069009036E02A46E4
:100D10004946204601F0DAF950B1206C042804D18C
:100D20002068016841F4007101600120BDE8F88F7E
:100D3000606A216800780861606A401C6062618DA9
:100D4000491E6185218D491E89B22185226853691A
:100D5000DB435B070BD451B100781061606A401C23
:100D60006062608D401E6085208D401E20852A4671
:100D70004946204601F0A0F80028CED1208D002859
:100D8000C5D154F83D0B016841F400710160202089
:100D900004F81E09E67766770020C7E7FFE7022020
:100DA000C4E70000020010000000FFFF10B586B08D
:100DB000002100910191029103910068134988423A
:100DC00022D1134CA06940F00800A061A0696946D7
:100DD00000F0080004904FF4407000901220019041
:100DE000032003900B48FFF763FC0B48416841F078
:100DF000E06141F002014160E06940F40010E0610F
:100E0000E06900F40010049006B010BD00540040EA
:100E100000100240000C01400000014002488168BF
:100E2000027811448160704700000020074810B527
:100E3000016841F010010160032000F079F8002002
:100E400000F006F800F024F8002010BD0020024059
:100E500070B50D4D04464FF47A712878B1FBF0F06F
:100E60000A490968B1FBF0F000F0E0FA48B9102C2B
:100E700007D200222146501E00F03AF800206C6094
:100E800070BD012070BD0000000000200C0000209B
:100E90000E4808B5816941F001018161816901F065
:100EA00001010091C16941F08051C161C06900F048
:100EB00080500090052000F03BF80548416821F083
:100EC000E06141F00071416008BD00000010024087
:100ED00000000140002809DB00F01F0201219140C1
:100EE0004009800000F1E020C0F8001170470000C8
:100EF000F0B40E4B1B680C46C3F30223C3F1070585
:100F0000042D00D90425191D072901D2002300E072
:100F1000DB1E012606FA05F1491E214099409E403C
:100F2000761E16403143F0BC01F033BD0CED00E0FD
:100F3000064900F0070208684FF6FF03184040EA30
:100F40000220034A10430860704700000CED00E0E7
:100F50000000FA052DE9F0470F46050061D0434E29
:100F6000306800F00700B84209D2306820F007006E
:100F700038433060306800F00700B84251D128682B
:100F80003B4C810712D5400703D5606840F4E06010
:100F900060602878000703D5606840F460506060A6
:100FA0006068A96820F0F000084360602878C007F6
:100FB00028D06868012810D02168022810D089073D
:100FC00000292EDA616821F0030101436160FFF717
:100FD00065FC804641F288390DE021688903EFE71E
:100FE0008901EDE7FFF75AFCA0EB0801494502D95A
:100FF0000320BDE8F0876068696800F00C00B0EB82
:10100000810FEFD1306800F00700B8420BD930688B
:1010100020F0070038433060306800F00700B84225
:1010200001D00120E5E72878400705D56068E96828
:1010300020F4E060084360602878000706D5606807
:10104000296920F4605040EAC100606000F038F87F
:101050006168084AC1F30311515CC8400649086041
:1010600006480068FFF7F4FE0020C2E700200240B7
:1010700000100240804600080C0000200400002000
:101080000448054900684968044AC1F30221515CDB
:10109000C84070470C000020001002409046000835
:1010A0000448054900684968044AC1F3C221515CFB
:1010B000C84070470C000020001002409046000815
:1010C0000E4A51680E4801F00C03042B11D0082B76
:1010D0000FD10C48C1F38343C903C05C0AD55168E2
:1010E000084AC1F34041921E515C054A5043B0FB8F
:1010F000F1F0704704494843704700000010024077
:1011000000127A007046000800093D002DE9F84FF2
:10111000040070D02078C04DC00749D06868C0F383
:101120008100012807D06868C0F38100022809D136
:101130006868C00306D52868800339D56068002830
:10114000E7D035E06068B0F5803F0BD010B1B0F566
:10115000A02F11D0286820F480302860286820F45F
:10116000802002E0286840F480302860606890B1F8
:10117000FFF794FB06460AE0286840F480202860C8
:10118000F0E700BFFFF78AFB801B642873D828684C
:101190008003F7D50CE0FFF781FB064605E000BFB2
:1011A000FFF77CFB801B6428F0D828688003F7D405
:1011B00020789A4E80074FF001094FF0000839D58A
:1011C000686810F00C0F07D06868C0F3810002282F
:1011D00009D16868C00306D42868800714D520693F
:1011E000012808D110E02069B0B1C6F80090FFF7DF
:1011F00055FB074605E00AE1FFF750FBC01B02283C
:10120000C4D828688007F7D52868616920F0F800FD
:1012100040EAC10028600DE0C6F80080FFF73EFB01
:10122000074604E0FFF73AFBC01B022823D82868D2
:101230008007F7D4207800072CD57948A169D9B167
:10124000C0F80090FFF72AFB074604E0FFF726FBF3
:10125000C01B02280FD8686A8007F7D571484FF481
:10126000FA510068B0FBF1F0009000BF0098411EF9
:101270000091FAD20EE080E0C0F80080FFF70EFB8C
:10128000074604E0FFF70AFBC01B022875D8686A0E
:101290008007F7D42078400760D5E8690027C000B0
:1012A00008D4E86940F08050E861E869012700F05F
:1012B000805000905C480168C90513D401688346DA
:1012C00041F480710160FFF7E9FA824606E000BF51
:1012D000FFF7E4FAA0EB0A0064284ED8DBF8000020
:1012E000C005F5D5E06801280AD008B1052813D05B
:1012F000286A20F001002862286A20F0040002E039
:10130000286A40F001002862E06841F2883B98B109
:10131000FFF7C4FA82460BE0286A40F00400286216
:10132000EEE700BFFFF7BAFAA0EB0A0159455AD819
:10133000286A8007F6D50CE0FFF7B0FA824605E090
:10134000FFF7ACFAA0EB0A0159454CD8286A800790
:10135000F6D41FB1E86920F08050E861E06988B3F5
:101360006968C1F38101022944D00228C6F860806F
:1013700004D0FFF793FA044638E034E0FFF78EFA22
:10138000074604E0FFF78AFAC01B02282BD828681A
:101390008001F7D4206AB0F5803F05D16868A16864
:1013A00020F4003008436860D4E908010843696804
:1013B00021F4741108436860C6F86090FFF76EFA74
:1013C000044606E025E000BFFFF768FA001B02288C
:1013D00009D828688001F7D51BE000BFFFF75EFA47
:1013E000001B022802D90320BDE8F88F286880017D
:1013F000F4D40EE00128F7D06868226A00F4803146
:10140000914204D1616A00F47010884201D0012039
:10141000EAE70020E8E70000001002400000424236
:10142000800442420C0000200070004010B5401EB5
:10143000B0F1807F01D3012010BD4FF0E024606146
:101440000F21601701F0A5FA0020A061072020619C
:10145000002010BD10B590F83C20012A22D00122B6
:1014600080F83C20CA688C6822F4407222434C68A1
:1014700022F4806222430C6822F4006222430C6949
:1014800022F4805222434C6922F400522243C9695B
:10149000002322F480420A4301684A6480F83C3009
:1014A000002010BD022010BD70B590F83C20012A2C
:1014B00026D0012480F83C40022280F83D200368B9
:1014C0005A689D6822F070060A6832435A600D4BD4
:1014D00002689A4208D0B2F1804F05D00A4B9A4276
:1014E00002D00A4B9A4204D1496825F0800319437F
:1014F000916080F83D40002180F83C10084670BDA6
:10150000022070BD002C0140000400400008004093
:1015100010B50446022249B104290ED0082913D07F
:1015200094F84500012816D0012010BD94F842001F
:101530000128F9D184F842200FE094F843000128F3
:10154000F2D184F8432008E094F844000128EBD15C
:1015500084F8442001E084F845200422206800F04B
:101560006EFF2068416C41F4004141640B492068E2
:10157000884208D0B0F1804F05D00949884202D096
:101580000849884204D1816801F00701062903D087
:10159000016841F001010160002010BD002C0140F4
:1015A000000400400008004010B586B00021009102
:1015B00001910291039100681449884223D1144893
:1015C000816941F008018161816901F0080104919C
:1015D000816941F0040181618069022400F0040006
:1015E00004904FF46040CDE9000469460948039433
:1015F000FFF75EF84FF4E060CDE900046946064865
:101600000394FFF755F806B010BD0000002C014010
:1016100000100240000C01400008014070B5044673
:1016200090F83C0000260D4601280FD0012084F8D8
:101630003C006AB1042A1DD0082A2FD00C2A3FD0C2
:101640000126002084F83C00304670BD022070BDA9
:10165000206800F001FF2068816941F00801816184
:101660002068816921F004018161206881692A690B
:10167000114311E0206800F017FF2068816941F4F0
:10168000006181612068816921F480618161206845
:1016900081692A6941EA02218161D2E7206800F06C
:1016A0002FFF2068C16941F00801C1612068C1694C
:1016B00021F00401C1612068C1692A69114311E068
:1016C000206800F049FF2068C16941F40061C161F0
:1016D0002068C16921F48061C1612068C1692A69FB
:1016E00041EA0221C161ACE710B5040003D094F8CF
:1016F0003D0010B107E0012010BD002084F83C003F
:10170000204600F01FF8022084F83D00211D2068CB
:1017100000F04CFE012084F8460084F83E0084F876
:101720003F0084F8400084F8410084F8420084F8C7
:10173000430084F8440084F8450084F83D0000200C
:1017400010BD000008B500680649884208D1064867
:10175000816941F400618161806900F4006000905A
:1017600008BD0000002C01400010024010B50446E6
:10177000022249B104290ED0082913D094F841005F
:10178000012816D0012010BD94F83E000128F9D19F
:1017900084F83E200FE094F83F000128F2D184F84D
:1017A0003F2008E094F840000128EBD184F8402065
:1017B00001E084F841200122206800F033FE0F4947
:1017C0002068884203D1426C42F40042426420689F
:1017D000884208D0B0F1804F05D00949884202D034
:1017E0000849884204D1816801F00701062903D025
:1017F000016841F001010160002010BD002C014092
:10180000000400400008004038B5044690F842004B
:10181000202801D0022038BD51B14AB101202063F7
:1018200000206063204601F051F8216B012901D0AE
:10183000012038BD21680A684968009121680C318F
:1018400051E8002F42F0100241E80023002BF5D1AF
:1018500038BD000010B50C4600680C49884213D111
:101860000BA0FEF7B3FC22461249134800F00AFA17
:101870004FF480720F491048FFF7C6FF0F48006809
:10188000016821F00401016010BD00000038014032
:10189000E286926D6375EFBC9AE4B8B2E58FA3E679
:1018A0008EA5E98081E588B0E695B0E68DAE202072
:1018B0002020000098010020C80000201001002016
:1018C00070470000F8B5016804460868CA684B69AB
:1018D00010F00F0F4FF0000559D003F0010602F48D
:1018E0009077374365D0C10705D0D10503D5616C2A
:1018F00041F001016164410705D5D90703D0616C4E
:1019000041F002016164810705D5D90703D0616CFC
:1019100041F004016164010707D502F02001314361
:1019200003D0616C41F008016164616C00293AD018
:10193000800604D5900602D5204600F009FF2068F5
:101940004069616CC0F38010090700D460B3204681
:1019500000F0C9FE20684069400621D52068143097
:1019600050E8001F21F0400140E80012002AF5D1A4
:10197000E06BA8B16D494163E06BFEF72BFD0028D9
:1019800011D0E06B416B01B0BDE8F0400847830621
:101990000FD593060DD52046BDE8F84000F0D8BE1F
:1019A0002046FFF78DFFF8BD2046FFF789FF6564ED
:1019B000F8BD266B2023012E7CD1C6067AD5D6062B
:1019C00078D508684868009048694FF002064006DC
:1019D00040D5E16B086840680004000CE8D0A28D97
:1019E0008242E5D9E085886920282DD020680C3016
:1019F00050E8001F21F4807140E80012002AF5D160
:101A00002068143050E8001F21F0010140E8001266
:101A1000002AF5D12068143050E8001F21F0400161
:101A200040E80012002AF5D184F84230256320688E
:101A30000C3050E8001F21F0100140E80012002A8D
:101A4000F5D1E06BFEF7A2FC6663A08DE18D401A34
:101A500081B22AE0A08DE18D401A81B2E08D00288C
:101A6000A6D00029A4D022680C3252E8000F20F43E
:101A7000907042E80007002FF5D12068143050E83C
:101A8000002F22F0010240E80027002FF5D184F852
:101A90004230256320680C3050E8002F22F01002FD
:101AA00040E80023002BF5D166632046FFF7D2FE05
:101AB000F8BDFFE705062BD5150629D594F841009A
:101AC0002128F5D1A068B0F5805F01D12069B0B1BF
:101AD000206A411C2162216800784860E08C401E29
:101AE0000004000CE084E3D12068C16821F080018B
:101AF000C1602068C16841F04001C160D8E7206A38
:101B00000088C0F308004860206A801C2062E5E776
:101B10004006CDD55006CBD5CA68204622F04002FB
:101B2000CA6084F8413000F0E9F8C1E79D2500085B
:101B300070B5040004D094F84100002510B106E00F
:101B4000012070BD84F84050204600F023F8242086
:101B500084F841002068C16821F40051C16020462A
:101B600000F058FE2068016921F49041016120686D
:101B7000416921F02A0141612068C16841F40051A6
:101B8000C1606564202084F8410084F842006563E8
:101B9000002070BDF0B585B0002406460094019485
:101BA000029403940068304988425AD12F488169D1
:101BB00041F480418161816901F48041049181692E
:101BC00041F0080181618069294D00F0080004900E
:101BD000402000900220019003200390694628468F
:101BE000FEF766FD8027CDE9007469462846029419
:101BF000FEF75EFD1F48416841F0E06141F00401DD
:101C000041601E4D1C48C5E90004C5E902472C612E
:101C1000B8016C61C5E906402846FEF7D1FC08B161
:101C2000FEF7B2FBF5636E62144D13484435143869
:101C300001C5102091C5114845F8104944306C6128
:101C4000AC61EC61FEF7BCFC08B1FEF79DFBB5632F
:101C50000322114625206E62FFF74AF92520FFF77F
:101C600039F905B0F0BD0000003801400010024015
:101C7000000C01400000014058000240100100200B
:101C80007047704770B5044690F84100202801D095
:101C9000022070BD49B342B32162A284E2840020D5
:101CA0006064212384F84130A56B114BAB62A56BB6
:101CB000104BEB62A56B104B2B63A36B586325682D
:101CC00013462A1DA06BFEF7A9FC21686FF04000A7
:101CD00008602068143050E8001F41F0800140E89F
:101CE0000012002AF5D1002070BD012070BD000057
:101CF0009B260008DD260008AD25000870477047C8
:101D0000FEE701684A69D24352050FD46FF480623E
:101D10004A61002140F8301F20224273817302691A
:101D200042F00402026101730120704700207047F5
:101D30002DE9F84F0446C06A1E4693460D462168B9
:101D40000A6842F480620A60082807D0012805D09A
:101D500010F5803F02D0206B112804D12068016863
:101D600041F4807101604FF001195B460022494641
:101D70002046009600F0CCF84FF4007840B120687F
:101D80000068C00501D5C4F840800320BDE8F88F85
:101D90002069DFF884A0B0F5804F0FD006202168BD
:101DA00000EAD51747F0F000086133465A460AF1B9
:101DB0000601204600F0F4F858BB03E0E8B240F01A
:101DC00001001CE02168E8B2086133465A465146DA
:101DD000204600F0E5F8E0B920684169816900918A
:101DE000016841F4807101605B460022494620464B
:101DF000009600F08DF80028C1D147F0F10021686D
:101E0000086133465A465146204600F0C9F800287A
:101E1000BCD00120BAE7000002000100F8B504467A
:101E2000C06A1E460D461746082807D0012805D06F
:101E300010F5803F02D0206B122804D12068016881
:101E400041F480710160134600224FF001112046D9
:101E5000009600F05DF840B120680068C00502D52A
:101E60004FF4007020640320F8BD2069B0F5804F66
:101E70000ED00620216800EAD51040F0F00008617D
:101E800033463A460B49204600F08AF878B902E01A
:101E900005F0FE0000E0E8B221680861054933461C
:101EA0003A46891F204600F07BF80028DCD001204C
:101EB000F8BD00000800010070B516460D46044646
:101EC0001EE02046FFF71DFF08B1012070BD681C11
:101ED00016D0FEF7E3FC801BA84200D885B9206825
:101EE0004069C04340070BD5002044F8300F202143
:101EF0006173A073216941F0200121612073E4E73F
:101F000020684069C0434007DBD4002070BD00005A
:101F10002DE9F047984617460D460446C1F307469B
:101F2000DDF820902AE000BFB8F1FF3F26D0FEF791
:101F3000B5FCA0EB0901414502D8B8F1000F1DD155
:101F40002068012E16D0806925EA00000004000CEC
:101F500012D00020B84211D1002044F8300F2021C7
:101F60006173A073216941F0200121612073012078
:101F7000BDE8F0874069E7E70120EBE72068012E24
:101F80000AD0806925EA00000004000C06D0002079
:101F9000B842C9D00020EBE74069F3E70120F7E73A
:101FA0002DE9F047984616460D4604464FF00009C5
:101FB0004FF0200AC1F3074723E020684069C0437F
:101FC000400515D42068016841F400710160216862
:101FD0006FF480604861C4F8309084F83DA084F8C4
:101FE0003E90216C41F00401216484F83C9021E092
:101FF000701C06D0FEF752FCA0EB0800B04203D8DC
:1020000016B1012F1FD021E02068012F15D0806963
:1020100025EA00000004000C18D000BF44F8309FEF
:1020200084F80DA084F80E90216941F0200121610F
:1020300084F80C900120BDE8F087406925EA000093
:102040000004000CEAD12068406901E02068806942
:1020500025EA00000004000CAFD1ECE72DE9F041C7
:10206000002590460E460446202728E04069C043DC
:10207000C0060CD454F8301B6FF01000486144F8CF
:1020800010596777A577206A2062257714E0FEF75C
:1020900005FCA0EB0800B04200D886B92068406972
:1020A000C04340060BD544F8305F6773A5732069C1
:1020B00040F02000206125730120BDE8F0812068F8
:1020C0004169C9434906D1D40020F6E770B51646E8
:1020D0000D4604461EE02046FFF713FE08B101201E
:1020E00070BD681C16D0FEF7D9FB801BA84200D833
:1020F00085B920684069C04300060BD5002044F82C
:10210000300F20216173A073216941F0200121610A
:102110002073E4E720684069C0430006DBD4002058
:1021200070BD00000D4808B5416941F001014161F1
:102130004069012200F00100009002210E20FEF70C
:10214000D7FE0E20FEF7C6FE012202210F20FEF769
:10215000CFFEBDE808400F20FEF7BCBE00100240D5
:102160002DE9F04186B0002524480095019502959F
:102170000395816941F010018161816901F01001CD
:102180000491816941F020018161816901F02001A0
:102190000491816941F008018161816901F00801C0
:1021A0000491816941F0040181618069144F00F05C
:1021B00004004FF400540490002221463846FEF7F4
:1021C00067FBDFF840806610002231464046FEF78C
:1021D0005FFB00940124CDE901450225694638469C
:1021E0000395FEF765FACDE9006469464046CDE9FE
:1021F0000245FEF75DFA06B0BDE8F081001002402E
:1022000000100140000C01400D4810B50B49016061
:102210000C49416000214FF480428160C0E9031203
:1022200041618161C1610162FEF73EFB002803D07C
:10223000BDE81040FEF7A8B810BD000000540040F3
:102240002C000020801A060010B592B000240F94D4
:102250001C2168461094FDF7C5FF202107A8FDF753
:10226000C1FF2848264901602321C0E901146321E8
:10227000C0E903148021C0E90541FFF735FA08B130
:10228000FEF782F80F940FA91E481094FFF70CF97F
:1022900008B1FEF779F86020CDE9000402940394B8
:1022A000049405940022694616480694FFF7B6F98F
:1022B00008B1FEF769F8042269461248FFF7AEF943
:1022C00008B1FEF761F8082269460E48FFF7A6F943
:1022D00008B1FEF759F8079408200894CDE90940A1
:1022E0008002CDE90B4007A906480E94FFF7B2F82B
:1022F00008B1FEF749F80348FFF756F912B010BDD0
:10230000002C0140800000200C4810B50A490160F3
:102310004FF4E1314160002181600C22C160C0E9CD
:1023200004128161C161FFF703FC002803D0BDE8FE
:102330001040FEF729B810BD00380140C800002049
:10234000FEE7FEE770477047FEF768BD30B58FB017
:1023500028216846FDF746FF14210AA8FDF742FF31
:1023600001210804CDE90010002402940225049103
:10237000CDE907504FF4E01009906846FEF7C6FE1D
:1023800008B172B6FEE70F20CDE90A054FF4806070
:10239000CDE90C4002210AA80E94FEF7DBFD0028CF
:1023A00001D072B6FEE70FB030BD7047F0B50268DD
:1023B000194B1A4C1A4D4FF08047984205D0B8423D
:1023C00003D0A04201D0A84203D122F070064A688F
:1023D0003243984205D0B84203D0A04201D0A8426F
:1023E00003D122F44074CA6822434C6922F080026F
:1023F000224302608A68C2620A688262984201D1FE
:1024000009690163012141610169C90703D00169BB
:1024100021F001010161F0BD002C014000040040E9
:102420000008004010B501F01F030121046A994023
:102430008C430462016A9A401143016210BD10B5D9
:1024400001F00F030421046A99408C430462016A7D
:102450009A401143016210BD30B5036A026A22F04E
:10246000010202624268846924F073050C682C43FF
:1024700023F002058B682B430A4DA8420BD123F0B1
:102480000805CB6822F440722B434D6923F0040306
:1024900015438A692A434260846149684163036243
:1024A00030BD0000002C014030B5026A036A23F001
:1024B00010030362436884690D6824F4E64444EA27
:1024C00005248D6822F0200242EA05120B4DA84235
:1024D0000ED1CD6822F0800242EA05124D6923F444
:1024E000406343EA85038D6922F0400243EA850395
:1024F0004360846149688163026230BD002C014001
:1025000030B5036A026A22F4807202624268C469CA
:1025100023F4007324F073050C682C438D6843EAA0
:1025200005230C4DA8420ED1CD6823F4006343EA85
:1025300005234D6922F4405242EA05128D6923F4C5
:10254000806342EA05124260C4614968C163036264
:1025500030BD0000002C014030B5046A026A22F44C
:10256000805202624268C3690D6823F4E64343EA7D
:1025700005238D6824F4005444EA0534064DA8422E
:1025800004D14D6922F4804242EA85124260C3615F
:1025900049680164046230BD002C014010B5406AF6
:1025A0000021C185C184FFF78BF910BD70B5446A65
:1025B0002068406994F84110C0F3C010002521291B
:1025C00004D118B1E584204600F0B4F820684069D1
:1025D00094F84210C0F38010222904D118B1E58587
:1025E000204600F080F8606C40F0100060642046E7
:1025F000FFF766F970BD10B50146406A09680968C1
:102600004FF0000289062ED4C28501680C3151E8D2
:10261000003F23F4807341E80034002CF5D10168B9
:10262000143151E8003F23F0010341E80034002C4D
:10263000F5D10168143151E8003F23F0400341E82F
:102640000034002CF5D1202180F84210016B0129C3
:1026500009D101680C3151E8003F23F0100341E833
:102660000034002CF5D14263016B012902D0FFF741
:1026700007FB10BD818DFFF7EDF810BD10B5406A66
:1026800001214163016B012902D0FFF7FAFA10BD65
:10269000818D4908FFF7DEF810BD10B50146406A8C
:1026A00009680968890616D40021C18401681431BB
:1026B00051E8002F22F0800241E80023002BF5D1E1
:1026C00001680C3151E8002F42F0400241E800233C
:1026D000002BF5D110BDFFF711FB10BD10B5406AFE
:1026E000FFF70DFB10BD01680C3151E8002F22F4FB
:1026F000907241E80023002BF5D10168143151E8B4
:10270000002F22F0010241E80023002BF5D1016BDC
:10271000012909D101680C3151E8002F22F0100283
:1027200041E80023002BF5D1202180F84210002140
:102730000163704701680C3151E8002F22F0C0029C
:1027400041E80023002BF5D1202180F8411070478B
:1027500008B590F84210222901D0022008BD8268F5
:102760004FF480539A4201D1016921B1816A9A42A2
:102770001BD04AB10AE00268816A5268C2F30802BB
:102780000A80816A891C08E0026972B10268526895
:1027900002F07F020A70816A491C8162C18D491E64
:1027A0000904090CC18503D01BE002685268F1E7F7
:1027B0000168CA6822F02002CA600168CA6822F46F
:1027C0008072CA6001684A6922F001024A612021D0
:1027D00080F8421000214163026B012A03D0FFF709
:1027E0004FFA002008BD016301680C3151E8002F49
:1027F00022F0100241E80023002BF5D101680A689D
:10280000D20602D50A6849680091818DFFF722F847
:10281000E7E7000070B5044600680169E26821F44A
:102820004051114301612169A0680843616908436F
:102830002168CA6841F20C639A430243CA60206867
:102840004169A26921F44071114341611E49206828
:10285000884202D1FEF724FC01E0FEF711FC00EBF8
:10286000C00101EB0012606864218000B2FBF0F34C
:10287000B3FBF1F36FF018067343B2FBF0F5B2FB54
:10288000F0F605EB8305322303EB0515B5FBF1F5F7
:10289000B6FBF1F605F0F00505EB0615B2FBF0F618
:1028A000B2FBF0F0B0FBF1F06FF01802504306EB12
:1028B000800003EB0010B0FBF1F0216800F00F0086
:1028C0002844886070BD00000038014038B581623E
:1028D00004468285002013466064222284F8422048
:1028E000E56B1B4AAA62E56B1A4AEA62E56B1A4A73
:1028F0002A63E26B50630A462168E06B091DFDF70D
:102900008DFE2068016840680090206948B1206809
:102910000C3050E8001F41F4807140E80012002A9A
:10292000F5D12068143050E8001F41F0010140E863
:102930000012002AF5D12068143050E8001F41F041
:10294000400140E80012002AF5D1002038BD000007
:10295000F72500087D260008AD2500080148FEF790
:10296000B1BF0000C8000020FEE7490050EAC120C6
:1029700018BF04204A0D18BF40F0010040F2FF725A
:10298000B2EB515F08BF40F00200012808BF0520EC
:1029900070470907090E002804DB00F1E02080F8E9
:1029A0000014704700F00F0000F1E02080F8141DC3
:1029B00070472DE9F0414F1E00EBC7010446D1E9F5
:1029C000000115461E4637F006020DD02A46334652
:1029D00001F030F87F1E04EBC703D3E9002300F0B9
:1029E00097FD37F00602F1D1022F25D0042F13D026
:1029F000062F18BFBDE8F0812A46334601F01AF8C9
:102A0000D4E90A2300F084FD2A46334601F012F887
:102A1000D4E9082300F07CFD2A46334601F00AF889
:102A2000D4E9062300F074FD2A46334601F002F88B
:102A3000D4E9042300F06CFD2A46334600F0FAFF87
:102A4000D4E9022300F064FD2A46334600F0F2FF89
:102A5000D4E90023BDE8F04100F05ABD012201F0A5
:102A60009ABD00F055BD002213461046114600F0F5
:102A70000BBE0000024A0020110701F08CBD0000CF
:102A800001FDFFFF10B500F0C3F8054901F010FC8F
:102A90000449C96801F0D8FCBDE8104000F004B852
:102AA0000000E0401C00002010B501F05FFA4FF07C
:102AB000C042074B00F0FAFA00F0F8FC10F1FF4FAB
:102AC00004D3BDE81040034901F07CBA10BD0000FA
:102AD000FB211940DB0FC9402DE9F0470446304F78
:102AE000DFF8C080304E314901F0E2FB814601F051
:102AF0003DFA2F4B2F4D0246BC4211DA1046B1452C
:102B00004FF0000202D200F003FD01E001F044F9B1
:102B100000F04EFF55F8200001F09EFB41463BE0DF
:102B2000254884420EDA1046B1454FF0000202D229
:102B300000F0EEFC01E001F02FF900F039FFC0F5E4
:102B4000C770E7E71D481E4F844212DA1046B145B0
:102B50004FF0000202D200F0DBFC01E001F01CF9B2
:102B600000F026FF05EB8000A0F58050D0F8C809E2
:102B70000FE01046B1454FF0000202D200F0C8FC51
:102B800001E001F009F900F013FFC0F5477055F8B6
:102B9000200001F061FB3946BDE8F04701F088BB39
:102BA000DB0FC93F17B7D13800008080E65FFD42D8
:102BB0000000E03F98460008DB0F4940E4CB964018
:102BC00017B7D1B80249A1EB600101F071BB000059
:102BD000865A375F7047000010B50A4C0021224624
:102BE000094800F03DFB40F6B830FDF74FFDFFF718
:102BF00049FF06492246C8600021BDE8104008464A
:102C000000F02EBBE4CB9640000040401C000020AA
:102C10002DE9F04100F042F801F036FB1A4C054670
:102C2000216801F011FC4FF400070646B84201DAB2
:102C300086F00040154988420DDB606801F096F986
:102C4000134ABE4201DB134B00E0134B00F060FC63
:102C500000F02CFC60606FF00B012846256001F04D
:102C6000C8FC01F083F90A4A0B4B00F0E3FE06466C
:102C70000D46606801F07AF932462B4600F048FCB8
:102C8000BDE8F04100F012BC14000020CDCC4C4552
:102C9000EA2E4454FB2119C0FB2119403EB5002007
:102CA00001900B200C2400908DF808406C2102AAA2
:102CB00001230748FDF7E4FF01AA02236D21044820
:102CC0000094FDF7B5FEBDF8040040BA3EBD00001B
:102CD0002C00002010B5044C00206060FFF7DEFFE0
:102CE00001F0D2FA206010BD140000202DE9F84F49
:102CF00004460D4621F0004000917349814211DCE9
:102D00007249884201DC06D12CB120462946BDE833
:102D1000F84FFFF7A3BE6E48002DCCBF6D496E493A
:102D2000BDE8F88F6D49814211DD6D498142D8BF00
:102D30004FF0FF366DDD20462946FFF716FE0428CA
:102D400008BFFFF797FE20462946BDE8F88F654982
:102D5000654F25F00045814233DD6449814219DD2C
:102D6000002632464FF080432046294600F0D0FB33
:102D700080468A4601222046294601F00CFC0022AA
:102D80003B4601F009F84246534600F07DFC0446FC
:102D90000D463EE001260022BA463B462046294623
:102DA00000F0B6FB80460F460022534620462946D7
:102DB00000F0F2FF42463B4600F066FC04460D463A
:102DC00027E04B4981421BDDDFF828A102260022C3
:102DD00053462046294600F02DFE00223B4600F0D7
:102DE00097FB80460F46002253462046294600F0B6
:102DF000D3FF42463B4600F047FC04460D4608E040
:102E0000032622462B4600203B4900F03DFC0446A9
:102E10000D4622462B461046194600F00BFE8B4607
:102E2000824602460B4600F005FE0746024633483E
:102E300088460B4606217844FFF7BBFD52465B46A9
:102E400000F0F8FD82462E488B463A46434605215F
:102E50007844FFF7AEFD3A46434600F0EBFD0246EC
:102E60000B46002E504659460CDA00F051FB224624
:102E70002B4600F0DFFD01B022462B46BDE8F04FA7
:102E800000F07EBF00F044FB22462B4600F0D2FD4E
:102E90001C4A7A4402EBC603D3E9002300F07CFF0E
:102EA00022462B4600F078FF174A7A4402EBC6030D
:102EB000D3E9002300F064FF009A002AB8BF81F034
:102EC0000041BDE8F88F0000000010440000F07FD2
:102ED000182D4454FB21F93FFB21F9BF0000DC3FD2
:102EE0000000203E0000F33F0000F03F0000E63FFE
:102EF000008003400000F83F0000F0BFE61B000028
:102F0000A41B0000421B00000A1B00002DE9F04D2D
:102F10009446CCF1000423F000464CEA0404594FD7
:102F200046EAD4749A46884621F00042BC4206D84C
:102F3000454240EA050442EAD474BC4204D9BDE8E3
:102F4000F04D6246FFF78DBDAAF14055A5F17F65B2
:102F500055EA0C040BD0022404EAAA744A4DDFF8A7
:102F60002CE144EAD87452EA000B04D00CE0BDE82E
:102F7000F04DFFF7BBBE002C14BF012CBDE8F08D57
:102F8000022C30D0032C32D056EA0C0B0AD0BE42B1
:102F900020D1BA4209D126F0804622F08042334641
:102FA000114617E000291ADB25E0DFF8E4B0FB4406
:102FB000002C04BFDBE90001BDE8F08D012C02BF4D
:102FC000DBE9000181F00041BDE8F08D022C0AD060
:102FD000032C0CD0BA4212D1B8F1000F0BDA2A48F8
:102FE0002C49BDE8F08D28462B49BDE8F08D2846D8
:102FF0007146BDE8F08D24482849BDE8F08D921B4C
:1030000012153C2AC4BF204F244E10DCBAF1000F29
:10301000BEBF12F13C0F00273E4608DB624600F0BF
:1030200033FB21F00041FFF761FE07460E4694B1E5
:10303000012C08BF86F000460DD0194A194B022C0E
:103040003846314615D000F0A7FE2A46BDE8F04DBF
:10305000114B00F0A1BE002213463846314600F065
:103060006BFC04BF0220FDF7EDF838463146BDE8A1
:10307000F08D00F091FE2A46BDE8F04D064B00F0C1
:103080007FBE00000000F07F182D4454FB2109C0D2
:103090009E1A0000FB21F9BFFB210940FB21F93FEB
:1030A000075C143326A6A13C7047000070B5144697
:1030B0001D460E46002814BF01210021314321F096
:1030C0000041C1F17F6101F1E041C90F16D1002C2F
:1030D00014BF01210021294321F00041C1F17F618A
:1030E00001F1E041C90F09D11449B1EB460F08BF06
:1030F00000281CD0690008BF002C18D0314600F011
:1031000091FD024640F2FF7030EA11500DD0F017E9
:10311000B0EBE17F09D0084665F31E0084460B46FC
:103120002046614600F02CFE0246104670BD01208C
:10313000FDF788F8BDE87040FFF795BC0000E0FFA0
:1031400004490A685206FCD5024AC1B2121D116038
:10315000704700000038014010B54FF480720549F7
:103160000548FEF751FB05480068016821F004019D
:10317000016010BD98010020C8000020100100204F
:10318000FDF754FEFFF7E2F8FEF7EAFFFEF7CAFF8D
:10319000FFF7BAF8FFF738F8FFF756F8FFF784FFA4
:1031A000FFF7DAFFFFF796FD00F01EF800F03AF89F
:1031B000FFF712FD0B4D4FF4005400222146284624
:1031C000FDF766FB4FF07E56FFF75CFC02460021E0
:1031D000304600F045F8012221462846FDF758FB0D
:1031E000F2E700000010014010B500210C48FEF786
:1031F000BDFA04210A48FEF7B9FA08210848FEF78B
:10320000B5FA00210648FEF783F904210448FEF7C9
:103210007FF9BDE8104008210148FEF779B90000A8
:1032200080000020012211030148FDF731BB00009E
:10323000000C014070B515460E4600F0EDFF074C3E
:1032400021684863304600F0E7FF2168886328461C
:1032500000F0E2FF2168C86370BD0000800000201C
:103260002DE9F05F884F90460D46064611F0FF4F5E
:1032700029D03146084601F01BF804462946084685
:1032800001F016F8214600F09DFEFFF79BFC394641
:1032900000F000FF0446284600F068FE07460D4691
:1032A000304600F063FE3A462B46FFF72FFE0646F7
:1032B0000D46404600F05AFE32462B4600F028F9F3
:1032C00000F0F4F808E03946304600F0E3FE04462A
:1032D0006E49404600F076FEFFF7E6FB05466C4877
:1032E0006C49844201DD044602E08C4200D90C4660
:1032F000694E2846314600F0CDFE4FF07E594946D2
:1033000000F060FE00F088FF804600F0BDFF31460F
:1033100000F0CEFF294601F097F8FFF7DDFBDFF85C
:103320007CA1514600F0C4FF214600F0C1FF834656
:10333000404600F06CFB0022594B00F02DFD720757
:10334000584B00F077FB07460E46284600F00EFE6D
:103350003A46334600F020FD00F0A8F8FFF7BCFB2A
:10336000514600F0A5FF214600F0A2FF064659464F
:10337000484601F069F8314601F066F802464FF020
:10338000FF31B8F1070F63D2DFE808F062041325BC
:1033900034455300104601F02CF907463146584693
:1033A00000F010FE394600F00DFE05463846314665
:1033B0000CE0104601F01DF90746594600F002FEE8
:1033C00005463146584600F0FDFD394600F0FAFD4D
:1033D00004463E463FE0104601F00BF905463146F3
:1033E000584600F0EFFD294600F0ECFD0446284663
:1033F00031460CE0104601F0FCF80546594600F055
:10340000E1FD04463146584600F0DCFD294600F057
:10341000D9FD06461FE0104601F0EBF804463146A0
:1034200000F0D0FD05463146584600F0CBFD214660
:10343000EDE7104601F0DDF804463146584600F04D
:10344000C1FD214600F0BEFD054620465946DEE797
:1034500000252C462E461448C068401C00F014FF7E
:103460000746314600F024FF06463846214600F064
:103470001FFF04463846294600F01AFF324621460F
:10348000BDE8F05FFFF7D6BE00004041DB0FC93F4B
:1034900046B6133F46B613BF920A863FD7B3DD3F09
:1034A0000000F03F52C1F03F8000002021F00042B8
:1034B000A2F16052B2F5801F01F0004328BFD2F1A3
:1034C0007F6C0BD95FEA001C43EAC20242EB5070EA
:1034D00018BF704728BF20F001007047B2F5801F69
:1034E000BCBF184670474FEA410C1CF5001F02D2C2
:1034F000084600F0A4BF70B500F046FB000000894C
:10350000FFF7F6BF4FF00040A0F5800070470000C5
:1035100010B591EA030F48BF83F0004300F14484E3
:10352000841A71EB030C05D2121943EB0C03001B38
:1035300061EB0C01DFF824E14FEA1154A4EB135CBA
:103540001EEA430F18BF9EEA445F73D023EA0E03BE
:10355000DCF1200E21EA045143F4801332D322FA25
:103560000CFE10EB0E0023FA0CFE41EB0E01CCF129
:10357000200E03FA0EFE10EB0E0051F10001B1F522
:10358000801FCCF1200E32D201EB045112FA0EF260
:10359000BDE8104058BF7047401C38BF5FEA420288
:1035A00018BF7047002814BF20F0010041F100014E
:1035B0004FEA410313F5001F38BF7047A1F1C04126
:1035C00000F0D8BB012A43EB0302ACF1200CDCF184
:1035D0001F0E32BF4FF0000E23FA0CF310EB030066
:1035E00041EB0451B4EB115FD0D0A1EB045101F5D4
:1035F000801149085FEA300001EB04510ED350F10D
:10360000000038BF12FA0EFE08D1BDE81040C9E72D
:10361000401C38BF5FEA4202CAD1C3E7BDE8104090
:103620004FEA410313F5001F38BF7047A1F1C041B5
:1036300000F0A0BB9EEA445F08D011EA5E0FBDE82F
:10364000104004BF01F0004100207047BDE8104069
:1036500070B500F099FA00BF64FBBE3E0000E0FFC9
:1036600002494FF0000000F064BF00BF0000F87F87
:10367000491058BFC1F140415B1058BFC3F14043EE
:103680008B42EFF3008070472DE9C04130B4DFF882
:10369000A0C23CEA111418BF3CEA131400F0EC80FD
:1036A00081EA03051CEA111444EAD57418BF1CEA28
:1036B000131500F0C780A4EB05044FF0004545EA60
:1036C000C12145EAC32341EA505143EA525304F170
:1036D0007F74994204F500344FEAC0204FEAC222B9
:1036E00008BF904200F09C804FEA13650FF240162D
:1036F000765D4FEA134506FB05F7C7F1807706FBB9
:1037000007F74FEAD737A7FB03687642C8F580383A
:10371000A7FB06CE38BFA8F1010807FB08E64FF06B
:10372000000EA6FB028CE6FB03CEDCF1000CCEF112
:10373000004E38BFAEF1010EA6FB0C584FF000074B
:103740004FF00005E6FB0E87A1FB08C6A0FB07CEE5
:1037500016EB0E0645F10005E1FB076515F1E04E9D
:103760007EBFA4F580345FEA46066D4116F18007FE
:1037700045F100054FEA17274FEA066647EA056755
:10378000A6F1DE46B6F1805F4FEA15251FD938460F
:1037900024F0010C05EBC471BCF1FE6F01EB0C11C0
:1037A00002D8F0BCBDE8008124425CBF01F5801E58
:1037B0009EEAC47F02D4F0BCBDE80081244238D424
:1037C000F0BCA1F1C041BDE8004100F0D3BA4FEA1E
:1037D000D22242EA43524FEAD323A7FB02864FEAA2
:1037E000D02040EA415007FB03661EEA0E0F4FEA65
:1037F000D12105FB026658BFA6EB0056B6EB00567A
:103800004FEA520E4EEAC37E18EB0E0E56EB530EE5
:10381000BDD518EB02085E417F1C55F10005B6E7E7
:103820004FF480154FF000074FF000064FF00008EE
:10383000ADE7F0BC4FF0000001F1C04101F00041E4
:10384000BDE8008111EA0C1F0CEA131500D00CE052
:1038500013EA0C1F00F025804FF00000F0BC81EA55
:10386000030101F00041BDE80081F0BCBDE800416A
:1038700081EA030100F07EBAF0BCBDE8004170B5FA
:1038800000F082F9097EFC3E00F007B881EA0301EE
:103890004FF0000001F00041704781EA030100F0A1
:1038A00069BAF0BCBDE800414FF000002149704703
:1038B000FFFDFBF9F7F5F4F2F0EEEDEBE9E8E6E4F5
:1038C000E3E1E0DEDDDBDAD8D7D5D4D3D1D0CFCD7C
:1038D000CCCBCAC8C7C6C5C4C2C1C0BFBEBDBCBBB5
:1038E000BAB9B8B7B6B5B4B3B2B1B0AFAEADACABB0
:1038F000AAA9A8A8A7A6A5A4A3A3A2A1A09F9F9E8A
:103900009D9C9C9B9A99999897979695959493933B
:10391000929191908F8F8E8E8D8C8C8B8B8A8989D2
:103920008888878786858584848383828281818055
:103930000000FF070000F87F51EA030C17D41CF5C4
:10394000801F58BFBCF5801F00F10680994218BF48
:10395000704708BF9042704707D711F5801F58BFC6
:1039600013F5801F19D499427047894270471CF59E
:10397000801F08D5BCF5801FF7D58B4218BF704754
:1039800008BF824270474FF4001C1CEB410F38BF48
:103990001CEB430F01D28B42704770B500F0F4F876
:1039A000922449004FF000514FF08053FFF760BE62
:1039B0004FEA41034FEA5353A3F58063D3F11E034B
:1039C000C8BFD3F1210C0CDD4FF0004242EAC12206
:1039D00042EA505232FA03FC8CEAE17CACEBE17033
:1039E0007047102BC4BF0020704703F5787CBCF1F2
:1039F000FF3F04D06FF0004282EA2100704770B5AB
:103A000000F0C2F84992248000207047F2E7B0FA33
:103A100080F310FA03F10AD0C3F11D0303F58063AC
:103A20004FEA41504FEA035202EBD12170474FF069
:103A300000007047DFF848C170B51CEA111E1EBFB8
:103A40001CEA13159EEA0C0F95EA0C0F00F06F802C
:103A500081EA030423EA4C134EEAD47E21EA4C1196
:103A600041F4801143F48013AE44A1FB024CA0FB4F
:103A70000365AEF17F7E361955EB0C05A1FB034CB7
:103A80004CF10003A0FB021C16EB0C06654153F140
:103A90000003094218BF46F0010613F4007F0BD162
:103AA0004FEA03314FEA0530340341EA155140EA49
:103AB00016506FF003020AE04FEAC3214FEAC52017
:103AC000F40241EA555140EA56506FF0020202EB0F
:103AD0002E4201EB025585EACE710AD05FEA440C12
:103AE00018BF24F0004450F1000041F1000120EA29
:103AF000D47040F2FE7C624500D270BDA84214BF73
:103B00004FF080444FF04044002E08BF0024BEF127
:103B1000806FA8BFA1F1C041BDE8704080F22A814A
:103B20004FF0000001F1C04101F0004170479EEAF2
:103B30000C0F0CEA131518BF95EA0C0F06D04FF0C6
:103B4000000081EA030E0EF0004170BD00F01CF889
:103B50008900013E00F007B800F009B84FEA430CB5
:103B60005FEA5C5C08D081EA030100F003B94FEA28
:103B7000410C5FEA5C5CF6D14FF0000001497047F0
:103B80000000FF070000F87F0EF1020E2EF0030E7A
:103B90005EF8046B364205D4012A43EB030515F5A4
:103BA000001F12D8012841EB010C1CF5001F0CD896
:103BB0000ED14FEAD17C15F5001F0CEB4C0C0CF12B
:103BC000020C08BF4CEBD37C04E04FF0080C01E082
:103BD0004FEAD37C0CEB4C0526FA05F606F00706F7
:103BE000B6F1040C06D20EEB860CBDE870404CF02A
:103BF000010C6047DFE80CF0090B02024FF00041B6
:103C00004FF00000A1F5002170BD194610460128B3
:103C100051EB010418BFD4F5001484BF002001F05B
:103C2000004170BDDFF844C170B53CEA111418BF03
:103C30003CEA131500F08F8011F1004F1CEA1315B8
:103C40000CEA111468BF45F0050518BF11EA0C1FF6
:103C500000F079802E4621EA4C1123EA4C1341F4FE
:103C6000801143F48013A5F58035AC423DDD801A08
:103C70009941A4F5803609D54042C1F1000134BF15
:103C8000B1F10101B1F1000185F0010511F4F01F5E
:103C900008D011F4801FE8D1400041EB0101A4F5E8
:103CA0008034F6E721F00041B1FA81F6202E04BFFE
:103CB000B0FA80FE0EF12006A6F10B06B6F1200E3A
:103CC000A4EB06440CD2C6F1200E01FA06F120FA4C
:103CD0000EF641EA0601CEF1200600FA06F003E0F6
:103CE00000FA0EF14FF00000BFE750EA410E23D07A
:103CF0004FEA244EBEEB254F0FDB994208BF90429E
:103D000004D00AD3520043EB0303B0E74FEA164650
:103D1000B6EB144F08BF85F00105B4F5803401EB14
:103D2000041181EAC57100DB70BD01F1C0414FF0A3
:103D3000000001F0004170BD4FEA45714FF00000F6
:103D400001F0004170BD1CEA131F09D04FF00000C4
:103D500001F0004170BDFFF717FF00BFEDFFFF3E10
:103D6000BDE870404FF00000014970470000FF07B8
:103D70000000F87F0808A0F500114FEA31017047F4
:103D800091EA030F10B581F000413FF5C9AB83F014
:103D9000004300F009B8000010B591EA030F48BFD6
:103DA00083F000433FF5BCAB841A71EB030C07D2E0
:103DB00012198CF0004C43EB0C03001B61EB0C015F
:103DC000DFF8A4E14FEA1154A4EB135C1EEA430FA1
:103DD00018BF9EEA445F00F0B08023EA6E035242AF
:103DE00021EA0451C3EB6E0338BF5B1EDCF1200EE9
:103DF00025D322FA0CFE10EB0E0043FA0CFE41EB29
:103E00000E01CCF1200E03FA0EFE10EB0E0051F164
:103E10000001CCF1200E29D412FA0EF201EB04516C
:103E2000BDE8104058BF7047401C1CBFB2F1004FA6
:103E3000704700280CBF491C20F00100704712EBAE
:103E4000020E43EB030218BF4FF0010E4EEA42028E
:103E5000ACF1200CDCF11E0E54D943FA0CFE10EB31
:103E60000E0051F1FF31CCF11E0ED5D50EF1010E31
:103E700012FA0EFE404141EB010101EB445C5FEAA6
:103E80005C5C10D910EBDE7001EB045138BFBEF161
:103E9000004FBDE8104018BF704700280CBF491CF8
:103EA00020F00100704730D24FEAD42C11F50011F8
:103EB00024F400641BD0B1FA81F20B3AA41AA41EB8
:103EC000D2F12003914030FA03F31943904001EB03
:103ED000CC71002C01EB0451BDE81040A8BF704725
:103EE00001F1C0414FF0000001F000417047B0FA0D
:103EF00080F310FA03F100D110BDE41A173C480515
:103F0000C90AE4E701EB045110BD491001EB04516B
:103F1000BDE810404FEA300002E04FF0000170476A
:103F20004A0008BF0042F8D0B2F5001F28BF704712
:103F300001F000414FF0000070479EEA445F07D057
:103F400011EA5E0FBDE8104004BF00210020704759
:103F5000BDE8104070B5FFF717FE00BF40DFF63E2A
:103F600083F00041104670470000E0FF43004FEA35
:103F7000D30C4FEA3C0C43401FBF40070CF160518B
:103F800013F0FE4F70471CF0006F03D100200CF0BF
:103F9000004170470CF0004343EA507010B540EA0E
:103FA000CC0000F006FA00BF000000924FEA0001CA
:103FB000FFF7E0BE4FF000414FF00000A1F50021F7
:103FC0007047000090EA010F48BF81F0004100F106
:103FD0004282421A3CBF801A89184FEAD0524FF0F1
:103FE0007F4C1CEA410FA2EBD15318BF9CEA026F31
:103FF00000F03B804FF0004C4CEA00204CEA0121DD
:1040000021FA03FC10EB0C0C1ED202F1FF325FEA26
:104010001C2040EBC25038BF70471CF07F0F4FEAA6
:10402000400C18BFBCF17F4F38BF7047C3F120036D
:10403000994008BF20F00100BCF17F4F38BF7047A6
:10404000A0F1C04000F0FBB94FEA3C00000A40EB91
:10405000C25028BF1CF0FF0F4FEA400CE6D018BF3B
:10406000BCF17F4F38BF7047EAE79CEA026F05D08A
:1040700010EA5C0F08BF00F00040704710B500F078
:1040800098F900BF64FBBE3E014800F052BA00BF81
:104090000000C07F4FF47F0C1CEAD0121EBF1CEA48
:1040A000D11392EA0C0F93EA0C0F00F0858090EA8E
:1040B000010F48BF42F4807240F4000C41F400004C
:1040C0002CF07F4120F07F4000B58142A2EB03023B
:1040D0000FF2081CACEB504EC0F100009EF800E05F
:1040E0004FEA4E0E00FB0EFC38BF49004FEA2C1C75
:1040F00002F5FA020CFB0EF34FEACE1E4FEA112C2A
:104100004FEAC1210EEB635E42EB22420EFB0CFC38
:104110004FEA1C5300FB03114FEA112C4FEA013107
:104120000EFB0CFC4FEADC4C00FB0C11C14228BF1B
:1041300009184CEB03335DF804EB10EB410143EB42
:10414000C250B2F57C0F38BF704729D512F0F00F7E
:104150001CBF00F1C04000F0004070470081828326
:104160008485868788898B8C8D8E8F919293959686
:1041700097999A9C9D9FA0A2A3A5A7A8AAACAEB010
:10418000B2B3B5B7B9BCBEC0C2C5C7C9CCCED1D415
:10419000D7D9DCDFE2E6E9ECF0F3F7FAFE00000045
:1041A0004FEA400C0CF1807CBCF17E4F28BF704779
:1041B000B0F1C04000F043B990EA010F0CEAD1130E
:1041C00048BF42F48072624538BF634507D213F49A
:1041D0007F0F16D080EA010000F00040704710B554
:1041E00000F0E7F8097EFC3E00F005B880EA010027
:1041F00000F00040704780EA010000F0004000F04D
:104200001EB912F47F0F04BF0248704780EA010014
:1042100000F015B90000C07FC10DD1F19E0206DB90
:104220004FEA002343F0004323FA02F070470042B4
:1042300007D54FEA4001B1F1FE4F02D24FF0000026
:10424000704710B500F0B5F84992248000207047FF
:104250006FEA20007047000010F0004148BF404264
:10426000B0FA80F310FA03F2C3F19D030BD051EAC8
:10427000C35101EB1220530638BF704700F1010013
:1042800008BF20F001007047B0FA80F310FA03F283
:10429000C3F19D030AD0D90501EB1220530638BFA4
:1042A000704700F1010008BF20F0010070470000D6
:1042B0004FF47F0C1CEAD0121EBF1CEAD11392EA05
:1042C0000C0F93EA0C0F00F0478090EA010F48BFF3
:1042D00042F480724FF0004C4CEA00204CEA01217D
:1042E00002EB0302A0FB0113A2F50002002918BF94
:1042F00043F001035B0028BF4FEA330342EB224245
:104300005FEA132C4CEBC2502EBFBCEB436FB2F5EF
:104310007C0F70474FEA036CBCF1004F08BF20F0E0
:104320000100B2F57C0F38BF70470BD582F0FF0259
:1043300012F5803FC8BF704700F1C040D8BF00F001
:104340000040704700F5000C5FEA4C0C48BF704716
:10435000B0F1C04000F073B890EA010F0CEAD1133D
:1043600048BF42F48072624538BF634504D280EA98
:10437000010000F00040704710B500F01AF800BFCF
:104380008900013E00F007B800F009B85FEA410C6F
:104390005FEA1C6C08D080EA010000F050B85FEAC8
:1043A000400C5FEA1C6CF6D14FF00040A0F5800095
:1043B00070470EF1020E2EF0030E5EF8044B2442FD
:1043C00004D44FEA4102B2F17F4F11D84FEA4003C3
:1043D000B3F17F4F0CD80ED14FEAD07CB2F17F4FB2
:1043E0000CEB4C0C0CF1020C08BF4CEBD17C04E044
:1043F0004FF0080C01E04FEAD17C0CEB4C0324FA9F
:1044000003F404F00704B4F1040C06D20EEB840CA0
:10441000BDE810404CF0010C6047DFE80CF00708E5
:1044200002024FF00040A0F5800010BD0846420097
:1044300018BFD2F1807288BF00F0004010BDFF218C
:1044400041EAD050C005704790EA010F48BF81F0A3
:1044500000413FF5BEAD421A04D882F00042A0EB05
:10446000020011444FEAD0524FF07F4C1CEA410F3A
:10447000A2EBD15318BF9CEA026F4AD04FF0004C18
:104480004CEA00204CEA012121FA03FCB0EB0C0CB1
:104490000FD412F0FE0F36D05FEA4C001DD500128B
:1044A00040EBC25038BF70471CF03F0F18BF704739
:1044B0000BE0A2F101025FEA1C2040EBC25038BFC2
:1044C00070471CF07F0F18BF7047C3F1200399405D
:1044D00014BF401E20F00100704780084FEA1223ED
:1044E00008BF7047B0FA80FCA2EB0C02CCF1280C9C
:1044F00060FA0CF093EA122F04BF00EBC250704731
:104500004FEAC3707047130A5FEADC1008BF7047B8
:10451000F6E79CEA026F04D010EA5C0F08BF0020A7
:10452000704710B5FFF745FF40DFF63E81F00040D1
:1045300070470CF00F03092B08BF082000F07F80A4
:104540000A2B0BD0082B18BF704708BF1CF0400F78
:104550000AD04FF000004FF0000170471CF0400FF0
:1045600018BF4FF0004070471CF0100F08D020F02B
:10457000704300F07F4242EAD3014FEA4370704734
:1045800000F0604021F07F4242EA000201F07F40EB
:1045900040EA727070474FF0FF0C4CF4E06C1CEA7C
:1045A00011531CBF9CEA030C9445C2BFDA4201EBD5
:1045B00002517047002B0DD0BCF1000F0FD0002A24
:1045C00001F00041A4BF41F0E04141F07F614FF0B4
:1045D0000000704701F000414FF00000704750EAC2
:1045E00001334FF09B0C18BF4CF0806C7FF438A85F
:1045F00070474FF0FF0212EAD0521CBF92F0FF0347
:104600008B42C2BFD14200EBC1507047002A0AD092
:10461000002B0BD0002900F00040A4BF40F0FE406A
:1046200040F40000704700F00040704743024FF034
:104630000B0C18BF4CF0806C7FF426AD70471CF457
:10464000801F11D01CF4E02F03D06FEACC31490059
:1046500070474FF04050EFF3008222F0704242EA80
:10466000000282F3008870474FF00000704701029B
:1046700002030405060708090A0B0C0D0E0F1010A3
:104680000000000000000000010203040607080902
:104690000000000001020304000000004F000000C1
:1046A0009E000000ED0000003C0100008B010000B6
:1046B000D90100002802000077020000C6020000B5
:1046C0001503000063030000B203000000040000B3
:1046D0004F0400009D040000EC0400003A050000B7
:1046E00088050000D60500002406000072060000C0
:1046F000C00600000E0700005B070000A9070000CD
:10470000F60700004308000090080000DD080000E4
:104710002A09000077090000C30900000F0A000001
:104720005C0A0000A80A0000F40A00003F0B000029
:104730008B0B0000D60B0000210C00006C0C00005D
:10474000B70C0000010D00004C0D0000960D00009C
:10475000E00D0000290E0000730E0000BC0E0000EA
:10476000050F00004E0F0000960F0000DF0F000045
:10477000271000006E100000B6100000FD100000B1
:10478000441100008B110000D1110000171200002D
:104790005D120000A2120000E81200002D130000BC
:1047A00071130000B6130000F91300003D1400005F
:1047B00081140000C4140000061500004915000013
:1047C0008B150000CC1500000E1600004F160000DF
:1047D0008F160000CF1600000F1700004F170000C3
:1047E0008E170000CD1700000B18000049180000BC
:1047F00087180000C4180000011900003D190000CE
:1048000079190000B5190000F01900002B1A0000FA
:10481000661A00009F1A0000D91A0000121B00003F
:104820004B1B0000831B0000BB1B0000F21B0000A1
:10483000291C0000601C0000961C0000CB1C00001E
:10484000001D0000351D0000691D00009D1D0000B9
:10485000D01D0000031E0000351E0000671E000072
:10486000981E0000C91E0000FA1E0000291F00004B
:10487000591F0000881F0000B61F0000E41F000041
:10488000112000003E2000006A2000009620000059
:10489000C1200000EC200000162100004021000093
:1048A0006921000092210000BA210000E1210000EE
:1048B000082200002F220000552200007A2200006A
:1048C0009F220000C3220000E72200000A2300000C
:1048D0002D2300004F2300007023000091230000CF
:1048E000B2230000D1230000F12300000F240000B8
:1048F0002D2400004B2400006824000084240000C4
:10490000A0240000BB240000D5240000EF240000F8
:1049100009250000222500003A250000522500004C
:10492000692500007F25000095250000AA250000CC
:10493000BF250000D3250000E6250000F925000072
:104940000B2600001D2600002E2600003E2600003B
:104950004E2600005D2600006C2600007A2600002E
:104960008726000094260000A0260000AB26000049
:10497000B6260000C0260000CA260000D32600008C
:10498000DB260000E3260000EA260000F1260000F6
:10499000F7260000FC260000012700000527000084
:1049A000082700000B2700000D2700000F2700003C
:1049B00010270000102700004FBB610567ACDD3FEA
:1049C000182D4454FB21E93F9BF681D20B73EF3F36
:1049D000182D4454FB21F93FE2652F227F2B7A3CAE
:1049E000075C143326A6813CBDCBF07A8807703C67
:1049F000075C143326A6913CC4EB98999999C9BFDA
:104A0000711623FEC671BCBF6D9A74AFF2B0B3BF0E
:104A10009AFDDE522DDEADBF2F6C6A2C44B4A2BFCE
:104A20000D5555555555D53FFF8300922449C23F3A
:104A30006E204CC5CD45B73F513DD0A0660DB13F6E
:104A4000EB0D76244B7BA93F11DA22E33AAD903F80
:104A50000000000000000000784A0008000000206C
:104A60002C00000028010008A44A00082C000020A7
:104A7000CC08000044010008010000001000000004
:104A80000000000000127A0000000000000000009A
:104A90000000000000000000000000000000000016
:044AA0000000000012
:04000005080000ED02
:00000001FF
