:020000040800F2
:1000000070060020890100086902000861020008EA
:100010006502000843020008D10200080000000049
:100020000000000000000000000000006D02000859
:1000300047020008000000006B0200086F02000881
:10004000A3010008A3010008A3010008A301000800
:10005000A3010008A3010008A3010008A3010008F0
:10006000A3010008A3010008A3010008A3010008E0
:10007000A3010008A3010008A3010008A3010008D0
:10008000A3010008A3010008A3010008A3010008C0
:10009000A3010008A3010008A3010008A3010008B0
:1000A000A3010008A3010008A3010008A3010008A0
:1000B000A3010008A3010008A3010008A301000890
:1000C000A3010008A3010008A3010008A301000880
:1000D000A3010008A3010008A3010008A301000870
:1000E000A3010008A3010008A301000800F002F822
:1000F00000F03AF80AA090E8000C82448344AAF188
:100100000107DA4501D100F02FF8AFF2090EBAE885
:100110000F0013F0010F18BFFB1A43F0010318473B
:10012000B8010000D8010000103A24BF78C878C197
:10013000FAD8520724BF30C830C144BF04680C60ED
:10014000704700000023002400250026103A28BF35
:1001500078C1FBD8520728BF30C148BF0B60704739
:100160001FB51FBD10B510BD00F031F81146FFF7E7
:10017000F7FF00F0AFF800F04FF803B4FFF7F2FF1D
:1001800003BC00F057F800000948804709480047C1
:10019000FEE7FEE7FEE7FEE7FEE7FEE7FEE7FEE737
:1001A000FEE7FEE704480549054A064B7047000094
:1001B00079020008ED0000087000002070060020A1
:1001C000700200207002002070477047704775462B
:1001D00000F02CF8AE4605006946534620F00700B3
:1001E000854618B020B5FFF7DDFFBDE820404FF091
:1001F00000064FF000074FF000084FF0000B21F011
:100200000701AC46ACE8C009ACE8C009ACE8C009DD
:10021000ACE8C0098D46704710B50446AFF30080C6
:100220002046BDE81040FFF7A8BF00000048704717
:100230000C00002001491820ABBEFEE7260002009A
:10024000704700BFFEE7704703480068034909781C
:1002500008440149086070470000002008000020A1
:1002600000BFFEE700BFFEE770477047704710B55C
:10027000FFF7EAFF10BD00001148006840F00100E0
:100280000F490860084640680E4908400C4948601C
:10029000084600680C49084009490860084600689B
:1002A00020F4802008600846406820F4FE00486082
:1002B0004FF41F008860C8030449086070470000BD
:1002C000001002400000FFF8FFFFF6FE08ED00E01E
:1002D00000BFFEE700BFFEE7F802000800000020B4
:1002E0000C00000028010008040300080C00002096
:1002F0006406000044010008000000001000000037
:0403000001000000F8
:04000005080000ED02
:00000001FF
