:020000040800F2
:10000000E008002089010008C31A00089D180008B4
:10001000C11A000885020008312100080000000014
:100020000000000000000000000000000F1B00089E
:10003000CB020008000000000D1B0008111B000887
:10004000A3010008A3010008A3010008A301000800
:10005000A3010008A3010008A3010008A3010008F0
:10006000A3010008A3010008A3010008A3010008E0
:10007000A3010008A30100088902000895020008F6
:10008000A3010008A3010008A3010008A3010008C0
:10009000A3010008A3010008A3010008A3010008B0
:1000A000A3010008A3010008A3010008A3010008A0
:1000B000A3010008A3010008A3010008A301000890
:1000C000A3010008A3010008A3010008A301000880
:1000D000A301000825210008A3010008A3010008CE
:1000E000A3010008A3010008A301000800F002F822
:1000F00000F03AF80AA090E8000C82448344AAF188
:100100000107DA4501D100F02FF8AFF2090EBAE885
:100110000F0013F0010F18BFFB1A43F0010318473B
:10012000F021000010220000103A24BF78C878C1E6
:10013000FAD8520724BF30C830C144BF04680C60ED
:10014000704700000023002400250026103A28BF35
:1001500078C1FBD8520728BF30C148BF0B60704739
:100160001FB51FBD10B510BD00F05AF81146FFF7BE
:10017000F7FF02F037F800F078F803B4FFF7F2FF6A
:1001800003BC01F0E6FF000009488047094800472A
:10019000FEE7FEE7FEE7FEE7FEE7FEE7FEE7FEE737
:1001A000FEE7FEE704480549054A064B7047000094
:1001B000731B0008ED000008E0020020E0080020AA
:1001C000E0040020E004002070474FF0000200B57A
:1001D000134694469646203922BFA0E80C50A0E86A
:1001E0000C50B1F12001BFF4F7AF090728BFA0E818
:1001F0000C5048BF0CC05DF804EB890028BF40F8E4
:10020000042B08BF704748BF20F8022B11F0804F25
:1002100018BF00F8012B7047704770477047704750
:10022000754600F02BF8AE4605006946534620F0AF
:100230000700854618B020B5FFF7B4FFBDE82040A1
:100240004FF000064FF000074FF000084FF0000B92
:1002500021F00701AC46ACE8C009ACE8C009ACE845
:10026000C009ACE8C0098D46704710B50446AFF32D
:1002700000802046BDE81040FFF77FBF0048704770
:100280007C020020FEE70000014800F091B8000069
:1002900038010020014800F08BB80000F400002075
:1002A00030B590F840500124AC40C56B6C600468D8
:1002B00063604368102B036803D099600068C260D4
:1002C00030BD9A600068C16030BD704772B6FEE70D
:1002D00010B590F821100022022905D00421816375
:1002E00080F82020012010BD01680B6823F00E0368
:1002F0000B6001680B6823F001030B6090F840303D
:10030000C46B012101FA03F3636080F8211080F8C7
:100310002020104610BD000010B590F821100024D8
:10032000022903D00421816301243DE001680A68A9
:1003300022F00E020A6001680A6822F001020A60D7
:100340001A4A0168914201D1012121E0174A143271
:10035000914201D110211BE0144A2832914201D16F
:10036000891515E0114A3C32914201D189140FE000
:100370000E4A5032914202D14FF4803108E00B4ACC
:100380006432914202D14FF4801101E04FF080714C
:10039000064A083A5160012180F82110002180F8B6
:1003A0002010416B01B18847204610BD0800024073
:1003B0002DE9F05FC16B0C6801680B68D0F840C094
:1003C000042202FA0CF2494DDFF824A1494E4A4FAB
:1003D000DFF828B1DFF828E122422CD05A072AD5CD
:1003E0000A68920603D40A6822F004020A600168CF
:1003F000A94201D1042219E0514501D1402215E062
:10040000B14202D14FF4806210E0B94202D14FF400
:1004100080420BE0594502D14FF4802206E071453D
:1004200002D14FF4800201E04FF080622F49083979
:100430004A60C16A3BE04FF0020808FA0CF818EA7B
:10044000040F4FF000094FF0010235D05FEA8378C6
:1004500032D50B689B0605D40B6823F00A030B60AA
:1004600080F821200168A94201D1022219E05145FA
:1004700001D1202215E0B14202D14FF4007210E008
:10048000B94202D14FF400520BE0594502D14FF46A
:10049000003206E0714502D14FF4001201E04FF046
:1004A0000072124908394A6080F82090816A002958
:1004B0001AD0BDE8F05F0847082505FA0CF525427B
:1004C00012D01B0710D50B6823F00E030B6090F8B9
:1004D0004010C36B02FA01F15960826380F8212059
:1004E00080F82090016BE2E7BDE8F09F0800024031
:1004F0001C0002403000024044000240580002400C
:100500006C00024030B528B308C8134914221944BE
:10051000B1FBF2F18900C163104981630221417787
:100520001A6843F6F0718A43D0E900142143D0E9F8
:1005300002452C43214304692143446921438469D2
:100540002143114319600021416301224277017761
:10055000084630BD012030BDF8FFFDBF000002405D
:1005600070B5044690F82000002501280CD0012029
:1005700084F8200094F821600020012E06D084F831
:1005800020000225284670BD022070BD022684F896
:100590002160A0632068066826F0010606602046F8
:1005A000FFF77EFEE06A00282068016802D041F073
:1005B0000E0106E021F0040101602068016841F0AD
:1005C0000A0101602068016841F001010160D9E77A
:1005D00070B5044600F004F90546601C02D00448DA
:1005E0000078044400F0FCF8401BA042FAD370BD30
:1005F000000000202DE9F84FDFF8B8910024A9F1A0
:10060000040B23460F2709F1040AABF1040EC9E0DD
:100610000125A5402A40AA427DD1674ED1F804C0E9
:10062000ACEB0608B44532D014DCBCF1030F3AD071
:1006300009DCBCF1000F2AD0BCF1010F1CD0BCF1C9
:10064000020F31D11DE0BCF1110F17D0BCF1120F18
:100650002AD119E0B8F5881F19D006DCB8F5803F1B
:1006600015D0B8F5801F1FD111E0B8F5001F0ED0CE
:10067000B8F5041F18D10AE0CB6815E0CB681B1D44
:1006800012E0CB6808330FE0CB680C330CE08B68CA
:100690002BB1012B4FF0080303D0456104E0042384
:1006A00002E0056100E00023FF2A01D8064601E0D0
:1006B00000F104064FEA840501D9A5F12005D6F81A
:1006C000008007FA05FC28EA0C0803FA05F548EA59
:1006D0000508C6F800804D68ED0062D5374DAE695B
:1006E00046F00106AE61AD6924F0030605F0010590
:1006F0000095334D06EB050CDCF80850A607360FC5
:1007000007FA06F825EA0805DFF8B880404503D166
:100710004FF0000817E044E0DFF8AC80404502D11C
:100720004FF001080FE0DFF8A480404502D14FF000
:10073000020808E0DFF89880404502D14FF0030836
:1007400001E04FF0040808FA06F848EA0508CCF87A
:1007500008804D68D9F80060ED024D4601D516437A
:1007600000E096432E604D68DAF80060AD02554611
:1007700001D5164300E096432E604D68DBF800601B
:10078000AD035D4601D5164300E096432E604D68EB
:10079000DEF80060ED03754601D5164300E0964390
:1007A0002E60641C0D682A46E5407FF431AFBDE839
:1007B000F88F0000080401400000111000100240F2
:1007C0000000014000080140000C01400010014001
:1007D000001401400AB1016170470904FBE7000001
:1007E00001488068704700000000002070B50400D8
:1007F00025D094F83D00002520B984F83C502046CF
:1008000000F0B8F8242084F83D002068016821F049
:10081000010101602068016841F400410160206825
:10082000016821F40041016000F00EFA4D4A616850
:10083000914201D84C4900E04C49884201D2012044
:1008400070BD4B492368B0FBF1F15E6826F03F06AE
:100850000E435E606368934206D94FF49673594322
:100860004FF47A73B1FBF3F12368491C1E6A26F03A
:100870003F06314319626168914210D84900401E19
:10088000B0FBF1F2521CC2F30B02042A01D2042085
:1008900022E0B0FBF1F0401CC0F30B001CE0A268AA
:1008A000F2B301EBC10303EB0116431EB3FBF6F3F6
:1008B0005B1C43F480431B0549D092B301EBC1029A
:1008C00002EB0111401EB0FBF1F0401CC0F30B0025
:1008D00040F4804040F400402168CA694CF6FF7340
:1008E0009A431043C861D4E90710014320680268A5
:1008F00022F0C00211430160D4E9030101432068E2
:10090000826848F2FF339A4311438160D4E90501BC
:1009100008432168CA6822F0FF021043C86001E062
:100920000EE016E02068016841F0010101602564D5
:10093000202084F83D00256384F83E50002070BDDF
:1009400001EB4106431EB3FBF6F35B1CB3E701204A
:10095000C2E701EB4101401EB0FBF1F0401CC0F3C7
:100960000B00B7E7A086010080841E0000093D004F
:1009700040420F0010B586B0002100910191029114
:10098000039100681349884222D1134CA06940F0BA
:100990000800A061A069694600F0080004904FF4C7
:1009A0004070009012200190032003900B48FFF745
:1009B00021FE0B48416841F0E06141F002014160D5
:1009C000E06940F40010E061E06900F40010049078
:1009D00006B010BD0054004000100240000C014061
:1009E000000001400248816802781144816070472C
:1009F00000000020074810B5016841F010010160B7
:100A0000032000F079F8002000F006F800F024F848
:100A1000002010BD0020024070B50D4D04464FF47B
:100A20007A712878B1FBF0F00A490968B1FBF0F05F
:100A300000F0E0FA48B9102C07D200222146501EDF
:100A400000F03AF800206C6070BD012070BD00001D
:100A5000000000200C0000200E4808B5816941F01C
:100A600001018161816901F001010091C16941F0D9
:100A70008051C161C06900F080500090052000F0F5
:100A80003BF80548416821F0E06141F000714160A8
:100A900008BD00000010024000000140002809DBF2
:100AA00000F01F02012191404009800000F1E02088
:100AB000C0F8001170470000F0B40E4B1B680C46E4
:100AC000C3F30223C3F10705042D00D90425191D22
:100AD000072901D2002300E0DB1E012606FA05F1FA
:100AE000491E214099409E40761E16403143F0BC7D
:100AF00001F01FBB0CED00E0064900F0070208689A
:100B00004FF6FF03184040EA0220034A10430860F2
:100B1000704700000CED00E00000FA052DE9F047F9
:100B20000F46050061D0434E306800F00700B84220
:100B300009D2306820F0070038433060306800F098
:100B40000700B84251D128683B4C810712D54007B5
:100B500003D5606840F4E06060602878000703D542
:100B6000606840F4605060606068A96820F0F00040
:100B7000084360602878C00728D06868012810D032
:100B80002168022810D0890700292EDA616821F037
:100B9000030101436160FFF723FE804641F288397B
:100BA0000DE021688903EFE78901EDE7FFF718FE03
:100BB000A0EB0801494502D90320BDE8F087606831
:100BC000696800F00C00B0EB810FEFD1306800F0E5
:100BD0000700B8420BD9306820F007003843306076
:100BE000306800F00700B84201D00120E5E728781E
:100BF000400705D56068E96820F4E060084360605C
:100C00002878000706D56068296920F4605040EA1A
:100C1000C100606000F038F86168084AC1F3031150
:100C2000515CC8400649086006480068FFF7F4FEBA
:100C30000020C2E70020024000100240F822000815
:100C40000C000020040000200448054900684968A1
:100C5000044AC1F30221515CC84070470C000020D7
:100C6000001002400823000804480549006849684C
:100C7000044AC1F3C221515CC84070470C000020F7
:100C800000100240082300080E4A51680E4801F087
:100C90000C03042B11D0082B0FD10C48C1F3834354
:100CA000C903C05C0AD55168084AC1F34041921E8D
:100CB000515C054A5043B0FBF1F07047044948438A
:100CC000704700000010024000127A00E82200087D
:100CD00000093D002DE9F84F040070D02078C04D88
:100CE000C00749D06868C0F38100012807D0686850
:100CF000C0F38100022809D16868C00306D52868BE
:100D0000800339D560680028E7D035E06068B0F529
:100D1000803F0BD010B1B0F5A02F11D0286820F47F
:100D200080302860286820F4802002E0286840F4A1
:100D300080302860606890B1FFF752FD06460AE0F7
:100D4000286840F480202860F0E700BFFFF748FDE6
:100D5000801B642873D828688003F7D50CE0FFF760
:100D60003FFD064605E000BFFFF73AFD801B642803
:100D7000F0D828688003F7D420789A4E80074FF087
:100D800001094FF0000839D5686810F00C0F07D042
:100D90006868C0F38100022809D16868C00306D4DE
:100DA0002868800714D52069012808D110E020693F
:100DB000B0B1C6F80090FFF713FD074605E00AE161
:100DC000FFF70EFDC01B0228C4D828688007F7D59E
:100DD0002868616920F0F80040EAC10028600DE051
:100DE000C6F80080FFF7FCFC074604E0FFF7F8FCBC
:100DF000C01B022823D828688007F7D42078000772
:100E00002CD57948A169D9B1C0F80090FFF7E8FC6A
:100E1000074604E0FFF7E4FCC01B02280FD8686A0D
:100E20008007F7D571484FF4FA510068B0FBF1F034
:100E3000009000BF0098411E0091FAD20EE080E0C1
:100E4000C0F80080FFF7CCFC074604E0FFF7C8FCC1
:100E5000C01B022875D8686A8007F7D4207840073D
:100E600060D5E8690027C00008D4E86940F08050E8
:100E7000E861E869012700F0805000905C48016853
:100E8000C90513D40168834641F480710160FFF7FE
:100E9000A7FC824606E000BFFFF7A2FCA0EB0A0019
:100EA00064284ED8DBF80000C005F5D5E0680128BD
:100EB0000AD008B1052813D0286A20F00100286262
:100EC000286A20F0040002E0286A40F0010028624D
:100ED000E06841F2883B98B1FFF782FC82460BE064
:100EE000286A40F004002862EEE700BFFFF778FCB4
:100EF000A0EB0A0159455AD8286A8007F6D50CE0BC
:100F0000FFF76EFC824605E0FFF76AFCA0EB0A01E2
:100F100059454CD8286A8007F6D41FB1E86920F0FB
:100F20008050E861E06988B36968C1F381010229F2
:100F300044D00228C6F8608004D0FFF751FC044674
:100F400038E034E0FFF74CFC074604E0FFF748FCCC
:100F5000C01B02282BD828688001F7D4206AB0F57E
:100F6000803F05D16868A16820F4003008436860BC
:100F7000D4E908010843696821F4741108436860E2
:100F8000C6F86090FFF72CFC044606E025E000BFA1
:100F9000FFF726FC001B022809D828688001F7D536
:100FA0001BE000BFFFF71CFC001B022802D9032036
:100FB000BDE8F88F28688001F4D40EE00128F7D04E
:100FC0006868226A00F48031914204D1616A00F4B9
:100FD0007010884201D00120EAE70020E8E7000015
:100FE0000010024000004242800442420C000020F7
:100FF0000070004010B5401EB0F1807F01D3012089
:1010000010BD4FF0E02460610F21601701F091F8EE
:101010000020A06107202061002010BD10B590F8CD
:101020003C20012A22D0012280F83C20CA688C682A
:1010300022F4407222434C6822F4806222430C68FE
:1010400022F4006222430C6922F4805222434C694C
:1010500022F400522243C969002322F480420A4349
:1010600001684A6480F83C30002010BD022010BDA9
:1010700070B590F83C20012A26D0012480F83C402D
:10108000022280F83D2003685A689D6822F07006AD
:101090000A6832435A600D4B02689A4208D0B2F196
:1010A000804F05D00A4B9A4202D00A4B9A4204D193
:1010B000496825F080031943916080F83D40002184
:1010C00080F83C10084670BD022070BD002C014025
:1010D000000400400008004010B50446022249B157
:1010E00004290ED0082913D094F84500012816D001
:1010F000012010BD94F842000128F9D184F8422063
:101100000FE094F843000128F2D184F8432008E06E
:1011100094F844000128EBD184F8442001E084F8DD
:1011200045200422206800F06EFD2068416C41F4E7
:10113000004141640B492068884208D0B0F1804FDB
:1011400005D00949884202D00849884204D1816803
:1011500001F00701062903D0016841F00101016097
:10116000002010BD002C0140000400400008004099
:1011700010B586B0002100910191029103910068A1
:101180001449884223D11448816941F008018161E2
:10119000816901F008010491816941F004018161D4
:1011A0008069022400F0040004904FF46040CDE90F
:1011B0000004694609480394FFF71CFA4FF4E06005
:1011C000CDE90004694606480394FFF713FA06B018
:1011D00010BD0000002C014000100240000C014036
:1011E0000008014070B5044690F83C0000260D460A
:1011F00001280FD0012084F83C006AB1042A1DD0D8
:10120000082A2FD00C2A3FD00126002084F83C0069
:10121000304670BD022070BD206800F001FD2068DE
:10122000816941F0080181612068816921F0040130
:101230008161206881692A69114311E0206800F00A
:1012400017FD2068816941F400618161206881692E
:1012500021F480618161206881692A6941EA022163
:101260008161D2E7206800F02FFD2068C16941F05C
:101270000801C1612068C16921F00401C1612068D1
:10128000C1692A69114311E0206800F049FD206816
:10129000C16941F40061C1612068C16921F48061C4
:1012A000C1612068C1692A6941EA0221C161ACE7D4
:1012B00010B5040003D094F83D0010B107E0012000
:1012C00010BD002084F83C00204600F01FF80220EA
:1012D00084F83D00211D206800F04CFC012084F8BA
:1012E000460084F83E0084F83F0084F8400084F80B
:1012F000410084F8420084F8430084F8440084F8F4
:10130000450084F83D00002010BD000008B50068CD
:101310000649884208D10648816941F4006181612B
:10132000806900F40060009008BD0000002C0140BE
:101330000010024010B50446022249B104290ED023
:10134000082913D094F84100012816D0012010BDBF
:1013500094F83E000128F9D184F83E200FE094F87B
:101360003F000128F2D184F83F2008E094F84000C3
:101370000128EBD184F8402001E084F841200122CB
:10138000206800F033FC0F492068884203D1426C8A
:1013900042F4004242642068884208D0B0F1804F95
:1013A00005D00949884202D00849884204D18168A1
:1013B00001F00701062903D0016841F00101016035
:1013C000002010BD002C0140000400400008004037
:1013D00038B5044690F84200202801D0022038BDDC
:1013E00051B14AB10120206300206063204600F023
:1013F00051FE216B012901D0012038BD21680A6806
:101400004968009121680C3151E8002F42F0100228
:1014100041E80023002BF5D138BD000010B500686D
:101420000A4A904210D10A4609490A4800F0F8F9E0
:101430004FF4807206490748FFF7CAFF0648006864
:10144000016821F00401016010BD00000038014076
:101450007C010020AC000020F40000207047000058
:10146000F8B5016804460868CA684B6910F00F0FA8
:101470004FF0000559D003F0010602F4907737438E
:1014800065D0C10705D0D10503D5616C41F00101DC
:101490006164410705D5D90703D0616C41F00201B1
:1014A0006164810705D5D90703D0616C41F004015F
:1014B0006164010707D502F02001314303D0616C5C
:1014C00041F008016164616C00293AD0800604D5BE
:1014D000900602D5204600F01FFD20684069616C2F
:1014E000C0F38010090700D460B3204600F0DFFC91
:1014F00020684069400621D52068143050E8001F5C
:1015000021F0400140E80012002AF5D1E06BA8B1BB
:101510006D494163E06BFEF7FFFE002811D0E06BE0
:10152000416B01B0BDE8F040084783060FD5930634
:101530000DD52046BDE8F84000F0EEBC2046FFF790
:101540008DFFF8BD2046FFF789FF6564F8BD266B67
:101550002023012E7CD1C6067AD5D60678D5086818
:101560004868009048694FF00206400640D5E16B9C
:10157000086840680004000CE8D0A28D8242E5D9DA
:10158000E085886920282DD020680C3050E8001FA5
:1015900021F4807140E80012002AF5D1206814304F
:1015A00050E8001F21F0010140E80012002AF5D1A7
:1015B0002068143050E8001F21F0400140E800127C
:1015C000002AF5D184F84230256320680C3050E8B9
:1015D000001F21F0100140E80012002AF5D1E06B55
:1015E000FEF776FE6663A08DE18D401A81B22AE097
:1015F000A08DE18D401A81B2E08D0028A6D000298F
:10160000A4D022680C3252E8000F20F4907042E817
:101610000007002FF5D12068143050E8002F22F089
:10162000010240E80027002FF5D184F842302563FD
:1016300020680C3050E8002F22F0100240E8002310
:10164000002BF5D166632046FFF7E8FEF8BDFFE703
:1016500005062BD5150629D594F841002128F5D18A
:10166000A068B0F5805F01D12069B0B1206A411C4B
:101670002162216800784860E08C401E0004000C64
:10168000E084E3D12068C16821F08001C160206856
:10169000C16841F04001C160D8E7206A0088C0F30A
:1016A00008004860206A801C2062E5E74006CDD52E
:1016B0005006CBD5CA68204622F04002CA6084F8A2
:1016C000413000F0E9F8C1E7651D000870B504007D
:1016D00004D094F84100002510B106E0012070BD4F
:1016E00084F84050204600F023F8242084F841007C
:1016F0002068C16821F40051C160204600F06EFCF2
:101700002068016921F4904101612068416921F05C
:101710002A0141612068C16841F40051C1606564DB
:10172000202084F8410084F842006563002070BDE9
:10173000F0B585B000240646009401940294039409
:101740000068304988425AD12F48816941F480416C
:101750008161816901F480410491816941F008014E
:1017600081618069294D00F00800049040200090BC
:10177000022001900320039069462846FEF73AFFB5
:101780008027CDE90074694628460294FEF732FFAF
:101790001F48416841F0E06141F0040141601E4D85
:1017A0001C48C5E90004C5E902472C61B8016C6119
:1017B000C5E906402846FEF7A5FE08B1FEF786FDFE
:1017C000F5636E62144D13484435143801C510207A
:1017D00091C5114845F8104944306C61AC61EC6129
:1017E000FEF790FE08B1FEF771FDB56303221146C6
:1017F00025206E62FFF760F92520FFF74FF905B04D
:10180000F0BD00000038014000100240000C014013
:101810000000014058000240F4000020704770476B
:1018200070B5044690F84100202801D0022070BD18
:1018300049B342B32162A284E28400206064212380
:1018400084F84130A56B114BAB62A56B104BEB627A
:10185000A56B104B2B63A36B5863256813462A1D99
:10186000A06BFEF77DFE21686FF0400008602068E5
:10187000143050E8001F41F0800140E80012002AB7
:10188000F5D1002070BD012070BD0000631E00086E
:10189000A51E0008751D000870477047FEE7000090
:1018A0000D4808B5416941F00101416140690122DB
:1018B00000F00100009002210E20FFF7FDF80E203D
:1018C000FFF7ECF8012202210F20FFF7F5F8BDE841
:1018D00008400F20FFF7E2B8001002402DE9F04168
:1018E00086B00025244800950195029503958169ED
:1018F00041F010018161816901F010010491816959
:1019000041F020018161816901F020010491816928
:1019100041F008018161816901F008010491816948
:1019200041F0040181618069144F00F004004FF41C
:1019300000540490002221463846FEF74BFFDFF8A2
:1019400040806610002231464046FEF743FF009477
:101950000124CDE901450225694638460395FEF785
:1019600049FECDE9006469464046CDE90245FEF7EF
:1019700041FE06B0BDE8F0810010024000100140B9
:10198000000C01400D4810B50B4901600C49416045
:1019900000214FF480428160C0E9031241618161FE
:1019A000C1610162FEF722FF002803D0BDE81040AC
:1019B000FEF78CBC10BD0000005400401000002059
:1019C000801A060010B592B000240F941C216846BE
:1019D0001094FEF7FAFB202107A8FEF7F6FB294832
:1019E000274901600221C0E9011440F2AF41C0E97A
:1019F00003148021C0E90541FFF75AFC08B1FEF746
:101A000065FC0F940FA91F481094FFF731FB08B134
:101A1000FEF75CFC6020CDE900040294039404947A
:101A200005940022694617480694FFF7DBFB08B1CE
:101A3000FEF74CFC042269461248FFF7D3FB08B1BD
:101A4000FEF744FC082269460E48FFF7CBFB08B1BD
:101A5000FEF73CFC079408200894CDE90940800279
:101A6000CDE90B4007A907480E94FFF7D7FA08B154
:101A7000FEF72CFC0348FFF77BFB12B010BD000003
:101A8000002C0140640000200C4810B50A49016098
:101A90004FF4E1314160002181600C22C160C0E956
:101AA00004128161C161FFF711FE002803D0BDE877
:101AB0001040FEF70BBC10BD00380140AC00002008
:101AC000FEE7FEE710B500210E48FFF733FC0421C6
:101AD0000C48FFF72FFC08210A48FFF72BFC0021D8
:101AE0000848FFF7F9FA04210648FFF7F5FA08213C
:101AF0000448FFF7F1FA0122BDE810401103024843
:101B0000FEF768BE64000020000C0140704770477B
:101B1000FEF768BF30B58FB028216846FEF755FB49
:101B200014210AA8FEF751FB01210804CDE9001099
:101B30000024029402250491CDE907504FF4E010EF
:101B400009906846FFF7C6F808B172B6FEE70F20A5
:101B5000CDE90A054FF48060CDE90C4002210AA8C6
:101B60000E94FEF7DBFF002801D072B6FEE70FB03F
:101B700030BD7047F0B50268194B1A4C1A4D4FF042
:101B80008047984205D0B84203D0A04201D0A84275
:101B900003D122F070064A683243984205D0B84219
:101BA00003D0A04201D0A84203D122F44074CA68F5
:101BB00022434C6922F08002224302608A68C2629A
:101BC0000A688262984201D1096901630121416179
:101BD0000169C90703D0016921F001010161F0BD6C
:101BE000002C0140000400400008004010B501F046
:101BF0001F030121046A99408C430462016A9A40E0
:101C00001143016210BD10B501F00F030421046AF5
:101C100099408C430462016A9A401143016210BDED
:101C200030B5036A026A22F00102026242688469E6
:101C300024F073050C682C4323F002058B682B43BA
:101C40000A4DA8420BD123F00805CB6822F440725C
:101C50002B434D6923F0040315438A692A434260EC
:101C6000846149684163036230BD0000002C01407B
:101C700030B5026A036A23F0100303624368846983
:101C80000D6824F4E64444EA05248D6822F020021D
:101C900042EA05120B4DA8420ED1CD6822F0800217
:101CA00042EA05124D6923F4406343EA85038D69D6
:101CB00022F0400243EA85034360846149688163FE
:101CC000026230BD002C014030B5036A026A22F482
:101CD000807202624268C46923F4007324F07305C1
:101CE0000C682C438D6843EA05230C4DA8420ED1A5
:101CF000CD6823F4006343EA05234D6922F4405282
:101D000042EA05128D6923F4806342EA05124260BB
:101D1000C4614968C163036230BD0000002C01400A
:101D200030B5046A026A22F4805202624268C369D2
:101D30000D6823F4E64343EA05238D6824F4005438
:101D400044EA0534064DA84204D14D6922F480428C
:101D500042EA85124260C36149680164046230BD91
:101D6000002C014010B5406A0021C185C184FFF7F5
:101D700075FB10BD70B5446A2068406994F8411045
:101D8000C0F3C0100025212904D118B1E5842046F4
:101D900000F0B4F82068406994F84210C0F3801055
:101DA000222904D118B1E585204600F080F8606C46
:101DB00040F0100060642046FFF750FB70BD10B586
:101DC0000146406A096809684FF0000289062ED46E
:101DD000C28501680C3151E8003F23F4807341E86B
:101DE0000034002CF5D10168143151E8003F23F094
:101DF000010341E80034002CF5D10168143151E8A9
:101E0000003F23F0400341E80034002CF5D12021AD
:101E100080F84210016B012909D101680C3151E8A9
:101E2000003F23F0100341E80034002CF5D1426359
:101E3000016B012902D0FFF7F1FC10BD818DFFF786
:101E4000EDFA10BD10B5406A01214163016B012913
:101E500002D0FFF7E4FC10BD818D4908FFF7DEFAE0
:101E600010BD10B50146406A09680968890616D494
:101E70000021C1840168143151E8002F22F0800252
:101E800041E80023002BF5D101680C3151E8002F07
:101E900042F0400241E80023002BF5D110BDFFF7CE
:101EA000FBFC10BD10B5406AFFF7F7FC10BD0168E0
:101EB0000C3151E8002F22F4907241E80023002BEE
:101EC000F5D10168143151E8002F22F0010241E8F8
:101ED0000023002BF5D1016B012909D101680C31D8
:101EE00051E8002F22F0100241E80023002BF5D129
:101EF000202180F8421000210163704701680C31F5
:101F000051E8002F22F0C00241E80023002BF5D158
:101F1000202180F84110704708B590F8421022291E
:101F200001D0022008BD82684FF480539A4201D14B
:101F3000016921B1816A9A421BD04AB10AE0026864
:101F4000816A5268C2F308020A80816A891C08E02B
:101F5000026972B10268526802F07F020A70816AF7
:101F6000491C8162C18D491E0904090CC18503D039
:101F70001BE002685268F1E70168CA6822F020029B
:101F8000CA600168CA6822F48072CA6001684A693E
:101F900022F001024A61202180F8421000214163B1
:101FA000026B012A03D0FFF739FC002008BD016352
:101FB00001680C3151E8002F22F0100241E80023A3
:101FC000002BF5D101680A68D20602D50A68496873
:101FD0000091818DFFF722FAE7E7000070B5044613
:101FE00000680169E26821F44051114301612169EF
:101FF000A0680843616908432168CA6841F20C631C
:102000009A430243CA6020684169A26921F4407181
:10201000114341611E492068884202D1FEF724FE27
:1020200001E0FEF711FE00EBC00101EB0012606859
:1020300064218000B2FBF0F3B3FBF1F36FF01806FC
:102040007343B2FBF0F5B2FBF0F605EB83053223E8
:1020500003EB0515B5FBF1F5B6FBF1F605F0F00560
:1020600005EB0615B2FBF0F6B2FBF0F0B0FBF1F0B9
:102070006FF01802504306EB800003EB0010B0FB3A
:10208000F1F0216800F00F002844886070BD000066
:102090000038014038B5816204468285002013462D
:1020A0006064222284F84220E56B1B4AAA62E56B39
:1020B0001A4AEA62E56B1A4A2A63E26B50630A46DF
:1020C0002168E06B091DFEF74BFA20680168406843
:1020D0000090206948B120680C3050E8001F41F49E
:1020E000807140E80012002AF5D12068143050E8D1
:1020F000001F41F0010140E80012002AF5D12068DC
:10210000143050E8001F41F0400140E80012002A5E
:10211000F5D1002038BD0000BF1D0008451E000895
:10212000751D00080148FFF79BB90000AC000020B6
:10213000FEE70907090E002804DB00F1E02080F823
:102140000014704700F00F0000F1E02080F8141D2B
:10215000704770472DE9F041164C0A27E168226864
:10216000491CB1FBF7F15163216800258D6321689B
:10217000CD6300F053F80646FEF72AFA206845635F
:10218000E0682168401CB0FBF7F088632068C563F5
:102190003046FEF71DFA2068456320688563E068D5
:1021A0002168401CB0FBF7F0C8633046BDE8F04141
:1021B000FEF70EBA640000207047000010B54FF41F
:1021C000807205490548FFF703F905480068016872
:1021D00021F00401016010BD7C010020AC00002052
:1021E000F4000020FEF706FCFFF794FCFFF776FBF7
:1021F000FFF756FBFFF748FCFFF7C4FBFFF7E2FBD6
:10220000FFF7DAFFFFF7DAFFFFF75CFC024C20462E
:10221000FFF7A0FFFBE7000000004842C10DD1F12D
:102220009E0206DB4FEA002343F0004323FA02F04C
:102230007047004207D54FEA4001B1F1FE4F02D28C
:102240004FF00000704710B500F007F84992248065
:10225000002070476FEA200070470EF1020E2EF04A
:10226000030E5EF8044B244204D44FEA4102B2F15B
:102270007F4F11D84FEA4003B3F17F4F0CD80ED1F6
:102280004FEAD07CB2F17F4F0CEB4C0C0CF1020CFE
:1022900008BF4CEBD17C04E04FF0080C01E04FEAA2
:1022A000D17C0CEB4C0324FA03F404F00704B4F1E2
:1022B000040C06D20EEB840CBDE810404CF0010C6F
:1022C0006047DFE80CF0070802024FF00040A0F57D
:1022D000800010BD0846420018BFD2F1807288BF4E
:1022E00000F0004010BD01020203040506070809C2
:1022F0000A0B0C0D0E0F1010000000000000000073
:10230000010203040607080900000000010203049B
:102310003023000800000020100000002801000801
:102320004023000810000020D008000044010008ED
:1023300001000000100000000000000000127A0000
:04000005080000ED02
:00000001FF
