:020000040800F2
:10000000F00800208901000857220008151C00088C
:1000100055220008A5020008C528000800000000BD
:10002000000000000000000000000000A322000803
:10003000EB02000800000000A1220008A522000831
:10004000A3010008A3010008A3010008A301000800
:10005000A3010008A3010008A3010008A3010008F0
:10006000A3010008A3010008A3010008A3010008E0
:10007000A3010008A3010008A9020008B5020008B6
:10008000A3010008A3010008A3010008A3010008C0
:10009000A3010008A3010008A3010008A3010008B0
:1000A000A3010008A3010008A3010008A3010008A0
:1000B000A3010008A3010008A3010008A301000890
:1000C000A3010008A3010008A3010008A301000880
:1000D000A3010008B9280008A3010008A301000833
:1000E000A3010008A3010008A301000800F002F822
:1000F00000F03AF80AA090E8000C82448344AAF188
:100100000107DA4501D100F02FF8AFF2090EBAE885
:100110000F0013F0010F18BFFB1A43F0010318473B
:1001200088490000A8490000103A24BF78C878C167
:10013000FAD8520724BF30C830C144BF04680C60ED
:10014000704700000023002400250026103A28BF35
:1001500078C1FBD8520728BF30C148BF0B60704739
:100160001FB51FBD10B510BD00F06EF81146FFF7AA
:10017000F7FF02F0F3FF00F08CF803B4FFF7F2FF93
:1001800003BC02F005FF000009488047094800470A
:10019000FEE7FEE7FEE7FEE7FEE7FEE7FEE7FEE737
:1001A000FEE7FEE704480549054A064B7047000094
:1001B00007230008ED000008F0020020F0080020EE
:1001C000F0040020F004002070474FF0000200B55A
:1001D000134694469646203922BFA0E80C50A0E86A
:1001E0000C50B1F12001BFF4F7AF090728BFA0E818
:1001F0000C5048BF0CC05DF804EB890028BF40F8E4
:10020000042B08BF704748BF20F8022B11F0804F25
:1002100018BF00F8012B7047704770477047704750
:1002200010B500F009F8006810BD10B5044600F0E4
:1002300003F8046010BD00000048704790020020E1
:1002400000487047900200207546FFF7F9FFAE4660
:1002500005006946534620F00700854618B020B5D2
:10026000FFF7A0FFBDE820404FF000064FF0000769
:100270004FF000084FF0000B21F00701AC46ACE84E
:10028000C009ACE8C009ACE8C009ACE8C0098D46BB
:10029000704710B50446AFF300802046BDE810401B
:1002A000FFF76BBFFEE70000014800F091B80000C7
:1002B0004C010020014800F08BB80000080100202C
:1002C00030B590F840500124AC40C56B6C600468B8
:1002D00063604368102B036803D099600068C260B4
:1002E00030BD9A600068C16030BD704772B6FEE7ED
:1002F00010B590F821100022022905D00421816355
:1003000080F82020012010BD01680B6823F00E0347
:100310000B6001680B6823F001030B6090F840301C
:10032000C46B012101FA03F3636080F8211080F8A7
:100330002020104610BD000010B590F821100024B8
:10034000022903D00421816301243DE001680A6889
:1003500022F00E020A6001680A6822F001020A60B7
:100360001A4A0168914201D1012121E0174A143251
:10037000914201D110211BE0144A2832914201D14F
:10038000891515E0114A3C32914201D189140FE0E0
:100390000E4A5032914202D14FF4803108E00B4AAC
:1003A0006432914202D14FF4801101E04FF080712C
:1003B000064A083A5160012180F82110002180F896
:1003C0002010416B01B18847204610BD0800024053
:1003D0002DE9F05FC16B0C6801680B68D0F840C074
:1003E000042202FA0CF2494DDFF824A1494E4A4F8B
:1003F000DFF828B1DFF828E122422CD05A072AD5AD
:100400000A68920603D40A6822F004020A600168AE
:10041000A94201D1042219E0514501D1402215E041
:10042000B14202D14FF4806210E0B94202D14FF4E0
:1004300080420BE0594502D14FF4802206E071451D
:1004400002D14FF4800201E04FF080622F49083959
:100450004A60C16A3BE04FF0020808FA0CF818EA5B
:10046000040F4FF000094FF0010235D05FEA8378A6
:1004700032D50B689B0605D40B6823F00A030B608A
:1004800080F821200168A94201D1022219E05145DA
:1004900001D1202215E0B14202D14FF4007210E0E8
:1004A000B94202D14FF400520BE0594502D14FF44A
:1004B000003206E0714502D14FF4001201E04FF026
:1004C0000072124908394A6080F82090816A002938
:1004D0001AD0BDE8F05F0847082505FA0CF525425B
:1004E00012D01B0710D50B6823F00E030B6090F899
:1004F0004010C36B02FA01F15960826380F8212039
:1005000080F82090016BE2E7BDE8F09F0800024010
:100510001C000240300002404400024058000240EB
:100520006C00024030B528B308C81349142219449E
:10053000B1FBF2F18900C163104981630221417767
:100540001A6843F6F0718A43D0E900142143D0E9D8
:1005500002452C43214304692143446921438469B2
:100560002143114319600021416301224277017741
:10057000084630BD012030BDF8FFFDBF000002403D
:1005800070B5044690F82000002501280CD0012009
:1005900084F8200094F821600020012E06D084F811
:1005A00020000225284670BD022070BD022684F876
:1005B0002160A0632068066826F0010606602046D8
:1005C000FFF77EFEE06A00282068016802D041F053
:1005D0000E0106E021F0040101602068016841F08D
:1005E0000A0101602068016841F001010160D9E75A
:1005F0002DE9F84FDFF8B8910024A9F1040B234648
:100600000F2709F1040AABF1040EC9E00125A5404A
:100610002A40AA427DD1674ED1F804C0ACEB06084F
:10062000B44532D014DCBCF1030F3AD009DCBCF184
:10063000000F2AD0BCF1010F1CD0BCF1020F31D148
:100640001DE0BCF1110F17D0BCF1120F2AD119E037
:10065000B8F5881F19D006DCB8F5803F15D0B8F57D
:10066000801F1FD111E0B8F5001F0ED0B8F5041F90
:1006700018D10AE0CB6815E0CB681B1D12E0CB68EF
:1006800008330FE0CB680C330CE08B682BB1012BE7
:100690004FF0080303D0456104E0042302E0056144
:1006A00000E00023FF2A01D8064601E000F104061D
:1006B0004FEA840501D9A5F12005D6F8008007FA94
:1006C00005FC28EA0C0803FA05F548EA0508C6F80F
:1006D00000804D68ED0062D5374DAE6946F00106E9
:1006E000AE61AD6924F0030605F001050095334DB8
:1006F00006EB050CDCF80850A607360F07FA06F8DB
:1007000025EA0805DFF8B880404503D14FF000081E
:1007100017E044E0DFF8AC80404502D14FF001081B
:100720000FE0DFF8A480404502D14FF0020808E056
:10073000DFF89880404502D14FF0030801E04FF008
:10074000040808FA06F848EA0508CCF808804D685D
:10075000D9F80060ED024D4601D5164300E09643FE
:100760002E604D68DAF80060AD02554601D516439B
:1007700000E096432E604D68DBF80060AD035D46F7
:1007800001D5164300E096432E604D68DEF8006008
:10079000ED03754601D5164300E096432E60641CB8
:1007A0000D682A46E5407FF431AFBDE8F88F0000C0
:1007B0000804014000001110001002400000014038
:1007C00000080140000C01400010014000140140ED
:1007D0000AB1016170470904FBE700000148806825
:1007E000704700000000002070B5040025D094F888
:1007F0003D00002520B984F83C50204600F076FAF0
:10080000242084F83D002068016821F00101016086
:100810002068016841F4004101602068016821F40A
:100820000041016000F0CCFB4D4A6168914201D863
:100830004C4900E04C49884201D2012070BD4B492F
:100840002368B0FBF1F15E6826F03F060E435E6060
:100850006368934206D94FF4967359434FF47A7301
:10086000B1FBF3F12368491C1E6A26F03F063143B1
:1008700019626168914210D84900401EB0FBF1F244
:10088000521CC2F30B02042A01D2042022E0B0FB66
:10089000F1F0401CC0F30B001CE0A268F2B301EBC6
:1008A000C10303EB0116431EB3FBF6F35B1C43F4D9
:1008B00080431B0549D092B301EBC10202EB011149
:1008C000401EB0FBF1F0401CC0F30B0040F4804030
:1008D00040F400402168CA694CF6FF739A43104304
:1008E000C861D4E9071001432068026822F0C00201
:1008F00011430160D4E9030101432068826848F292
:10090000FF339A4311438160D4E90501084321680C
:10091000CA6822F0FF021043C86001E00EE016E052
:100920002068016841F0010101602564202084F8FD
:100930003D00256384F83E50002070BD01EB410668
:10094000431EB3FBF6F35B1CB3E70120C2E701EBE8
:100950004101401EB0FBF1F0401CC0F30B00B7E7B3
:10096000A086010080841E0000093D0040420F0067
:100970002DE9F84F0025DDF82890984617468A465D
:1009800004460095FFF72AFF064694F83D0020280C
:100990007AD11923012286492046009601F042FAB5
:1009A0000028F5D194F83C0001286DD0012084F88E
:1009B0003C0020680168C90703D1016841F00101CA
:1009C00001602068016821F400610160222084F840
:1009D0003D00102084F83E0025646762A4F82A8058
:1009E000608D20857348E06233464A465146204672
:1009F00001F028F900287CD1208DDFF8BC81202768
:100A000068B1012814D00228206801681ED041F482
:100A1000806101602068416980690090BBE02068C6
:100A2000416981690091016841F400710160B2E09F
:100A30002068016821F48061016072B62068416914
:100A400081690091016841F400710AE041F400619C
:100A5000016072B62068416981690091016821F4E2
:100A60008061016062B696E0032865D801280CD049
:100A700002284B464FF000024146204600960BD01C
:100A800001F0D0F9A8BB0CE090E032464946204680
:100A900001F06EFA68BB71E001F0C4F948BB72B6B0
:100AA00033E02068016821F48061016072B620683B
:100AB0000069616A0870606A401C6062208D401E97
:100AC0002085608D401E60853C4846F2A811006874
:100AD000B0FBF1F0C0EBC00000EB80000090401EC6
:100AE000009007D020684069C04340070DD50098AA
:100AF000F5E727E044F8305F6773A573206940F09D
:100B00002000206162B625731CE02068016841F472
:100B10000071016020680069616A0870606A401CA9
:100B20006062218D491E2185618D491E618562B6F5
:100B300021680969017025E032464946204601F0E6
:100B400017FA10B10120BDE8F88F20680069616ACA
:100B50000870606A401C6062208D401E81B2218551
:100B6000608D401E608520684269D243520712D4CE
:100B7000032903D1016821F48061016020680069C4
:100B8000616A0870606A401C6062208D401E20858A
:100B9000608D401E6085208D00287FF465AF84F84D
:100BA0003D7084F83E5084F83C50CCE70220CAE700
:100BB000020010000000FFFF040001000C000020F4
:100BC0002DE9F84F1F4690468A460446DDF82890E6
:100BD000FFF704FE054694F83D0020287FD1192335
:100BE000012240492046009501F01CF9002876D1E9
:100BF00094F83C00012872D0012084F83C00206861
:100C00000168C90703D1016841F001010160206852
:100C1000016821F400610160212084F83D0010206A
:100C200084F83E0000262664C4F824806785608D21
:100C300020852D48E0622B464A465146204601F069
:100C400077F890B9206841698069009036E02A46BB
:100C50004946204601F0C4F950B1206C042804D163
:100C60002068016841F4007101600120BDE8F88F3F
:100C7000606A216800780861606A401C6062618D6A
:100C8000491E6185218D491E89B2218522685369DB
:100C9000DB435B070BD451B100781061606A401CE4
:100CA0006062608D401E6085208D401E20852A4632
:100CB0004946204601F08AF80028CED1208D002830
:100CC000C5D154F83D0B016841F40071016020204A
:100CD00004F81E09E67766770020C7E7FFE70220E1
:100CE000C4E70000020010000000FFFF10B586B04E
:100CF00000210091019102910391006813498842FB
:100D000022D1134CA06940F00800A061A069694697
:100D100000F0080004904FF4407000901220019001
:100D2000032003900B48FFF763FC0B48416841F038
:100D3000E06141F002014160E06940F40010E061CF
:100D4000E06900F40010049006B010BD00540040AB
:100D500000100240000C0140000001400248816880
:100D6000027811448160704700000020074810B5E8
:100D7000016841F010010160032000F079F80020C3
:100D800000F006F800F024F8002010BD002002401A
:100D900070B50D4D04464FF47A712878B1FBF0F030
:100DA0000A490968B1FBF0F000F0E0FA48B9102CEC
:100DB00007D200222146501E00F03AF800206C6055
:100DC00070BD012070BD0000000000200C0000205C
:100DD0000E4808B5816941F001018161816901F026
:100DE00001010091C16941F08051C161C06900F009
:100DF00080500090052000F03BF80548416821F044
:100E0000E06141F00071416008BD00000010024047
:100E100000000140002809DB00F01F020121914081
:100E20004009800000F1E020C0F800117047000088
:100E3000F0B40E4B1B680C46C3F30223C3F1070545
:100E4000042D00D90425191D072901D2002300E033
:100E5000DB1E012606FA05F1491E214099409E40FD
:100E6000761E16403143F0BC01F041BD0CED00E0B0
:100E7000064900F0070208684FF6FF03184040EAF1
:100E80000220034A10430860704700000CED00E0A8
:100E90000000FA052DE9F0470F46050061D0434EEA
:100EA000306800F00700B84209D2306820F007002F
:100EB00038433060306800F00700B84251D12868EC
:100EC0003B4C810712D5400703D5606840F4E060D1
:100ED00060602878000703D5606840F46050606067
:100EE0006068A96820F0F000084360602878C007B7
:100EF00028D06868012810D02168022810D08907FE
:100F000000292EDA616821F0030101436160FFF7D7
:100F100065FC804641F288390DE021688903EFE7DE
:100F20008901EDE7FFF75AFCA0EB0801494502D91A
:100F30000320BDE8F0876068696800F00C00B0EB42
:100F4000810FEFD1306800F00700B8420BD930684C
:100F500020F0070038433060306800F00700B842E6
:100F600001D00120E5E72878400705D56068E968E9
:100F700020F4E060084360602878000706D56068C8
:100F8000296920F4605040EAC100606000F038F840
:100F90006168084AC1F30311515CC8400649086002
:100FA00006480068FFF7F4FE0020C2E70020024078
:100FB00000100240704900080C00002004000020CE
:100FC0000448054900684968044AC1F30221515C9C
:100FD000C84070470C000020001002408049000803
:100FE0000448054900684968044AC1F3C221515CBC
:100FF000C84070470C0000200010024080490008E3
:101000000E4A51680E4801F00C03042B11D0082B36
:101010000FD10C48C1F38343C903C05C0AD55168A2
:10102000084AC1F34041921E515C054A5043B0FB4F
:10103000F1F0704704494843704700000010024037
:1010400000127A006049000800093D002DE9F84FC0
:10105000040070D02078C04DC00749D06868C0F344
:101060008100012807D06868C0F38100022809D1F7
:101070006868C00306D52868800339D560680028F1
:10108000E7D035E06068B0F5803F0BD010B1B0F527
:10109000A02F11D0286820F480302860286820F420
:1010A000802002E0286840F480302860606890B1B9
:1010B000FFF794FB06460AE0286840F48020286089
:1010C000F0E700BFFFF78AFB801B642873D828680D
:1010D0008003F7D50CE0FFF781FB064605E000BF73
:1010E000FFF77CFB801B6428F0D828688003F7D4C6
:1010F00020789A4E80074FF001094FF0000839D54B
:10110000686810F00C0F07D06868C0F381000228EF
:1011100009D16868C00306D42868800714D52069FF
:10112000012808D110E02069B0B1C6F80090FFF79F
:1011300055FB074605E00AE1FFF750FBC01B0228FC
:10114000C4D828688007F7D52868616920F0F800BE
:1011500040EAC10028600DE0C6F80080FFF73EFBC2
:10116000074604E0FFF73AFBC01B022823D8286893
:101170008007F7D4207800072CD57948A169D9B128
:10118000C0F80090FFF72AFB074604E0FFF726FBB4
:10119000C01B02280FD8686A8007F7D571484FF442
:1011A000FA510068B0FBF1F0009000BF0098411EBA
:1011B0000091FAD20EE080E0C0F80080FFF70EFB4D
:1011C000074604E0FFF70AFBC01B022875D8686ACF
:1011D0008007F7D42078400760D5E8690027C00071
:1011E00008D4E86940F08050E861E869012700F020
:1011F000805000905C480168C90513D4016883469B
:1012000041F480710160FFF7E9FA824606E000BF11
:10121000FFF7E4FAA0EB0A0064284ED8DBF80000E0
:10122000C005F5D5E06801280AD008B1052813D01B
:10123000286A20F001002862286A20F0040002E0F9
:10124000286A40F001002862E06841F2883B98B1CA
:10125000FFF7C4FA82460BE0286A40F004002862D7
:10126000EEE700BFFFF7BAFAA0EB0A0159455AD8DA
:10127000286A8007F6D50CE0FFF7B0FA824605E051
:10128000FFF7ACFAA0EB0A0159454CD8286A800751
:10129000F6D41FB1E86920F08050E861E06988B3B6
:1012A0006968C1F38101022944D00228C6F8608030
:1012B00004D0FFF793FA044638E034E0FFF78EFAE3
:1012C000074604E0FFF78AFAC01B02282BD82868DB
:1012D0008001F7D4206AB0F5803F05D16868A16825
:1012E00020F4003008436860D4E9080108436968C5
:1012F00021F4741108436860C6F86090FFF76EFA35
:10130000044606E025E000BFFFF768FA001B02284C
:1013100009D828688001F7D51BE000BFFFF75EFA07
:10132000001B022802D90320BDE8F88F286880013D
:10133000F4D40EE00128F7D06868226A00F4803106
:10134000914204D1616A00F47010884201D00120FA
:10135000EAE70020E8E700000010024000004242F7
:10136000800442420C0000200070004010B5401E76
:10137000B0F1807F01D3012010BD4FF0E024606107
:101380000F21601701F0B3FA0020A061072020614F
:10139000002010BD10B590F83C20012A22D0012277
:1013A00080F83C20CA688C6822F4407222434C6862
:1013B00022F4806222430C6822F4006222430C690A
:1013C00022F4805222434C6922F400522243C9691C
:1013D000002322F480420A4301684A6480F83C30CA
:1013E000002010BD022010BD70B590F83C20012AED
:1013F00026D0012480F83C40022280F83D2003687A
:101400005A689D6822F070060A6832435A600D4B94
:1014100002689A4208D0B2F1804F05D00A4B9A4236
:1014200002D00A4B9A4204D1496825F0800319433F
:10143000916080F83D40002180F83C10084670BD66
:10144000022070BD002C0140000400400008004054
:1014500010B50446022249B104290ED0082913D040
:1014600094F84500012816D0012010BD94F84200E0
:101470000128F9D184F842200FE094F843000128B4
:10148000F2D184F8432008E094F844000128EBD11D
:1014900084F8442001E084F845200422206800F00C
:1014A0007CFF2068416C41F4004141640B49206895
:1014B000884208D0B0F1804F05D00949884202D057
:1014C0000849884204D1816801F00701062903D048
:1014D000016841F001010160002010BD002C0140B5
:1014E000000400400008004010B586B000210091C3
:1014F00001910291039100681449884223D1144854
:10150000816941F008018161816901F0080104915C
:10151000816941F0040181618069022400F00400C6
:1015200004904FF46040CDE90004694609480394F3
:10153000FFF75EF84FF4E060CDE900046946064825
:101540000394FFF755F806B010BD0000002C0140D1
:1015500000100240000C01400008014070B5044634
:1015600090F83C0000260D4601280FD0012084F899
:101570003C006AB1042A1DD0082A2FD00C2A3FD083
:101580000126002084F83C00304670BD022070BD6A
:10159000206800F00FFF2068816941F00801816137
:1015A0002068816921F004018161206881692A69CC
:1015B000114311E0206800F025FF2068816941F4A3
:1015C000006181612068816921F480618161206806
:1015D00081692A6941EA02218161D2E7206800F02D
:1015E0003DFF2068C16941F00801C1612068C169FF
:1015F00021F00401C1612068C1692A69114311E029
:10160000206800F057FF2068C16941F40061C161A2
:101610002068C16921F48061C1612068C1692A69BB
:1016200041EA0221C161ACE710B5040003D094F88F
:101630003D0010B107E0012010BD002084F83C00FF
:10164000204600F01FF8022084F83D00211D20688C
:1016500000F05AFE012084F8460084F83E0084F829
:101660003F0084F8400084F8410084F8420084F888
:10167000430084F8440084F8450084F83D000020CD
:1016800010BD000008B500680649884208D1064828
:10169000816941F400618161806900F4006000901B
:1016A00008BD0000002C01400010024010B50446A7
:1016B000022249B104290ED0082913D094F8410020
:1016C000012816D0012010BD94F83E000128F9D160
:1016D00084F83E200FE094F83F000128F2D184F80E
:1016E0003F2008E094F840000128EBD184F8402026
:1016F00001E084F841200122206800F041FE0F49FA
:101700002068884203D1426C42F40042426420685F
:10171000884208D0B0F1804F05D00949884202D0F4
:101720000849884204D1816801F00701062903D0E5
:10173000016841F001010160002010BD002C014052
:10174000000400400008004038B5044690F842000C
:10175000202801D0022038BD51B14AB101202063B8
:1017600000206063204601F05FF8216B012901D061
:10177000012038BD21680A684968009121680C3150
:1017800051E8002F42F0100241E80023002BF5D170
:1017900038BD000010B500680A4A904210D10A46D0
:1017A00009490A4800F0F8F94FF4807206490748E1
:1017B000FFF7CAFF06480068016821F004010160D4
:1017C00010BD00000038014090010020C000002042
:1017D0000801002070470000F8B501680446086859
:1017E000CA684B6910F00F0F4FF0000559D003F095
:1017F000010602F49077374365D0C10705D0D105C3
:1018000003D5616C41F001016164410705D5D90739
:1018100003D0616C41F002016164810705D5D907ED
:1018200003D0616C41F004016164010707D502F047
:101830002001314303D0616C41F008016164616CA7
:1018400000293AD0800604D5900602D5204600F043
:101850002DFF20684069616CC0F38010090700D437
:1018600060B3204600F0EDFE20684069400621D5B7
:101870002068143050E8001F21F0400140E80012B9
:10188000002AF5D1E06BA8B16D494163E06BFEF72A
:1018900053FD002811D0E06B416B01B0BDE8F04072
:1018A000084783060FD593060DD52046BDE8F840BE
:1018B00000F0FCBE2046FFF78DFFF8BD2046FFF785
:1018C00089FF6564F8BD266B2023012E7CD1C606F6
:1018D0007AD5D60678D508684868009048694FF0F0
:1018E0000206400640D5E16B086840680004000C21
:1018F000E8D0A28D8242E5D9E085886920282DD0E4
:1019000020680C3050E8001F21F4807140E800127C
:10191000002AF5D12068143050E8001F21F00101A1
:1019200040E80012002AF5D12068143050E8001F6A
:1019300021F0400140E80012002AF5D184F842303D
:10194000256320680C3050E8001F21F0100140E8AA
:101950000012002AF5D1E06BFEF7CAFC6663A08D89
:10196000E18D401A81B22AE0A08DE18D401A81B24A
:10197000E08D0028A6D00029A4D022680C3252E8BD
:10198000000F20F4907042E80007002FF5D1206886
:10199000143050E8002F22F0010240E80027002F09
:1019A000F5D184F84230256320680C3050E8002FD0
:1019B00022F0100240E80023002BF5D16663204698
:1019C000FFF7E8FEF8BDFFE705062BD5150629D57C
:1019D00094F841002128F5D1A068B0F5805F01D1CD
:1019E0002069B0B1206A411C2162216800784860FA
:1019F000E08C401E0004000CE084E3D12068C16844
:101A000021F08001C1602068C16841F04001C160DF
:101A1000D8E7206A0088C0F308004860206A801C6C
:101A20002062E5E74006CDD55006CBD5CA682046F2
:101A300022F04002CA6084F8413000F0E9F8C1E7C2
:101A4000F924000870B5040004D094F84100002582
:101A500010B106E0012070BD84F84050204600F02F
:101A600023F8242084F841002068C16821F4005143
:101A7000C160204600F07CFE2068016921F490419D
:101A800001612068416921F02A0141612068C16833
:101A900041F40051C1606564202084F8410084F85D
:101AA00042006563002070BDF0B585B00024064695
:101AB00000940194029403940068304988425AD1FA
:101AC0002F48816941F480418161816901F480413D
:101AD0000491816941F0080181618069294D00F01C
:101AE0000800049040200090022001900320039001
:101AF00069462846FEF77CFD8027CDE900746946DB
:101B000028460294FEF774FD1F48416841F0E061E9
:101B100041F0040141601E4D1C48C5E90004C5E9BF
:101B200002472C61B8016C61C5E906402846FEF702
:101B3000F9FC08B1FEF7DAFBF5636E62144D134849
:101B40004435143801C5102091C5114845F8104995
:101B500044306C61AC61EC61FEF7E4FC08B1FEF767
:101B6000C5FBB5630322114625206E62FFF760F9BD
:101B70002520FFF74FF905B0F0BD00000038014007
:101B800000100240000C01400000014058000240DB
:101B9000080100207047704770B5044690F8410076
:101BA000202801D0022070BD49B342B32162A28433
:101BB000E28400206064212384F84130A56B114B3E
:101BC000AB62A56B104BEB62A56B104B2B63A36B49
:101BD0005863256813462A1DA06BFEF7D1FC2168C7
:101BE0006FF0400008602068143050E8001F41F09A
:101BF000800140E80012002AF5D1002070BD0120CC
:101C000070BD0000F72500083926000809250008E6
:101C100070477047FEE701684A69D24352050FD406
:101C20006FF480624A61002140F8301F2022427325
:101C30008173026942F0040202610173012070475E
:101C4000002070472DE9F84F0446C06A1E469346AF
:101C50000D4621680A6842F480620A60082807D0AD
:101C6000012805D010F5803F02D0206B112804D147
:101C70002068016841F4807101604FF001195B46F2
:101C8000002249462046009600F0CCF84FF4007838
:101C900040B120680068C00501D5C4F84080032029
:101CA000BDE8F88F2069DFF884A0B0F5804F0FD031
:101CB0000620216800EAD51747F0F0000861334696
:101CC0005A460AF10601204600F0F4F858BB03E03A
:101CD000E8B240F001001CE02168E8B20861334638
:101CE0005A465146204600F0E5F8E0B920684169BF
:101CF00081690091016841F4807101605B460022B6
:101D000049462046009600F08DF80028C1D147F0E2
:101D1000F1002168086133465A465146204600F0DA
:101D2000C9F80028BCD00120BAE700000200010079
:101D3000F8B50446C06A1E460D461746082807D067
:101D4000012805D010F5803F02D0206B122804D165
:101D50002068016841F480710160134600224FF051
:101D600001112046009600F05DF840B1206800683F
:101D7000C00502D54FF4007020640320F8BD20692F
:101D8000B0F5804F0ED00620216800EAD51040F053
:101D9000F000086133463A460B49204600F08AF8C5
:101DA00078B902E005F0FE0000E0E8B221680861C1
:101DB000054933463A46891F204600F07BF8002843
:101DC000DCD00120F8BD00000800010070B5164607
:101DD0000D4604461EE02046FFF71DFF08B1012016
:101DE00070BD681C16D0FEF7F9FC801BA84200D815
:101DF00085B920684069C04340070BD5002044F8EE
:101E0000300F20216173A073216941F0200121610D
:101E10002073E4E720684069C0434007DBD400201A
:101E200070BD00002DE9F047984617460D46044660
:101E3000C1F30746DDF820902AE000BFB8F1FF3F6C
:101E400026D0FEF7CBFCA0EB0901414502D8B8F142
:101E5000000F1DD12068012E16D0806925EA0000F0
:101E60000004000C12D00020B84211D1002044F828
:101E7000300F20216173A073216941F0200121619D
:101E800020730120BDE8F0874069E7E70120EBE718
:101E90002068012E0AD0806925EA00000004000CA9
:101EA00006D00020B842C9D00020EBE74069F3E734
:101EB0000120F7E72DE9F047984616460D460446FF
:101EC0004FF000094FF0200AC1F3074723E02068D4
:101ED0004069C043400515D42068016841F4007191
:101EE000016021686FF480604861C4F8309084F824
:101EF0003DA084F83E90216C41F00401216484F8F7
:101F00003C9021E0701C06D0FEF768FCA0EB0800B6
:101F1000B04203D816B1012F1FD021E02068012F55
:101F200015D0806925EA00000004000C18D000BF1D
:101F300044F8309F84F80DA084F80E90216941F098
:101F40002001216184F80C900120BDE8F0874069F0
:101F500025EA00000004000CEAD12068406901E095
:101F60002068806925EA00000004000CAFD1ECE78E
:101F70002DE9F041002590460E460446202728E032
:101F80004069C043C0060CD454F8301B6FF01000F9
:101F9000486144F810596777A577206A2062257751
:101FA00014E0FEF71BFCA0EB0800B04200D886B995
:101FB00020684069C04340060BD544F8305F677322
:101FC000A573206940F02000206125730120BDE841
:101FD000F08120684169C9434906D1D40020F6E761
:101FE00070B516460D4604461EE02046FFF713FE68
:101FF00008B1012070BD681C16D0FEF7EFFB801BF6
:10200000A84200D885B920684069C04300060BD5B6
:10201000002044F8300F20216173A073216941F042
:10202000200121612073E4E720684069C043000675
:10203000DBD4002070BD00000D4808B5416941F0B7
:10204000010141614069012200F00100009002217C
:102050000E20FEF7EDFE0E20FEF7DCFE012202212F
:102060000F20FEF7E5FEBDE808400F20FEF7D2BEC8
:10207000001002402DE9F04186B00025244800956B
:10208000019502950395816941F010018161816993
:1020900001F010010491816941F0200181618169A1
:1020A00001F020010491816941F008018161816999
:1020B00001F008010491816941F0040181618069A6
:1020C000144F00F004004FF4005404900022214605
:1020D0003846FEF77DFBDFF840806610002231466F
:1020E0004046FEF775FB00940124CDE90145022529
:1020F000694638460395FEF77BFACDE900646946E8
:102100004046CDE90245FEF773FA06B0BDE8F0811E
:102110000010024000100140000C01400D4810B5B5
:102120000B4901600C49416000214FF480428160FD
:10213000C0E9031241618161C1610162FEF754FB94
:10214000002803D0BDE81040FEF7D0B810BD000055
:102150000054004024000020801A060010B592B000
:1021600000240F941C2168461094FEF72EF82021BD
:1021700007A8FEF72AF82848264901602321C0E96C
:1021800001146321C0E903148021C0E90541FFF770
:102190004BFA08B1FEF7AAF80F940FA91E48109445
:1021A000FFF722F908B1FEF7A1F86020CDE900049D
:1021B00002940394049405940022694616480694F8
:1021C000FFF7CCF908B1FEF791F8042269461248EE
:1021D000FFF7C4F908B1FEF789F8082269460E48EE
:1021E000FFF7BCF908B1FEF781F8079408200894BE
:1021F000CDE909408002CDE90B4007A906480E94BD
:10220000FFF7C8F808B1FEF771F80348FFF76CF95B
:1022100012B010BD002C0140780000200C4810B511
:102220000A4901604FF4E1314160002181600C22D4
:10223000C160C0E904128161C161FFF703FC00289D
:1022400003D0BDE81040FEF751B810BD0038014082
:10225000C0000020FEE7FEE710B500210E48FFF7A2
:1022600025FA04210C48FFF721FA08210A48FFF754
:102270001DFA00210848FFF7EBF804210648FFF794
:10228000E7F808210448FFF7E3F80122BDE8104011
:1022900011030248FEF79CBA78000020000C0140B0
:1022A00070477047FEF75ABD30B58FB02821684699
:1022B000FDF78BFF14210AA8FDF787FF0121080411
:1022C000CDE900100024029402250491CDE90750C5
:1022D0004FF4E01009906846FEF7B8FE08B172B6F8
:1022E000FEE70F20CDE90A054FF48060CDE90C40F0
:1022F00002210AA80E94FEF7CDFD002801D072B687
:10230000FEE70FB030BD7047F0B50268194B1A4CAC
:102310001A4D4FF08047984205D0B84203D0A042F2
:1023200001D0A84203D122F070064A683243984295
:1023300005D0B84203D0A04201D0A84203D122F474
:102340004074CA6822434C6922F080022243026032
:102350008A68C2620A688262984201D1096901638F
:10236000012141610169C90703D0016921F001011F
:102370000161F0BD002C0140000400400008004055
:1023800010B501F01F030121046A99408C430462D7
:10239000016A9A401143016210BD10B501F00F03AC
:1023A0000421046A99408C430462016A9A401143F3
:1023B000016210BD30B5036A026A22F001020262B6
:1023C0004268846924F073050C682C4323F00205ED
:1023D0008B682B430A4DA8420BD123F00805CB682C
:1023E00022F440722B434D6923F0040315438A699C
:1023F0002A434260846149684163036230BD000042
:10240000002C014030B5026A036A23F01003036216
:10241000436884690D6824F4E64444EA05248D6821
:1024200022F0200242EA05120B4DA8420ED1CD68DF
:1024300022F0800242EA05124D6923F4406343EA28
:1024400085038D6922F0400243EA8503436084617D
:1024500049688163026230BD002C014030B5036AD7
:10246000026A22F4807202624268C46923F4007333
:1024700024F073050C682C438D6843EA05230C4D4A
:10248000A8420ED1CD6823F4006343EA05234D69C9
:1024900022F4405242EA05128D6923F4806342EA35
:1024A00005124260C4614968C163036230BD000027
:1024B000002C014030B5046A026A22F480520262A4
:1024C0004268C3690D6823F4E64343EA05238D6837
:1024D00024F4005444EA0534064DA84204D14D6961
:1024E00022F4804242EA85124260C3614968016475
:1024F000046230BD002C014010B5406A0021C18546
:10250000C184FFF767F910BD70B5446A206840695F
:1025100094F84110C0F3C0100025212904D118B14E
:10252000E584204600F0B4F82068406994F8421031
:10253000C0F38010222904D118B1E585204600F0AF
:1025400080F8606C40F0100060642046FFF742F9AC
:1025500070BD10B50146406A096809684FF0000275
:1025600089062ED4C28501680C3151E8003F23F45E
:10257000807341E80034002CF5D10168143151E832
:10258000003F23F0010341E80034002CF5D101683D
:10259000143151E8003F23F0400341E80034002C9F
:1025A000F5D1202180F84210016B012909D1016881
:1025B0000C3151E8003F23F0100341E80034002CB7
:1025C000F5D14263016B012902D0FFF7E3FA10BD98
:1025D000818DFFF7DFF810BD10B5406A012141631E
:1025E000016B012902D0FFF7D6FA10BD818D490891
:1025F000FFF7D0F810BD10B50146406A09680968B8
:10260000890616D40021C1840168143151E8002FD5
:1026100022F0800241E80023002BF5D101680C3143
:1026200051E8002F42F0400241E80023002BF5D191
:1026300010BDFFF7EDFA10BD10B5406AFFF7E9FADB
:1026400010BD01680C3151E8002F22F4907241E86E
:102650000023002BF5D10168143151E8002F22F03E
:10266000010241E80023002BF5D1016B012909D1BA
:1026700001680C3151E8002F22F0100241E80023DC
:10268000002BF5D1202180F8421000210163704712
:1026900001680C3151E8002F22F0C00241E800230C
:1026A000002BF5D1202180F84110704708B590F833
:1026B0004210222901D0022008BD82684FF48053C5
:1026C0009A4201D1016921B1816A9A421BD04AB173
:1026D0000AE00268816A5268C2F308020A80816ACD
:1026E000891C08E0026972B10268526802F07F0238
:1026F0000A70816A491C8162C18D491E0904090C56
:10270000C18503D01BE002685268F1E70168CA681E
:1027100022F02002CA600168CA6822F48072CA608E
:1027200001684A6922F001024A61202180F84210C2
:1027300000214163026B012A03D0FFF72BFA00202E
:1027400008BD016301680C3151E8002F22F010022E
:1027500041E80023002BF5D101680A68D20602D5B2
:102760000A6849680091818DFFF714F8E7E70000D7
:1027700070B5044600680169E26821F440511143D4
:1027800001612169A0680843616908432168CA683A
:1027900041F20C639A430243CA6020684169A2690E
:1027A00021F44071114341611E492068884202D1E1
:1027B000FEF716FC01E0FEF703FC00EBC00101EBA5
:1027C0000012606864218000B2FBF0F3B3FBF1F308
:1027D0006FF018067343B2FBF0F5B2FBF0F605EBB1
:1027E0008305322303EB0515B5FBF1F5B6FBF1F6D6
:1027F00005F0F00505EB0615B2FBF0F6B2FBF0F0C4
:10280000B0FBF1F06FF01802504306EB800003EBD1
:102810000010B0FBF1F0216800F00F002844886040
:1028200070BD00000038014038B5816204468285E1
:10283000002013466064222284F84220E56B1B4A84
:10284000AA62E56B1A4AEA62E56B1A4A2A63E26BEE
:1028500050630A462168E06B091DFDF791FE206870
:10286000016840680090206948B120680C3050E849
:10287000001F41F4807140E80012002AF5D1206861
:10288000143050E8001F41F0010140E80012002A16
:10289000F5D12068143050E8001F41F0400140E8B5
:1028A0000012002AF5D1002038BD00005325000891
:1028B000D9250008092500080148FEF78DBF000052
:1028C000C0000020FEE7490050EAC12018BF0420E4
:1028D0004A0D18BF40F0010040F2FF72B2EB515FA9
:1028E00008BF40F00200012808BF05207047090713
:1028F000090E002804DB00F1E02080F80014704786
:1029000000F00F0000F1E02080F8141D7047000077
:102910002DE9F74F144694B00021C4E9021115992E
:10292000079121F00045C9498D4206DC1599C4E99B
:10293000000117B00020BDE8F08FC549DFF814A3EF
:10294000A9423CDD0799C44E0029C44FC44A1599D9
:10295000534619DD01F0B0FB554506D0C14AC24BC4
:1029600001F0AAFBC4E900010AE04FF0D352BE4BCC
:1029700001F0A2FB32463B4601F09EFBC4E9000198
:1029800017B00120BDE8F08F00F09CFE554506D041
:10299000B44AB54B00F096FEC4E900010AE04FF0DE
:1029A000D352B14B00F08EFE32463B4600F08AFE19
:1029B000C4E9000117B04FF0FF30BDE8F08FAB491C
:1029C000A942159978DB21F0004183468846A84A40
:1029D000A84B01F0D9F80022A74B00F073FE01F0DC
:1029E00079F8099001F0A5F806460F469C4A53462F
:1029F00001F0CAF843465A4601F06CFA80468A460E
:102A0000984A994B3046394601F0BEF82A0D012507
:102A10000B924246534601F05DFA032DC4E90001D2
:102A200039D00B98C1F30A51401A05EB4511113901
:102A3000814230DA9148C346784400EB0510CDF866
:102A40000CA00C90D0E900233046394601F09CF8E8
:102A500002460B46049106905846039901F02CFB60
:102A600080468A4602460B465846039901F024FBED
:102A7000049B069A01F020FB83460C98039139468B
:102A8000D0E90223304601F07FF85A46039B01F05B
:102A900013FB6D1CBDE707980028A2BF099817B06B
:102AA000BDE8F08F616881F000416160099817B05E
:102AB0004042BDE8F08FFFE784461598C1F313014B
:102AC000C0F30A50A0F2F5304FEA601800F01F067C
:102AD000C6F12000139000200690079041F4801E5C
:102AE00005206D4676B1664A08EB00017A4452F83B
:102AF000213002EB8101B3404A68139922FA01F1B7
:102B0000194305E05F4908EB0002794451F82210AF
:102B1000A1FB0E27A1FB0C131A449A4234BF0123D8
:102B2000002303EB070A05EB8003D3E901B70F4449
:102B30008F4234BF0121002193448B4411B193454E
:102B400002D903E0934501D2012100E00021C3E94D
:102B500001B7514445F82010011EA0F10100C1DC6D
:102B60000298059F00F10050800F12900298DDE955
:102B70000356800000F0DDFF834628460D9100F0EB
:102B8000EFFF6FF01D0201F07EFECDE90E01304631
:102B900000F0E6FF6FF03D0201F075FE80468A46C8
:102BA000384600F0DDFF6FF05D0201F06CFE074675
:102BB00042465346119100F085FDDDE90E2300F0F9
:102BC00081FD5A460D9B00F07DFD00250E465A46BC
:102BD00028460D9B01F070FADDE90E2301F06CFA36
:102BE0004246534601F068FA3A46119B01F072F9E9
:102BF000DFF898A0244A534600F0C6FF07468846EF
:102C0000234A244B3146284600F0BEFF3A4643464D
:102C100000F058FD074688464FF0A842534631461B
:102C2000284600F0B1FF3A46434600F04BFD159AA6
:102C300012F0004F04D0129A81F0004152421292D9
:102C4000C4E90001129817B0BDE8F08FFB21E93FFD
:102C50007CD90240FB21F93F7370032E8A19A33BF4
:102C6000000040543163621A61B4D03DFB21394108
:102C700083C8C96D305FE43F0000E03F7C1F000067
:102C8000F81E0000DA1E0000182D4454FB21F93D07
:102C90003326A611460B113C2DE9FF4D21F00048CB
:102CA00007460C46B8F1795F08DA00F013FF0028F8
:102CB00001BF0020324904B0BDE8F08D3A462346FA
:102CC0001046194600F060FF054602462D480E46A4
:102CD0000B460621784400F05DF82A46334600F0A2
:102CE00053FFDDE9022382468B463846214600F039
:102CF0004BFF04460F4652465B462846314600F0DD
:102D000043FF22463B4601F0D7F907468A464FF07B
:102D1000FF322846314601F0B6FD1B4A90450ADADB
:102D20003A46534601F0C8F904B00022BDE8F04D20
:102D3000134B01F0CFB8154A4245A8BFA8F50015BE
:102D40004FF00004B8BF124D22462B4601F0B4F9F3
:102D50000646884622462B460020094901F0ACF978
:102D600004460D463A4653463046414601F0A4F922
:102D700004B022462B46BDE8F04D01F0ABB8000090
:102D80000000F03FB01C00003333D33F0000E93FA8
:102D90000000D23F2DE9F0414F1E00EBC701044671
:102DA000D1E9000115461E4637F006020DD02A462D
:102DB000334600F0E9FE7F1E04EBC703D3E900238E
:102DC00000F080FC37F00602F1D1022F25D0042F4D
:102DD00013D0062F18BFBDE8F0812A46334600F015
:102DE000D3FED4E90A2300F06DFC2A46334600F0F6
:102DF000CBFED4E9082300F065FC2A46334600F0F8
:102E0000C3FED4E9062300F05DFC2A46334600F0F9
:102E1000BBFED4E9042300F055FC2A46334600F0FB
:102E2000B3FED4E9022300F04DFC2A46334600F0FD
:102E3000ABFED4E90023BDE8F04100F043BC000044
:102E40002DE9FF4D054621F0004084B00C46B0F15D
:102E5000795F0BDA2846FFF736FD042808BF00F03B
:102E60006FF8284608B02146BDE8F08D2A460B468B
:102E7000104600F089FE06460F462A46234600F01B
:102E800083FE804626488A4632463B4605217844E2
:102E9000FFF780FF83461098029160B3214A224BCE
:102EA0004046514600F070FECDE900015A464046CA
:102EB0005146029B00F068FE82468846DDE9060125
:102EC0004FF0FF3201F0DFFC5246434601F0F4F8C8
:102ED00032463B4600F058FEDDE9062301F0ECF8EF
:102EE000DDE9002301F0E8F808B02A462346BDE8F2
:102EF000F04D00F0EFBF0B465A463046394600F021
:102F000043FE084A084B00F0DDFB4246534600F002
:102F10003BFE08B02A462346BDE8F04D00F0D2BB88
:102F2000EE1B0000495555555555C5BF012201F00E
:102F3000AABC002213461046114600F073BC0000E4
:102F4000024A0020110701F09EBC000001FDFFFFB6
:102F500070B501F09BF90C4C0C4D22462B4600F04D
:102F60009FF800F07DFB10F1FF4F02D201F08EF9C7
:102F700005E001F08BF922462B4600F0A3FBBDE8EB
:102F8000704000F06DBB0000EA2E4454FB21194054
:102F9000704770B500244FF080454FF4FA76002258
:102FA0002946104600F022F9641CB442F7DB70BDDC
:102FB00000B5244B21F0004287B09A42DCBF0022CA
:102FC000134629DD204B9A4208D140B94FF0010049
:102FD000FDF72BF9FFF7ADFF07B000BD03DBFFF7EF
:102FE000A5FF07B000BD02AAFFF792FC10F0030195
:102FF00004BF0DF1080C9CE80F000DD00120012941
:103000000ED0022914D00DF1080C00909CE80F009E
:10301000FFF716FF07B000BDFFF73EFE07B000BD8B
:103020000DF1080C00909CE80F00FFF709FF05E088
:103030000DF1080C9CE80F00FFF72EFE07B081F0A1
:10304000004100BDFB21E93F0000F07F3EB50020BC
:1030500001900B200C2400908DF808406C2102AAEE
:1030600001230748FDF7ACFD01AA02236D210448A6
:103070000094FDF77DFCBDF8040040BA3EBD0000A1
:103080002400002010B5044C00206060FFF7DEFF34
:1030900001F072FA206010BD10000020704700009F
:1030A00070B514461D460E46002814BF01210021AC
:1030B000314321F00041C1F17F6101F1E041C90FCD
:1030C00016D1002C14BF01210021294321F0004119
:1030D000C1F17F6101F1E041C90F09D11449B1EBA0
:1030E000460F08BF00281CD0690008BF002C18D06C
:1030F000314600F041FE024640F2FF7030EA1150C6
:103100000DD0F017B0EBE17F09D0084665F31E0043
:1031100084460B462046614600F0DCFE024610461F
:1031200070BD0120FDF781F8BDE87040FFF701BFD9
:103130000000E0FF10B54FF4807205490548FEF726
:1031400003FB05480068016821F00401016010BD1F
:1031500090010020C000002008010020FDF706FEBD
:10316000FFF7A2F8FEF786FFFEF766FFFFF756F8B7
:10317000FEF7D4FFFEF7F2FFFFF790FFFFF7DAFF4D
:10318000FFF780FFFFF768F8FFF703FF00F010FA82
:103190000122094D540321462846FDF719FB074E2D
:1031A0004FF07E573146384600F00EFA0022214695
:1031B0002846FDF70DFBF5E70010014052B8964197
:1031C00070B515460E4601F0B7F9074C2168486303
:1031D000304601F0B1F921688863284601F0ACF966
:1031E0002168C86370BD0000780000202DE9F74F0A
:1031F00006468EB0A84CA94D104601F047F8B6F52A
:10320000000F22462B4602DB00F05CFA01E000F0E2
:1032100053FF00F025FAFFF79BFE01F037F88B46CD
:1032200004460291009000F04DF905460F463046E5
:1032300001F02CF806462A463B46069100F0A4FC15
:1032400081468A4620465946FFF7B2FE0746884621
:103250000F9801F01BF805463A464346019100F0ED
:1032600093FC4A46534600F027FF00F0F9F9074661
:1032700020465946FFF79CFE02460B46304606990B
:1032800000F082FC064688462046594600F01AF9AE
:1032900002460B462846019900F076FC324643462A
:1032A00000F010FA00F0DCF9014601F079F904466B
:1032B0003946084601F074F9214601F013F800F090
:1032C000E5FF00F04FF90022754B00F0ABFA00F07B
:1032D000C7F90446734974488C4201DB0C4602E08E
:1032E000844200D90446DFF8C4B1714B5A460299B2
:1032F000009800F097FADFF8BCA10022534600F0D6
:10330000E1F900F0E7FB8146204600F0BFFF0446EC
:103310000D464846DDF80880009F00F00AFC06468E
:103320005A46634B049100F02FFC3A46434600F0A6
:10333000C3FE00F0C7F8604FDFF880813A4643468D
:1033400000F022FC22462B4600F01EFC00F088F91B
:103350000190304600225346049900F0ADFE5A46D3
:10336000534B00F011FC029B009A00F0B3FD00F0FB
:10337000A9F83A46434600F007FC2B46224600F0E7
:1033800003FC00F06DF906464FF07E50019901F004
:10339000D3F9314601F0D0F97917B9F1070F5DD2B1
:1033A000DFE809F05C04122331414E0001F099FA84
:1033B00007463146019800F095FF394600F092FF2C
:1033C0000546384631460BE001F08BFA0746019975
:1033D00000F088FF05463146019800F083FF39462A
:1033E00000F080FF04463E463BE001F07AFA0546D5
:1033F0003146019800F076FF294600F073FF04463D
:10340000284631460BE001F06CFA0546019900F0C0
:1034100069FF04463146019800F064FF294600F038
:1034200061FF06461DE001F05CFA0446314600F0FB
:1034300059FF05463146019800F054FF2146EEE75A
:1034400001F04FFA04463146019800F04BFF214647
:1034500000F048FF054620460199E0E700252C468C
:103460002E461748C068401C01F086F807463146D2
:1034700001F096F806463846214601F091F80446D8
:103480003846294601F08CF811B032462146BDE895
:10349000F04FFFF795BE0000F4D64354FB21F93FEF
:1034A0000000284046B6133F46B613BF40AF2D3844
:1034B00052C1F03F0000F03F6B6058E87AB6FB3F26
:1034C0007800002000B5254B21F0004287B09A42D9
:1034D00003DC0022134600922BE0214B9A4208D1D4
:1034E00040B94FF00100FCF7A0FEFFF722FD07B046
:1034F00000BD03DBFFF71AFD07B000BD02AAFFF70E
:1035000007FA10F003014FF001000DD0012914D08B
:1035100002291AD00DF1080C9CE80F00FFF7BCFB44
:1035200007B081F0004100BD0DF1080C00909CE84F
:103530000F00FFF785FC07B000BD0DF1080C9CE8FB
:103540000F00FFF7A9FB07B000BD0DF1080C0090BC
:103550009CE80F00FFF774FCE2E70000FB21E93F65
:103560000000F07F2DE9F04106460F4600F0BEFC5A
:10357000041E0D4618BF0120284320F00040C0F172
:103580007F6000F1E040C00F0ED0301C18BF01205A
:10359000384320F00040C0F17F6000F1E040C00FF0
:1035A00004BF0120FCF741FE20462946BDE8F0811A
:1035B0004FF0E02003494161002181610121016157
:1035C00070470000FEFFFF002DE9F04782464FF0F4
:1035D000E020894685691C4C1C4F1D4E6068DFF851
:1035E0007480854201D2401B03E06FF07F41491B8C
:1035F000084400F0C1FF394600F0DCFE00F046FE52
:103600003246434600F0C0FA00F02AF8014610F0B6
:10361000FF4F656002D0B1F17C5F00DD0E49484686
:1036200000F0BEFFA16800F05DFEFFF791FC0B49C2
:10363000A06000F0B5FF024600215046FFF7D6FD1E
:103640005046BDE8F087000018000020000010413F
:103650008DEDB5A0F7C6B03E6F12833A0000E04092
:1036600021F00042A2F16052B2F5801F01F0004348
:1036700028BFD2F17F6C0BD95FEA001C43EAC2027B
:1036800042EB507018BF704728BF20F00100704710
:10369000B2F5801FBCBF184670474FEA410C1CF5BD
:1036A000001F02D2084601F042B870B500F016FBC8
:1036B00000000089FFF7F6BF4FF00040A0F5800042
:1036C0007047000010B591EA030F48BF83F0004334
:1036D00000F1FA84841A71EB030C05D2121943EB42
:1036E0000C03001B61EB0C01DFF824E14FEA1154DD
:1036F000A4EB135C1EEA430F18BF9EEA445F73D02D
:1037000023EA0E03DCF1200E21EA045143F4801376
:1037100032D322FA0CFE10EB0E0023FA0CFE41EB22
:103720000E01CCF1200E03FA0EFE10EB0E0051F14B
:103730000001B1F5801FCCF1200E32D201EB045113
:1037400012FA0EF2BDE8104058BF7047401C38BF57
:103750005FEA420218BF7047002814BF20F0010042
:1037600041F100014FEA410313F5001F38BF7047D4
:10377000A1F1C04100F0A8BB012A43EB0302ACF168
:10378000200CDCF11F0E32BF4FF0000E23FA0CF3B9
:1037900010EB030041EB0451B4EB115FD0D0A1EB6F
:1037A000045101F5801149085FEA300001EB045132
:1037B0000ED350F1000038BF12FA0EFE08D1BDE85A
:1037C0001040C9E7401C38BF5FEA4202CAD1C3E7D4
:1037D000BDE810404FEA410313F5001F38BF7047A2
:1037E000A1F1C04100F070BB9EEA445F08D011EA2D
:1037F0005E0FBDE8104004BF01F00041002070479B
:10380000BDE8104070B500F069FA00BF64FBBE3E31
:103810000000E0FF02494FF0000001F002B800BFD5
:103820000000F87F2DE9C04130B4DFF8A0C23CEAC7
:10383000111418BF3CEA131400F0EC8081EA030570
:103840001CEA111444EAD57418BF1CEA131500F0E1
:10385000C780A4EB05044FF0004545EAC12145EAC5
:10386000C32341EA505143EA525304F17F74994211
:1038700004F500344FEAC0204FEAC22208BF90424C
:1038800000F09C804FEA13650FF24016765D4FEA18
:10389000134506FB05F7C7F1807706FB07F74FEAEC
:1038A000D737A7FB03687642C8F58038A7FB06CE5A
:1038B00038BFA8F1010807FB08E64FF0000EA6FB91
:1038C000028CE6FB03CEDCF1000CCEF1004E38BFDB
:1038D000AEF1010EA6FB0C584FF000074FF00005AB
:1038E000E6FB0E87A1FB08C6A0FB07CE16EB0E0673
:1038F00045F10005E1FB076515F1E04E7EBFA4F53B
:1039000080345FEA46066D4116F1800745F10005F7
:103910004FEA17274FEA066647EA0567A6F1DE4633
:10392000B6F1805F4FEA15251FD9384624F0010C07
:1039300005EBC471BCF1FE6F01EB0C1102D8F0BCB9
:10394000BDE8008124425CBF01F5801E9EEAC47F71
:1039500002D4F0BCBDE80081244238D4F0BCA1F10F
:10396000C041BDE8004100F0AFBA4FEAD22242EABE
:1039700043524FEAD323A7FB02864FEAD02040EA06
:10398000415007FB03661EEA0E0F4FEAD12105FBEB
:10399000026658BFA6EB0056B6EB00564FEA520E31
:1039A0004EEAC37E18EB0E0E56EB530EBDD518EB48
:1039B00002085E417F1C55F10005B6E74FF4801503
:1039C0004FF000074FF000064FF00008ADE7F0BCE5
:1039D0004FF0000001F1C04101F00041BDE800815D
:1039E00011EA0C1F0CEA131500D00CE013EA0C1FAF
:1039F00000F025804FF00000F0BC81EA030101F0E7
:103A00000041BDE80081F0BCBDE8004181EA03014E
:103A100000F05ABAF0BCBDE8004170B500F05EF9A4
:103A2000097EFC3E00F007B881EA03014FF0000078
:103A300001F00041704781EA030100F045BAF0BC93
:103A4000BDE800414FF0000021497047FFFDFBF940
:103A5000F7F5F4F2F0EEEDEBE9E8E6E4E3E1E0DEC1
:103A6000DDDBDAD8D7D5D4D3D1D0CFCDCCCBCAC833
:103A7000C7C6C5C4C2C1C0BFBEBDBCBBBAB9B8B75A
:103A8000B6B5B4B3B2B1B0AFAEADACABAAA9A8A84D
:103A9000A7A6A5A4A3A3A2A1A09F9F9E9D9C9C9B1B
:103AA0009A999998979796959594939392919190C6
:103AB0008F8F8E8E8D8C8C8B8B8A89898888878757
:103AC0008685858484838382828181800000FF07CC
:103AD0000000F87F4FEA41034FEA5353A3F5806398
:103AE000D3F11E03C8BFD3F1210C0CDD4FF000420F
:103AF00042EAC12242EA505232FA03FC8CEAE17CEB
:103B0000ACEBE1707047102BC4BF0020704703F589
:103B1000787CBCF1FF3F04D06FF0004282EA2100C4
:103B2000704770B500F0DAF84992248000207047A1
:103B3000F2E710F0004248BF4042B0FA80F310FABA
:103B400003F10AD0C3F11D0303F580634FEA41502E
:103B500002EB035202EBD12170474FF00000704797
:103B6000B0FA80F310FA03F10AD0C3F11D0303F594
:103B700080634FEA41504FEA035202EBD121704774
:103B80004FF0000070470000DFF848C170B51CEA34
:103B9000111E1EBF1CEA13159EEA0C0F95EA0C0FAE
:103BA00000F06F8081EA030423EA4C134EEAD47ECE
:103BB00021EA4C1141F4801143F48013AE44A1FB7F
:103BC000024CA0FB0365AEF17F7E361955EB0C0568
:103BD000A1FB034C4CF10003A0FB021C16EB0C06EE
:103BE000654153F10003094218BF46F0010613F482
:103BF000007F0BD14FEA03314FEA0530340341EA2D
:103C0000155140EA16506FF003020AE04FEAC32153
:103C10004FEAC520F40241EA555140EA56506FF090
:103C2000020202EB2E4201EB025585EACE710AD068
:103C30005FEA440C18BF24F0004450F1000041F149
:103C4000000120EAD47040F2FE7C624500D270BDD3
:103C5000A84214BF4FF080444FF04044002E08BFEC
:103C60000024BEF1806FA8BFA1F1C041BDE8704043
:103C700080F22A814FF0000001F1C04101F00041C3
:103C800070479EEA0C0F0CEA131518BF95EA0C0F4B
:103C900006D04FF0000081EA030E0EF0004170BD27
:103CA00000F01CF88900013E00F007B800F009B8E8
:103CB0004FEA430C5FEA5C5C08D081EA030100F044
:103CC00003B94FEA410C5FEA5C5CF6D14FF00000AB
:103CD000014970470000FF070000F87F0EF1020E57
:103CE0002EF0030E5EF8046B364205D4012A43EB36
:103CF000030515F5001F12D8012841EB010C1CF536
:103D0000001F0CD80ED14FEAD17C15F5001F0CEB2B
:103D10004C0C0CF1020C08BF4CEBD37C04E04FF0D0
:103D2000080C01E04FEAD37C0CEB4C0526FA05F6B3
:103D300006F00706B6F1040C06D20EEB860CBDE8C1
:103D400070404CF0010C6047DFE80CF0090B0202F8
:103D50004FF000414FF00000A1F5002170BD194661
:103D60001046012851EB010418BFD4F5001484BF9C
:103D7000002001F0004170BDDFF844C170B53CEA9D
:103D8000111418BF3CEA131500F08F8011F1004F99
:103D90001CEA13150CEA111468BF45F0050518BF9D
:103DA00011EA0C1F00F079802E4621EA4C1123EA1B
:103DB0004C1341F4801143F48013A5F58035AC42D7
:103DC0003DDD801A9941A4F5803609D54042C1F104
:103DD000000134BFB1F10101B1F1000185F001052D
:103DE00011F4F01F08D011F4801FE8D1400041EB1E
:103DF0000101A4F58034F6E721F00041B1FA81F623
:103E0000202E04BFB0FA80FE0EF12006A6F10B06AC
:103E1000B6F1200EA4EB06440CD2C6F1200E01FA36
:103E200006F120FA0EF641EA0601CEF1200600FA6C
:103E300006F003E000FA0EF14FF00000BFE750EA91
:103E4000410E23D04FEA244EBEEB254F0FDB9942A3
:103E500008BF904204D00AD3520043EB0303B0E7FB
:103E60004FEA1646B6EB144F08BF85F00105B4F5CE
:103E7000803401EB041181EAC57100DB70BD01F1F2
:103E8000C0414FF0000001F0004170BD4FEA4571A4
:103E90004FF0000001F0004170BD1CEA131F09D073
:103EA0004FF0000001F0004170BDFFF717FF00BFA9
:103EB000EDFFFF3EBDE870404FF000000149704744
:103EC0000000FF070000F87F0808A0F500114FEA86
:103ED0003101704791EA030F10B581F000413FF5C1
:103EE000F9AB83F0004300F0EFB800002DE9F0419A
:103EF00001F5801CBCF5001FC0F2C3804FEA115CC5
:103F000021EA0C510CF1FD0C41F480115FEA5C0CCC
:103F10000CF5C07C01D3400049413DA4890241EA2F
:103F2000905187028E0E0A0CA45D04FB04F602FB7E
:103F300006F6C6F14046A4FB0662F60D46EA4226A6
:103F400006FB06F4A4FB01235242C3F1404338BFF1
:103F50005B1EA6FB02420024E6FB0324D20B42EACE
:103F60004446A6FB0623A1FB02E2A3FB07E4A41838
:103F70004FF0000252F10002E3FB01426442C2F141
:103F8000404E38BFAEF1010EA6FB04234FF00002F5
:103F9000E6FB0E32A2FB03464FF00004B61954F1C3
:103FA0000004E2FB0264A1FB06E6A4FB07E816EBB3
:103FB00008064FF0000858F10008E4FB016876425B
:103FC000C8F1405838BFA8F10108A2FB06E4A3FBE2
:103FD00008E52D194FF0000454F10004E2FB0854E9
:103FE000A1FB05E6A7FB04E818EB06084FF0000666
:103FF00056F10006E1FB048618F1200556F1000693
:10400000A809A8F11B08B10908F03F08B8F10A0F88
:1040100040EA86601CD901EB0C51BDE8F08100BF7D
:10402000FCF5EEE8E2DDD8D3CFCBC7C3C0BDB9B64F
:10403000B4B1AEACA9A7A5A3A19F9D9B9A98969554
:104040009392908F8D8C8B898887868584838281DB
:10405000A0FB006800FB01F208EB4208B8EB8728E0
:1040600007D5341858EB0104D5D5401C51F1000197
:10407000D1E7341A78EB0104CDD4401E71F1000170
:10408000C9E75FEA4C0C5FEA9C5C0DD105D34FF0A9
:10409000000001F00041BDE8F081BDE8F04170B5DD
:1040A000FFF71CFE6DDBFFBEBDE8F0414FF00000E6
:1040B000004970470000F87F10B591EA030F48BF30
:1040C00083F000433FF506AB841A71EB030C07D273
:1040D00012198CF0004C43EB0C03001B61EB0C013C
:1040E000DFF8A4E14FEA1154A4EB135C1EEA430F7E
:1040F00018BF9EEA445F00F0B08023EA6E0352428C
:1041000021EA0451C3EB6E0338BF5B1EDCF1200EC5
:1041100025D322FA0CFE10EB0E0043FA0CFE41EB05
:104120000E01CCF1200E03FA0EFE10EB0E0051F141
:104130000001CCF1200E29D412FA0EF201EB045149
:10414000BDE8104058BF7047401C1CBFB2F1004F83
:10415000704700280CBF491C20F00100704712EB8B
:10416000020E43EB030218BF4FF0010E4EEA42026B
:10417000ACF1200CDCF11E0E54D943FA0CFE10EB0E
:104180000E0051F1FF31CCF11E0ED5D50EF1010E0E
:1041900012FA0EFE404141EB010101EB445C5FEA83
:1041A0005C5C10D910EBDE7001EB045138BFBEF13E
:1041B000004FBDE8104018BF704700280CBF491CD5
:1041C00020F00100704730D24FEAD42C11F50011D5
:1041D00024F400641BD0B1FA81F20B3AA41AA41E95
:1041E000D2F12003914030FA03F31943904001EBE0
:1041F000CC71002C01EB0451BDE81040A8BF704702
:1042000001F1C0414FF0000001F000417047B0FAE9
:1042100080F310FA03F100D110BDE41A173C4805F1
:10422000C90AE4E701EB045110BD491001EB045148
:10423000BDE810404FEA300002E04FF00001704747
:104240004A0008BF0042F8D0B2F5001F28BF7047EF
:1042500001F000414FF0000070479EEA445F07D034
:1042600011EA5E0FBDE8104004BF00210020704736
:10427000BDE8104070B5FFF731FD00BF40DFF63EEE
:1042800083F00041104670470000E0FF43004FEA12
:10429000D30C4FEA3C0C43401FBF40070CF1605168
:1042A00013F0FE4F70471CF0006F03D100200CF09C
:1042B000004170470CF0004343EA507010B540EAEB
:1042C000CC0000F0EEF900BF000000924FEA0001C0
:1042D000FFF7FABD4FF000414FF00000A1F50021BB
:1042E0007047000090EA010F48BF81F0004100F1E3
:1042F0002A82421A3CBF801A89184FEAD0524FF0E6
:104300007F4C1CEA410FA2EBD15318BF9CEA026F0D
:1043100000F03B804FF0004C4CEA00204CEA0121B9
:1043200021FA03FC10EB0C0C1ED202F1FF325FEA03
:104330001C2040EBC25038BF70471CF07F0F4FEA83
:10434000400C18BFBCF17F4F38BF7047C3F120034A
:10435000994008BF20F00100BCF17F4F38BF704783
:10436000A0F1C04000F0E3B94FEA3C00000A40EB86
:10437000C25028BF1CF0FF0F4FEA400CE6D018BF18
:10438000BCF17F4F38BF7047EAE79CEA026F05D067
:1043900010EA5C0F08BF00F00040704710B500F055
:1043A00080F900BF64FBBE3E014800F03ABA00BF8E
:1043B0000000C07F4FF47F0C1CEAD0121EBF1CEA25
:1043C000D11392EA0C0F93EA0C0F00F0858090EA6B
:1043D000010F48BF42F4807240F4000C41F4000029
:1043E0002CF07F4120F07F4000B58142A2EB030218
:1043F0000FF2081CACEB504EC0F100009EF800E03C
:104400004FEA4E0E00FB0EFC38BF49004FEA2C1C51
:1044100002F5FA020CFB0EF34FEACE1E4FEA112C06
:104420004FEAC1210EEB635E42EB22420EFB0CFC15
:104430004FEA1C5300FB03114FEA112C4FEA0131E4
:104440000EFB0CFC4FEADC4C00FB0C11C14228BFF8
:1044500009184CEB03335DF804EB10EB410143EB1F
:10446000C250B2F57C0F38BF704729D512F0F00F5B
:104470001CBF00F1C04000F0004070470081828303
:104480008485868788898B8C8D8E8F919293959663
:1044900097999A9C9D9FA0A2A3A5A7A8AAACAEB0ED
:1044A000B2B3B5B7B9BCBEC0C2C5C7C9CCCED1D4F2
:1044B000D7D9DCDFE2E6E9ECF0F3F7FAFE00000022
:1044C0004FEA400C0CF1807CBCF17E4F28BF704756
:1044D000B0F1C04000F02BB990EA010F0CEAD11303
:1044E00048BF42F48072624538BF634507D213F477
:1044F0007F0F16D080EA010000F00040704710B531
:1045000000F0CFF8097EFC3E00F005B880EA01001B
:1045100000F00040704780EA010000F0004000F029
:1045200006B912F47F0F04BF0248704780EA010009
:1045300000F0FDB80000C07FC10DD1F19E0206DB86
:104540004FEA002343F0004323FA02F07047004291
:1045500007D54FEA4001B1F1FE4F02D24FF0000003
:10456000704710B500F09DF84992248000207047F4
:104570006FEA200070470000B0FA80F310FA03F2EF
:10458000C3F19D030AD0D90501EB1220530638BFB1
:10459000704700F1010008BF20F0010070470000E3
:1045A0004FF47F0C1CEAD0121EBF1CEAD11392EA12
:1045B0000C0F93EA0C0F00F0478090EA010F48BF00
:1045C00042F480724FF0004C4CEA00204CEA01218A
:1045D00002EB0302A0FB0113A2F50002002918BFA1
:1045E00043F001035B0028BF4FEA330342EB224252
:1045F0005FEA132C4CEBC2502EBFBCEB436FB2F5FD
:104600007C0F70474FEA036CBCF1004F08BF20F0ED
:104610000100B2F57C0F38BF70470BD582F0FF0266
:1046200012F5803FC8BF704700F1C040D8BF00F00E
:104630000040704700F5000C5FEA4C0C48BF704723
:10464000B0F1C04000F073B890EA010F0CEAD1134A
:1046500048BF42F48072624538BF634504D280EAA5
:10466000010000F00040704710B500F01AF800BFDC
:104670008900013E00F007B800F009B85FEA410C7C
:104680005FEA1C6C08D080EA010000F050B85FEAD5
:10469000400C5FEA1C6CF6D14FF00040A0F58000A2
:1046A00070470EF1020E2EF0030E5EF8044B24420A
:1046B00004D44FEA4102B2F17F4F11D84FEA4003D0
:1046C000B3F17F4F0CD80ED14FEAD07CB2F17F4FBF
:1046D0000CEB4C0C0CF1020C08BF4CEBD17C04E051
:1046E0004FF0080C01E04FEAD17C0CEB4C0324FAAC
:1046F00003F404F00704B4F1040C06D20EEB840CAE
:10470000BDE810404CF0010C6047DFE80CF00708F2
:1047100002024FF00040A0F5800010BD08464200A4
:1047200018BFD2F1807288BF00F0004010BDFF2199
:1047300041EAD050C005704790EA010F48BF81F0B0
:1047400000413FF5D6AD421A04D882F00042A0EBFA
:10475000020011444FEAD0524FF07F4C1CEA410F47
:10476000A2EBD15318BF9CEA026F4AD04FF0004C25
:104770004CEA00204CEA012121FA03FCB0EB0C0CBE
:104780000FD412F0FE0F36D05FEA4C001DD5001298
:1047900040EBC25038BF70471CF03F0F18BF704746
:1047A0000BE0A2F101025FEA1C2040EBC25038BFCF
:1047B00070471CF07F0F18BF7047C3F1200399406A
:1047C00014BF401E20F00100704780084FEA1223FA
:1047D00008BF7047B0FA80FCA2EB0C02CCF1280CA9
:1047E00060FA0CF093EA122F04BF00EBC25070473E
:1047F0004FEAC3707047130A5FEADC1008BF7047C6
:10480000F6E79CEA026F04D010EA5C0F08BF0020B4
:10481000704710B5FFF745FF40DFF63E81F00040DE
:1048200070470CF00F03092B08BF082000F07F80B1
:104830000A2B0BD0082B18BF704708BF1CF0400F85
:104840000AD04FF000004FF0000170471CF0400FFD
:1048500018BF4FF0004070471CF0100F08D020F038
:10486000704300F07F4242EAD3014FEA4370704741
:1048700000F0604021F07F4242EA000201F07F40F8
:1048800040EA727070474FF0FF0C4CF4E06C1CEA89
:1048900011531CBF9CEA030C9445C2BFDA4201EBE2
:1048A00002517047002B0DD0BCF1000F0FD0002A31
:1048B00001F00041A4BF41F0E04141F07F614FF0C1
:1048C0000000704701F000414FF00000704750EACF
:1048D00001334FF09B0C18BF4CF0806C7EF49AAF04
:1048E00070474FF0FF0212EAD0521CBF92F0FF0354
:1048F0008B42C2BFD14200EBC1507047002A0AD0A0
:10490000002B0BD0002900F00040A4BF40F0FE4077
:1049100040F40000704700F00040704743024FF041
:104920000B0C18BF4CF0806C7FF43EAD70471CF44C
:10493000801F11D01CF4E02F03D06FEACC31490066
:1049400070474FF04050EFF3008222F0704242EA8D
:10495000000282F3008870474FF0000070470102A8
:1049600002030405060708090A0B0C0D0E0F1010B0
:10497000000000000000000001020304060708090F
:1049800000000000010203044C5555555555A53F44
:104990007751C1166CC156BF9015CB19A001FA3ED4
:1049A000AD529C804F7E92BEC4B1B4BD9EEE213EFE
:1049B000D43888BEE9FAA8BD00004054FB21F93F75
:1049C0003163621A61B4D03D0000601A61B4D03D19
:1049D0007370032E8A19A33B0000002E8A19A33B93
:1049E000C14920259A837B390000000000000000A7
:1049F0006E83F9A22915444ED15727FCC0DD34F54A
:104A0000999562DB4190433CAB6351FE61C5BBDECF
:104A10003A6E24B7E0D24D42EA2E49061C92D109E3
:104A20001CEB1DFE3EA729B1F53582E88444BB2E60
:104A300026709CE9417E5FB439D69139F4395383AD
:104A40008B5F849C3B28F9BDFF97F81F0F9805DE0C
:104A50008B112FEF1F6D0A5ACF7E366DB709CB270A
:104A6000663F464F2DEA5F9EC7BA27757BF1E5EB9F
:104A7000F739073DEA92528AB15FFB6B085D8D1FE3
:104A8000A6F810111111813FD561C119A0012ABFEB
:104A90007DFEB157E31DC73EEB9C2B8AE6E55ABE6F
:104AA0007CD5CF5A3AD9E53DC84A0008000000201D
:104AB0002400000028010008EC4A0008240000201F
:104AC000CC080000440100080100000010000000B4
:104AD0000000000000127A0000000000000000004A
:0C4AE000000000000000000000000000CA
:04000005080000ED02
:00000001FF
